:400000000080002011000000F1060000F106000008B5044B1A6803F53F5302331A6000F087FB00BFFA46004010B5054C237833B9044B13B10448AFF300800123237010BD07
:400040004881FF1F0000000080170000084B10B51BB108490848AFF300800848036803B910BD074B002BFBD0BDE81040184700BF000000004C81FF1F80170000C880FF1FD4
:400080000000000000B595B062B600F053F900F0D7FB052000F0BCFE0DF11B022021182000F04EF948B99DF81B208D4907A800F043FF07A800F0DEFB02E08A4800F0DAFB1D
:4000C0009DF81B30572B14D057228DF81B202021182000F085F948B99DF81B20824907A800F02AFF07A800F0C5FB02E07F4800F0C1FB0DF11A022321182000F021F948B9E1
:400100009DF81A207A4907A800F016FF07A800F0B1FB02E0774800F0ADFB9DF81A30982B14D098228DF81A202321182000F058F948B99DF81A20704907A800F0FDFE07A867
:4001400000F098FB02E06D4800F094FB0DF119022421182000F0F4F848B99DF81920684907A800F0E9FE07A800F084FB02E0654800F080FB9DF81930402B14D040228DF842
:4001800019202421182000F02BF948B99DF819205D4907A800F0D0FE07A800F06BFB02E05A4800F067FB06AA2E21182000F0C8F848B99DF81820564907A800F0BDFE07A85B
:4001C00000F058FB02E0534800F054FB9DF81830602B14D060228DF818202E21182000F0FFF848B99DF818204B4907A800F0A4FE07A800F03FFB02E0484800F03BFB0DF1F5
:4002000017023421182000F09BF848B99DF81720434907A800F090FE07A800F02BFB02E0404800F027FB9DF817302A2B14D02A228DF817203421182000F0D2F848B99DF8D4
:400240001720394907A800F077FE07A800F012FB02E0364800F00EFB0DF10F022F21182000F06EF80028F7D19DF80F3013F0400F2DD004AB06222821182000F07FF8F8B93C
:400280009DF810309DF8112043EA02229DF812309DF8131043EA01239DF814109DF8150041EA002141F30B11009143F30B1342F30B121F4907A800F03FFE07A800F0DAFA85
:4002C00020228DF818202E21182000F089F860228DF818202E21182000F082F8BCE700BF84170000A4170000E0170000181800005418000074180000B0180000E818000038
:40030000241900004419000080190000B8190000F4190000141A0000541A00008C1A0000CC1A0000F41A00003C1B00007C1B0000C41B000008B500F0F5FA002008BD00BF69
:40034000F8B506460D461746002100F067FC044668B9284600F0F4FC044640B90121304600F09CFC044610B900F016FD387000F0CBFC201C18BF0120F8BD00BF2DE9F041E0
:4003800080460C4616461F46002100F047FC0546F0B944F0800000F0D3FC0546C0B90121404600F07BFC054650B111E0C4EB0608012000F0F1FC07F80800013CE4B200E024
:4003C0003446012CF2D8013E002000F0E5FCB85500F09AFC281C18BF0120BDE8F08100BF70B50D461646002100F018FC044640B9284600F0A5FC044618B9304600F0A0FC60
:40040000044600F081FC201C18BF012070BD00BFFEE700BFF0B40022174611E050F82760F3B226F0FF0608E001EB420511F812406D78A5550132013BDBB2002BF4D1013725
:400440001D2FEBD9F0BC70470A4B1B78DBB203F00701094A11701B09013213700822074B1A708023064A1370583213704422054B1A707047CF0100496E5800403D5100407E
:40048000005B00407658004008B50A46002100F04AFD08BD08B500F03BFD08BD38B50024384B1C80502202331A700B2202331A801823354A13704FF49C71023211800232DC
:4004C000137040F2AF41023211800232137045F6BF51023211800232137004222B492C48FFF7D8FF02222B4B1A7008224FF040231A70032103F500731970274B1B78DBB215
:4005000026490B70264B1A8041F25122023B1A8019250CE0234B1B7803F0010343EA440404F003044FF4F07000F0B6FC013D0DB1032CEFD115B90320FFF76AFF1A4B4FF48F
:4005400080721A8007221A70002218490A704820023108701A700222033B1A7004220A331A70134A137843F01F031370013A137843F001031370013A137843F0800313708A
:4005800038BD00BF8040004086400040A8070048004100400043004008010049A146004022420040254200400440004006400040A243004038B572B6394A137843F0040336
:4005C000137000240BE0374863001A19510001440A46098AD068FFF757FF0134E4B20A2CF1D900240CE02F48A20011194B000344B3F85820596D186DFFF74CFF0134E4B22D
:40060000022CF0D928494FF09040FFF703FF0A25264B1D70264A137843F0020313701032137843F002031370224C237843F040032370A2F58632513A137843F010031370A0
:4006400008221D491D48FFF725FF2A461C491D48FFF720FF08221C491C48FFF71BFF2A461B491C48FFF716FF08221B491B48FFF711FF1B4A137843F008031370194D612344
:400680002B70FFF70BFF81232B700122164B1A70FFF7DAFE0E2221461448FFF7FBFE38BDE8460040E41B0000780000488358004003500140A0430040780700480251004054
:4006C00080070048C05100408C070048125100409407004820510040A007004832510040224300400048004004000840B043004008B500F0E1FB03680C2B00D1FEE7FEE7A4
:4007000008B5094B1A681044084BC31A802B02DC054B186005E000F0CFFB0C2303604FF0FF32104608BD00BFCC80FF1F8881FF1F08B5104E104D16E029686B68AC6800223D
:4007400004E051F8040B43F8040B0432A242F8D1E868002203E0002143F8041B04328242F9D11035013E002EE6D100F0ABFBFFF789FCFEE701000000AC1C000008B5104A3D
:40078000104B1A60104A136843F40073136000230AE0032B03D80D4A52F8231000E00C490C4A42F8231001332F2BF2D90A4B1A780A4B1A70074A0A4B1A60FFF7FBFE08BD9D
:4007C0000004FA050CED00E014ED00E000000000F10600000080FF1FBC760040C080FF1F08ED00E07222074B1A702022043B1A7006225B3B1A70472210331A700022523362
:400800001A7070478865004010B500F04DFB04460A4A137843F020031370043A137843F0100313700732137843F01003137000F0DFFA204600F03CFB10BD00BF986500400D
:4008400008B5054B1B7823B9FFF7CCFF0122024B1A70FFF7D9FF08BD6481FF1F034B1B7813F0040FFAD1024B187070476B6500404865004038B5074B1B782BB938BDFFF7BF
:40088000EDFF0134A4B201E005460024285D0028F5D138BD6481FF1F10B50222114B1A7081220E3B1A70082202331A70042211331A70002401331C704FF400420A4B1A60AC
:4008C00007210F2000F0CEFA08490F2000F0B6FA1022074B1A70074B1C70074B1C70074B1C7010BDD649004080E100E04D0900007081FF1F8181FF1F7481FF1F7581FF1F08
:4009000008B500F0D1FA064A137843F0040313701032137843F00403137000F0C9FA08BDA543004008B5074B1B7823B9FFF7B4FF0122044B1A70FFF7E3FF4FF40042024BB0
:400940001A6008BD6681FF1F00E100E038B5A54B1C78A54B1B7813F0400F00F03A81E4B214F0010F00F01D819F4B1B78453B052B00F21481DFE813F006008200120112011D
:400980000600DF0004F0DF0504F00A04082C42D1954B1B78DBB2452B35D1944B1B7813F0FF0F10D0924B1B681B78DBB2914A137004228C4B1A7001228F4B1A7046228A4B2F
:4009C0001A702C46EDE08D4B1B7813F0020F0DD08B4A137843F00A0313706022824B1A704FF40042874B1A602C46DAE0864A137843F0100313701022844B1A700422023BC7
:400A00001A702C46CDE00022764B1A704A22764B1A702C46C5E00A2C2BD1794A137843F0A0031370754B1B7813F0020F14D06E4B1B7813F0080F01D0092300E00A23704A84
:400A400011780B4313706022674B1A704FF400426C4B1A602C46A4E06B4A137843F0100313701022694B1A700422023B1A702C4697E0002000F0CAF92C4692E014F0020F97
:400A800036D15D4B1A78D2B2584B1B78DBB29A4210D2594A1378DBB255490968CB5CDBB254490B7004214F4B197013780133DBB2137076E0514B1B7813F0020F0CD0504A34
:400AC000137843F00A0313706022474B1A704FF400424C4B1A6064E04B4A137843F0100313701022494B1A700422023B1A7058E0424B1B7813F0020F0CD0414A137843F079
:400B00009A0313706022384B1A704FF400423D4B1A6046E03C4A137843F01003137010223A4B1A700422023B1A70354A137843F09003137035E0364A1378DBB23549086863
:400B40002C490978C9B2C15413780133DBB213701278D2B2304B1B78DBB29A4203D21022204B1A701DE0254B1B7813F0020F0CD0234A137843F00903137060221A4B1A7084
:400B80004FF400421F4B1A600BE01F4A137843F0100313700022134B1A7002E0002000F035F914F0200F1CD00F4B1B7813F0080F01D0012300E00223114A11780B43137025
:400BC000114A137803F0EF0313701022064B1A7038BD054B1B7813F0100F02D11022024B1A7038BDD74900407081FF1F7681FF1F7881FF1FD84900407581FF1F8081FF1FA0
:400C00008181FF1F80E100E0D6490040D94900407481FF1F7C81FF1F8281FF1F1A4B1B78DBB2102B29D1194B1B7813F0080F26D14FF40042164B1A604000C0B229B140F065
:400C400001004922104B1A7002E045220E4B1A70104B1870012201331A700F4B1B7813F0010FFAD00C4B1B7803F00A030A2B08D11022054B1A700320704702207047012091
:400C800070470020704700BF7081FF1FD949004080E100E0D8490040D7490040164B1B7813F0040F23D04000C0B229B140F001004922124B1A7002E04522104B1A70104BDF
:400CC0001870122201331A700422023B1A700D4B1B7813F0010FFAD00A4B1B7803F00A030A2B06D11022054B1A7003207047022070470020704700BFD94900407081FF1F0B
:400D0000D8490040D74900400A4B1B7813F0040F0ED01023074A13700421023A1170064A1370064B1B7813F0210FFAD00020704702207047D94900407081FF1FD7490040F8
:400D4000114B1B7813F0040F1BD0104B18700422013B1A7046220E4B1A700E4B1B7813F0010FFAD00B4B1B7813F0020F04D16022074B1A70002070476022054B1A7003201A
:400D800070470220704700BFD9490040D84900407081FF1FD7490040114B1B7813F0040F1BD0104B1B78DBB2492B05D100220E4B1A704A220B4B1A700B4B1B7813F0010FB0
:400DC000FAD00A4B1B78DBB218B11021064A117004E06021034A117000E0002318467047D94900407081FF1FD7490040D8490040054A137843F0040313701032137843F0D5
:400E000004031370704700BFA243004001BE704710B5044605E0084B186800F03DF8A4F50044B4F5004FF6D8034B586800FB04F000F032F810BD00BFD080FF1F70B5044608
:400E40000E46074B1D681F2802D90020FFF7DEFF04F01F04103455F8240045F8246070BD08ED00E038B504460D46072902D90020FFF7CCFF1F2C02D90020FFF7C7FF04F037
:400E80001F0000F1604000F564406D01EDB2057038BD00BF000000000230800803D000BF01380046FCD17047EFF3108072B6704780F31088704700BF014B1868704700BF50
:400EC0004081FF1F0E4B70B51E460E4C0025E41AA410A54204D056F8253098470135F8E700F0D2FE084B094C1E46E41AA4100025A54204D056F8253098470135F8E770BD8C
:400F0000941C0000941C0000941C00009C1C000010B5431E0A44914204D011F8014B03F8014FF8E710BD03460244934202D003F8011BFAE7704700000EB400B54FF4027170
:400F40009CB0ADF814106FF00041049107914FF6FF711DAB02900690084853F8042BADF81610006802A9019300F064F8029B00221A701CB05DF804EB03B070474081FF1FC0
:400F80002DE9F0478E6882469E420C46914698463ED88A8912F4906F3AD02568096902236F1A656905EB450595FBF3F57B1C43449D4238BF1D4653050FD5294600F040FBAD
:400FC000064698B13A462169FFF7A2FFA38923F4906343F08003A38113E02A4600F08EFB064670B92169504600F0DEFA0C23CAF80030A3894FF0FF3043F04003A381BDE878
:40100000F08726613E44266046466561ED1BA560464528BF464649463246206800F0A8FAA36800209B1BA36023681E442660BDE8F08700002DE9F04F9DB003938B898046A7
:401040001C060D4616460DD50B695BB9402100F0F7FA2860286118B90C23C8F80030CDE040236B610023099320238DF82930DFF89CB130238DF82A3037463C4614F8013B99
:401080001BB9B7EB060910D003E0252BF9D02746F3E74B46324629464046FFF771FF013000F0A780099B4B4409933B78002B00F0A08000234FF0FF3204930793059206932B
:4010C0008DF853301A930126052221784E4800F041FA671C049B38B14B4A3C46801A06FA00F018430490EFE7D90644BF20228DF853201A0744BF2B228DF8532022782A2AAF
:4011000003D0079A00210A200BE0039A111D12680391002A10DA524243F00200079204900BE027463B780134303B092B03D800FB02320121F5E701B107923B782E2B1ED1F5
:401140007B782A2B0AD1039B02371A1D1B680392002BB8BF4FF0FF33059310E0002319460593781C0A2407463A780130303A092A03D804FB01210123F5E703B10591032277
:401180003978224800F0E6F940B14023CBEB000003FA00F0049B013718430490397806221B487E1C8DF8281000F0D4F988B1194B33B9039B073323F007030833039314E0F5
:4011C00003AB00932A46144B04A94046AFF3008007E003AB00932A460F4B04A9404600F093F8B0F1FF3F824603D0099B5344099342E7AB895B0601D4099801E04FF0FF3016
:401200001DB0BDE8F08F00BF541C00005A1C00005E1C000000000000810F00002DE9F04791461F460A698B6806469342B8BF1346C9F8003091F843200C46DDF8208012B1C7
:401240000133C9F800302368990642BFD9F800300233C9F80030256815F0060510D104F1190A07E00123524639463046C04701301AD00135E368D9F800209B1A9D42F1DBD5
:4012800094F843302268003318BF012392060FD5E118302081F843005A1C94F845102244023382F8431003E04FF0FF30BDE8F08704F1430239463046C0470130F4D0226815
:4012C000D9F80050E36802F00602042A08BF5D1B2269A3680CBF25EAE57500259342C4BF9B1AED184FF000091A344D4509D00123224639463046C0470130D5D009F10109B7
:40130000F3E70020BDE8F0872DE9F04317460A7E85B06E2A984606460C460C9B01F1430E00F0AE8011D8632A22D009D8002A00F0BB80582A40F0CA8081F84520834955E09F
:40134000642A1ED0692A1CD0C0E0732A00F0B08009D86F2A2ED0702A40F0B8800A6842F020020A603EE0752A24D0782A3AD0ADE01A6801F14205111D1960136884F84230B6
:40138000A8E021681A6811F0800F02D0111D196008E011F0400F02F10401196002D0B2F9003000E01368002B3CDA2D225B4284F8432037E021681A6811F0800F02D0111D22
:4013C000196007E011F0400F02F10401196001D0138800E01368227E5C496F2A14BF0A2208221BE078225A4984F845202268186812F0800F00F104051D6003D1550601D5CE
:40140000038800E00368D00744BF42F0200222601BB9226822F0200222601022002084F8430001E049490A226568002DA56008DB206820F0040020602BB9002D7DD175464A
:401440000CE0002B79D07546B3FBF2F002FB1033CB5C05F8013D03460028F5D1082A0BD12368DA0708D5236962689A42DEBF302305F8013C05F1FF35C5EB0E0323612EE0B8
:4014800008681A6810F0800F496903D0101D1860136808E010F0400F02F104001860136801D0198000E0196000232361754616E01A68111D1960156800216268284600F0DB
:4014C00049F808B1401B6060636804E004F1420584F8422001232361002384F84330CDF800803B4603AA21463046FFF797FE013002D14FF0FF3026E023692A463946304610
:40150000C0470130F5D023689B0710D5002504F1190907E001234A4639463046C0470130E7D00135E368039A9B1A9D42F2DBE068039B9842B8BF184605E00B7804F1420529
:4015400084F842308AE705B0BDE8F083651C0000761C000010B5C9B202449042034605D01C7801308C42F8D1184610BD002010BD884210B501EB020301D8421E0BE09842C4
:40158000FBD28118D21AD34204D013F8014D01F8014DF8E710BD994204D011F8014B02F8014FF8E710BD000038B50546002944D051F8043C0C1F002BB8BFE41800F0D4F827
:4015C0001E4A1368114613B96360146030E0A3420DD92268A018834201BF18685B681218226063600C6023E0A24203D813465A68002AF9D118681918A1420BD121680144DF
:4016000058188242196013D110685268014419605A600DE002D90C232B6009E021686018824201BF106852680918216062605C602846BDE8384000F098B838BD6C81FF1F62
:4016400070B5CD1C25F0030508350C2D38BF0C25002D064601DBA94202D90C23336046E000F082F8234B1C681A462146A1B10B685B1B0ED40B2B03D90B60CC18CD501EE0E2
:401680008C420BBF63684B681360636018BF0C4615E00C464968E9E7174C23681BB9304600F052F820602946304600F04DF8431C18D0C41C24F00304A0420DD125603046E4
:4016C00000F053F804F10B00231D20F00700C31A0ED05A42E25070BD211A304600F034F80130EBD10C233360304600F03EF8002070BD00BF6C81FF1F6881FF1FF8B5074672
:4017000015460E4621B91146BDE8F840FFF798BF1AB9FFF749FF2846F8BD00F027F885420ED929463846FFF78BFF044650B131462A46FFF7EDFB31463846FFF735FF01E031
:401740003046F8BD2046F8BD38B5064C0023054608462360FEF7D4FF431C02D1236803B12B6038BD8481FF1F7047704751F8040C0028BEBF091851F8043CC01804387047E8
:4017800000000000434F4E54524F4C20524547495354455220313A203078253032580D0A000000004572726F72206F6363757272656420647572696E672049324320636F40
:4017C0006D6D20746F207265616420636F6E74726F6C20726567697374657220310D0A00434F4E54524F4C2052454749535445522031207375636365737366756C6C7920E6
:401800007772697474656E2061733A203078253032580D0A000000004572726F72206F6363757272656420647572696E672049324320636F6D6D20746F2073657420636F7A
:401840006E74726F6C20726567697374657220310D0A0000434F4E54524F4C20524547495354455220343A203078253032580D0A000000004572726F72206F6363757272A2
:40188000656420647572696E672049324320636F6D6D20746F207265616420636F6E74726F6C20726567697374657220340D0A00434F4E54524F4C20524547495354455296
:4018C0002034207375636365737366756C6C79207772697474656E2061733A203078253032580D0A000000004572726F72206F6363757272656420647572696E6720493271
:401900004320636F6D6D20746F2073657420636F6E74726F6C20726567697374657220340D0A0000434F4E54524F4C20524547495354455220353A203078253032580D0A25
:40194000000000004572726F72206F6363757272656420647572696E672049324320636F6D6D20746F207265616420636F6E74726F6C20726567697374657220350D0A00C2
:40198000434F4E54524F4C2052454749535445522035207375636365737366756C6C79207772697474656E2061733A203078253032580D0A000000004572726F72206F63D2
:4019C00063757272656420647572696E672049324320636F6D6D20746F2073657420636F6E74726F6C20726567697374657220350D0A00004649464F20434F4E54524F4C29
:401A00002052454749535445523A203078253032580D0A004572726F72206F6363757272656420647572696E672049324320636F6D6D20746F2072656164204649464F2032
:401A4000636F6E74726F6C207265676973746572200D0A004649464F20434F4E54524F4C205245474953544552207375636365737366756C6C79207772697474656E2061CC
:401A8000733A203078253032580D0A004572726F72206F6363757272656420647572696E672049324320636F6D6D20746F20736574204649464F20636F6E74726F6C207281
:401AC00065676973746572200D0A0000494E543220434F4E46494755524154494F4E2052454749535445523A203078253032580D0A0000004572726F72206F636375727272
:401B0000656420647572696E672049324320636F6D6D20746F207265616420494E543220434F4E46494755524154494F4E205245474953544552200D0A000000494E5432BC
:401B400020434F4E46494755524154494F4E205245474953544552207375636365737366756C6C79207772697474656E2061733A203078253032580D0A0000004572726FF2
:401B800072206F6363757272656420647572696E672049324320636F6D6D20746F2073657420494E543220434F4E46494755524154494F4E205245474953544552200D0A89
:401BC00000000000416363656C65726174696F6E20646174613A2025642025642025640D0A000000035B00402443004040000000C84900401900004F00400C0040510040BA
:401C00003000F05100401000000001400006800601408009001401408006001B0140000100400140000A004C0140000200500140200000006052004070060048060000068D
:401C40000140780600488000801A0140F806004880004300232D302B2000686C4C00656667454647003031323334353637383941424344454600303132333435363738395B
:401C80006162636465660000F8B500BFF8BC08BC9E4670474D0000007D070000F8B500BFF8BC08BC9E46704729000000C01C0000C880FF1F800000004000000000000000D5
:401CC000000000008881FF1F0000E02EC05D00001800000000366E010000000000000000000000000000000000000000000000000000000000000000521C00000000000067
:401D00000000000000000000000000000000000000000000000000000000000000000000000000000000000000000000000000000000000000000000E080FF1F0000000025
:401D40000000000000000000000000000000000000000000000000000000000000000000000000000000000000000000000000000000000000000000000000000000000063
:401D80000000000000000000000000000000000000000000000000000000000000000000000000000000000000000000000000000000000000000000000000000000000023
:401DC00000000000000000000000000000000000000000000000000000000000000000000000000000000000000000000000000000000000000000000000000000000000E3
:401E000000000000000000000000000000000000000000000000000000000000000000000000000000000000000000000000000000000000000000000000000000000000A2
:020000040003F7
:0200000480007A
:40000000024F0040045200400164004005650040020501400806014035070140010B0140491401404615014058160140481701405A18014040190140241A0140571B0140E1
:4000400003400140064101400642014006430140024401400345014005460140024701400D480140194901400A4C0140134D0140055001400251014001400A3600200140BE
:4000800018A01980860F8438850F870D88728B0F9920B120BA02D409D604D804DB04DC02DD10DF0104200504060107400C480E8A171518401C211E482420250B26402740B0
:4000C0002C802E082F08346037013D023E944420450A46084DA94E01540856A059085A425B206001620267026E166F1574807601841085808E049920C0F0C2F0C470CAE035
:40010000CCB0CEF0D0E0D230D60FD819E240EA20020204080C011004130816011B061D0121032201240127082B042D032E023002310232013304340435083608370138080B
:400140003E513F145418580459045B045C325D205F0188078D019004A407AA01AD01B002B204B601B701C020C103C5D5C620C714C83FC9FFCAFFCBFFCDA0CF04D018D28047
:40018000D407D804D904DA04DB04DC33DD33DF01E040E2C0E440E540E6C0E8C0EAC0ECC0EEC000420220060409080B400E80108213081504171019081BA11EA22140220825
:4001C0002384258029082AA12F0231A1331039C03E80452046204A0C4D044F0156A557025A015D405E285F01630676408002838087088BC08D018E018F20904092019E403B
:40020000A081A128A220AC01AE01B620B701C04DC21CC46DCA1FCC0DCE10D060D6F1D80CE001E21CE405E6A8EA0CEC10EE08000801130213030404010504060607390811A8
:40024000090E0A260C6C0E800F20101012681505173A18EC1CEC228024E8260428172A402CEC307832073480350F373039203A0A3E1054405604580459045B045C115D104D
:400280005F01800388018F0C930195049B089D04A803AF02B001B104B308B402B502B701BF04C010C102C5D0C620C701C81EC9FFCAFFCBFFCDA0CF04D018D280D405D8041B
:4002C000D904DA04DB04DC33DD33DF01E040E2C0E440E540E6C0E8C0EAC0ECC0EEC0012002800420050407490E46120815011689170419201A801D041E401F18216022047A
:40030000234025502A40302031023288370839803DA23E0841404320490150205288532059015A88650266A067207102810884808542874090609101920497029A299B4524
:400340009D04A101A201A708A840AA02B102B248B410B680B720C0FAC2D0C4F2CA08CC4FCEF8D00CD60BD8F0E209EA08EC040003011C03E1041C0508062309180A230DC05A
:4003800010021110143315E7160C1718183F1BE31C1F1E201F0420082144240C253C27C2280429802C012DFF320F331F341035C0362C37383A883B083E104026410146C0B2
:4003C00047EB483849FF4AFF4BFF4EF04F44500C56025712580459045A045B045C225D225F0166C06A406B02850987069103930C99029B0D9D059F0AB50FBB20C002C54030
:40040000C9FFCA07CBFFCC40CD20CEF0CF05D008D904DA04DC10DD02DF01E040E1A8E240E3200518068007280C040E210F48161A17021E2922102520268027202D482E02C1
:400440002F083081321034043550370239043EA941104601471049024C0450045408550157105E086C206D106E106F01763877027C017D028320860191449801A080A30462
:40048000A940AB04B001B104B480C070C2F0C4F0CAF0CCFDCEF2D034D220D640E820EA08EC60001002400410052006AC07430A030C0C0E710F0C14DC158C1622171319D1BC
:4004C0001B061C091ED021D1230E262028142F0830E03130330F341F35C039223A023B083F10580459045C225F0101220241031004480511061009080A020C200D800F302B
:400500001008121015101602170419211D501E401F082040211822092680276829012A412C202F08311032083314372138483E12444447484D40550457025C095E405F103A
:4005400080088302840485808680874889208A828B208D0490099150921095209740984499029B019D409E839F18A028A310A708AC40AD20AE80B501B610C0FFC2E5C4E60E
:40058000CA69CCA6CEAAD0F0D210D6F0E041E220E409E6C0EA54EC1033803720CC30602066809F20A780D680D8403C209C209E809F20A780CE208C209C209E809F20A41003
:4005C000A7807F80DE010008A780C0084508A780B004D001EA04A508A78025106408868887809E80A780AB20AC10C820D880E240E650EA90122017045B02668876207B0205
:400600008220830484088AA08F029A089C08A302AB02B510C430D6C0D880DC80DE20E080E480E610EA20131815017B107D209710A508A780AF10C40EDE031040750281103F
:4006400083108780884089018D029101A510A790AB08B508C408DE04E002E201E601EC0800060A06100E1A0E1C06000F03C00000828000004300000007333844041800025A
:400680000A02101884820000561809026000000001C10038841A0000041A8000809C040384180000000000000813800F7F0002E020000088000045003204500006DEFC0BC9
:4006C0001FFFFFFF2200F008040000000000022004040404111100010000C00040011011C00100114001400100000000000000000000000000000000430204110000450056
:4007000043270C000000080000200000030044003001000E20001000000000000A274400300400111000A000401830070F208000008020000000014123050400010000CEE0
:4007400030FFFFFF62A0F0410C00000001000000040404042222000100000000000040020010301000101012000000000000000000000000000000000060600060000000D3
:40078000830050808300830000000000000B0B000000000010000110100000000000000000E0E000E0000800250018010000000000000000000000000000000000000000B3
:4007C00000000000000000000000000000000000000000000000000000000000000000000000000000000000000000000000000000000000000000000000000000000000F9
:4008000000000000000000000000000000000000000000000000000000000000000000000000000000000000000000000000000000000000000000000000000000000000B8
:400840000000000000000000000000000000000000000000000000000000000000000000000000000000000000000000000000000000000000000000000000000000000078
:400880000000000000000000000000000000000000000000000000000000000000000000000000000000000000000000000000000000000000000000000000000000000038
:0200000490006A
:0400000000004005B7
:0200000490105A
:04000000BC90ACAF55
:0200000490303A
:020000002C349E
:0200000490402A
:4000000000000000000000000000000000000000000000000000000000000000000000000000000000000000000000000000000000000000000000000000000000000000C0
:400040000000000000000000000000000000000000000000000000000000000000000000000000000000000000000000000000000000000000000000000000000000000080
:400080000000000000000000000000000000000000000000000000000000000000000000000000000000000000000000000000000000000000000000000000000000000040
:4000C0000000000000000000000000000000000000000000000000000000000000000000000000000000000000000000000000000000000000000000000000000000000000
:0200000490501A
:0C00000000012E16106900012E223C9D0C
:00000001FF