:400000000080002011000000811500008115000008B5044B1A6803F53F5302331A6001F0CFFA00BFFA46004010B5054C237833B9044B13B10448AFF300800123237010BD81
:400040005081FF1F0000000058370000084B10B51BB108490848AFF300800848036803B910BD074B002BFBD0BDE81040184700BF000000005481FF1F58370000C880FF1FD4
:40008000000000002DE9F04FE9B062B600F050FC01F01EFB00F038FD02F09EFCA74802F0C3FCA74802F0D4FE02F018FC02F0A8FE01F0A0FF02F01EFB0023A24A1360A24A49
:4000C0001360A24A1380052002F006FE0DF207122021182000F032FC48B99DF807219C495BA802F015FF5BA801F00CFB02E0994801F008FB9DF807314F2B14D04F228DF8C5
:4001000007212021182000F069FC48B99DF8072191495BA802F0FCFE5BA801F0F3FA02E08E4801F0EFFA0DF583722221182000F005FC48B99DF8062189495BA802F0E8FE02
:400140005BA801F0DFFA02E0864801F0DBFA9DF80631022B14D002228DF806212221182000F03CFC48B99DF806217F495BA802F0CFFE5BA801F0C6FA02E07C4801F0C2FA9E
:400180000DF205122421182000F0D8FB48B99DF8052177495BA802F0BBFE5BA801F0B2FA02E0744801F0AEFA9DF80531422B14D042228DF805212421182000F00FFC48B944
:4001C0009DF805216C495BA802F0A2FE5BA801F099FA02E0694801F095FA41AA2521182000F0ACFB48B99DF8042165495BA802F08FFE5BA801F086FA02E0624801F082FA08
:400200009DF80431202B14D020228DF804212521182000F0E3FB48B99DF804215A495BA802F076FE5BA801F06DFA02E0574801F069FA0DF203122E21182000F07FFB48B990
:400240009DF8032152495BA802F062FE5BA801F059FA02E04F4801F055FA9DF80331402B14D040228DF803212E21182000F0B6FB48B99DF8032148495BA802F049FE5BA800
:4002800001F040FA02E0454801F03CFA0DF581723421182000F052FB48B99DF8022140495BA802F035FE5BA801F02CFA02E03D4801F028FA9DF802312A2B14D02A228DF8EE
:4002C00002213421182000F089FB48B99DF8022135495BA802F01CFE5BA801F013FA02E0324801F00FFA0DF201123721182000F025FB48B99DF801212D495BA802F008FE62
:400300005BA801F0FFF902E02A4801F0FBF99DF80131032B55D003228DF801213721182000F05CFB002849D19DF8012122495BA802F0EEFD5BA801F0E5F942E00D0A00008C
:400340002D0A00009C81FF1FA481FF1F9881FF1F5C3700007C370000B8370000F03700002C3800004C38000088380000C0380000FC3800001C3900005839000090390000B2
:40038000CC390000EC390000283A0000603A00009C3A0000BC3A0000FC3A0000343B0000743B00009C3B0000E43B0000243C00006C3C0000903C0000D43C0000C14801F023
:4003C000A1F900200C900D900E9000F035FEC0F30710BD4B1870A0B91022BC4B1A704FF4FA62BB4B1A801E22BA4B1A7080222321182000F0F3FA5E223621182000F0EEFAE3
:4004000043E0012814D12022B04B1A704FF47A62AF4B1A801E22AF4B1A7090222321182000F0DCFA2F223621182000F0D7FA2CE0022814D14022A54B1A704FF4FA52A44B43
:400440001A802822A34B1A70A0222321182000F0C5FA18223621104600F0C0FA15E0032813D1C022994B1A704FF47A52984B1A803222984B1A70B0222321182000F0AEFA1B
:4004800008223621182000F0A9FA8F4A13781B0143F0010313704FF001090023059306939B4698468C4B1B68012B02D100F0CAFA8146B9F1010F00F08881B9F1020F00F028
:4004C000AE81B9F1000FEDD17F4B197801F0F00141EA0901C9B21970002000F0C3FD00F01DFE002000F0A8FD049002F015FAFF2002F026FA02F070FA0DF13F022F21182067
:4005000000F01CFA0028CDD19DF83F3013F0040F40F04081C6E704EB440310AA02EB430306222821182000F027FA002840F02F8110AB6200111903EB410713F811107D78B4
:4005400041EA052141F30721DFF880E19EF8005005FB01F52DB285EAE570A0EBE570B978FE7841EA062141F307219EF8006006FB01F636B286EAE671A1EBE6713F79224444
:4005800003EB42035B7947EA032343F307239EF8007007FB03F73FB287EAE772A2EBE77212B209B200B200F0BBFA0DF13E023521182000F0C3F9814630B99DF83E3013F0D6
:4005C000420F01D04FF0010BBBF1000F36D009AB23F8185008F101085FFA88F8B8F1040F36D93E4B1B88ADF82E300C2209A9022000F066FD00F092FD0C220CA9022000F0F8
:400600004DFDBDF93020BDF93230BDF93410BDF93600BDF938E0BDF93AC0CDF80CC0CDF808E0019000912E495BA802F071FC5BA801F068F84FF0000BD84609E0B9F1000F57
:4006400006D19DF83E3013F0480F01D04FF0010ABAF1000F46D009AB23F8186008F101085FFA88F8B8F1040F46D91C4B1B88ADF82E300C2209A9022000F022FD00F04EFD05
:400680000C220CA9022000F009FDBDF93020BDF93230BDF93410BDF93600BDF938E0BDF93AC0CDF80CC0CDF808E0019000910C495BA802F02DFC5BA801F024F84FF0000A91
:4006C000D04619E0103D0000A081FF1FA881FF1F9681FF1F9481FF1F9C81FF1F9881FF1F503D0000B9F1000F06D19DF83E3013F0600F01D001230593059B002B35D009AB9B
:4007000023F8187008F101085FFA88F8B8F1040F2BD97F4B1B88ADF82E300C2209A9022000F0CEFC00F0FAFC0C220CA9022000F0B5FCBDF93020BDF93230BDF93410BDF9F5
:400740003600BDF938E0BDF93AC0CDF80CC0CDF808E0019000916F495BA802F0D9FB5BA800F0D0FF0023059398466B4B1B780293049B0193009733462A4668495BA802F052
:40078000C7FB5BA800F0BEFF052002F0A5FA0134E4B204E00024DDF818A0CDF81C901F2C7FF6B9AECDF818A0DDF81C9000228DF803212E21182000F011F940228DF80321C4
:4007C0002E21182000F00AF96CE6534C217801F0F00141EA0901C9B22170002000F042FC00F09CFC002000F027FC237802464C4942A802F08DFB42A800F084FF02F08CF81A
:40080000002002F09DF802F0E7F8FF2001F03EFD002001F041FDFF2001F0C2FC42E602F07BF87F2002F08CF802F0D6F8FF2001F02DFD002001F030FDFF2001F0B1FC012020
:4008400000F0FAFB074602F0FDF804460146012000F008FC00F062FC012C35D1002000F0EBFB00F47F604FFA89F545EA0006F6B200F016FBDFF8A0A09AF8001045EA0111D0
:40088000C9B28AF80010002000F0ECFB00F046FC9AF800309E4209D0A74207D04E22214942A802F021FB42A800F02CFF002000F0C3FB194B1B780246194942A802F028FB82
:4008C00042A800F01FFFEDE5002000F0B5FB00F47F6040EA0906F6B25BAC134D0FCD0FC40FCD0FC40FCD0FC495E80F0007C424F8023B1B0C23705BA800F004FF32460B491A
:4009000042A802F005FB42A800F0FCFECAE500BF9881FF1F503D0000A081FF1F8C3D0000CC3D0000F83D0000483E0000883E000008B500F03FFF002008BD00BFF8B50646BB
:400940000D461746002101F0B1F8044668B9284601F03EF9044640B90121304601F0E6F8044610B901F060F9387001F015F9201C18BF0120F8BD00BF2DE9F04180460C4656
:4009800016461F46002101F091F80546F0B944F0800001F01DF90546C0B90121404601F0C5F8054650B111E0C4EB0608012001F03BF907F80800013CE4B200E03446012C71
:4009C000F2D8013E002001F02FF9B85501F0E4F8281C18BF0120BDE8F08100BF70B50D461646002101F062F8044640B9284601F0EFF8044618B9304601F0EAF8044601F062
:400A0000CBF8201C18BF012070BD00BF08B501F021FF0122034B1A60034A13680133136008BD00BF9C81FF1FA481FF1F08B502F0ADF9034A13889BB202339BB2138008BD45
:400A40009881FF1F08B501F0F7FE142001F014FF01F044FF0022284B1A6003E001F012FF264B186001F048FF0028F7D0234B1B68112B0ADC224A1268012A06D80022214B9C
:400A80001A6002221E4B1A6032E0112B09DC1C4B1B68022B05D100231A4A1360184A136026E0184B1B68022B0FD101F0EBFE144B5B68984209DD124B1B68012B05D100230C
:400AC000104A13600E4A136012E00E4B1B68022B0ED101F0D7FE0A4B5B68984208DD084B1B682BB90022074B1A600122044B1A60034B186808BD00BF9C81FF1F6C81FF1FBB
:400B0000CC80FF1FA481FF1F08B501F013FC01F093FB08BD08B501F0A5FB01F02DFB08BD70B504460D461646BB4B1B881BB2BB4A127802F57A729B1A00D503339B10B84A68
:400B40001380B64B1B78C3F57A739C4209DBB34B1B7803F57A739C4203DC0022B14B1A701EE0AE4B1B78C3F57A739D4209DBAB4B1B7803F57A739D4203DC0122A94B1A704D
:400B80000EE0A64B1B78C3F57A739E4208DBA34B1B7803F57A739E4202DC0222A14B1A70A04B1B78012B7ED01BB1022B00F0F58070BDFFF7AFFFFF2001F062FB002001F0F8
:400BC0006BFBFF2001F0E6FA002001F0E9FAFFF79BFF924B1B78C3F57A739C4210DB8F4B1B7803F57A739C420ADCFFF793FFFF2001F046FBFF2001F049FBFFF785FF70BD53
:400C0000864B1B7803F57A739C4213DD834B1B7803F57A73824A128813449C420ADCFFF779FF412001F02CFB202001F02FFBFFF76BFF70BD794B1B7803F57A73784A12886F
:400C400013449C4212DD754B1B7803F57A7303EB42039C420ADCFFF75DFF202001F010FB102001F013FBFFF74FFF70BD6B4B1B7803F57A7303EB42039C4240F30B81674B43
:400C80001B7803F57A7303EB8202944200F30281FFF740FF102001F0F3FA082001F0F6FAFFF732FF70BDFFF735FFFF2001F0E8FA002001F0EBFAFF2001F06CFA002001F0C5
:400CC0006FFAFFF721FF554B1B78C3F57A739D4210DB524B1B7803F57A739D420ADCFFF719FFFF2001F0CCFAFF2001F0D5FAFFF70BFF70BD494B1B7803F57A739D4213DD2E
:400D0000464B1B7803F57A73454A128813449D420ADCFFF7FFFE412001F0B2FA202001F0BBFAFFF7F1FE70BD3C4B1B7803F57A733B4A128813449D4212DD384B1B7803F52B
:400D40007A7303EB42039D420ADCFFF7E3FE202001F096FA102001F09FFAFFF7D5FE70BD2E4B1B7803F57A7303EB42039D4240F391802A4B1B7803F57A7303EB82029542C9
:400D800000F38880FFF7C6FE102001F079FA082001F082FAFFF7B8FE70BDFFF7BBFEFF2001F06EFA002001F071FA002001F074FAFFF7AAFE194B1B78C3F57A739E4210DB55
:400DC000164B1B7803F57A739E420ADCFFF7A2FEFF2001F0DFF9FF2001F0E2F9FFF794FE70BD0E4B1B7803F57A739E421CDD0B4B1B7803F57A730A4A128813449E4213DCAA
:400E0000FFF788FE412001F0C5F9202001F0C8F9FFF77AFE70BD00BF9681FF1F9481FF1FAC81FF1FAA81FF1F1B4B1B7803F57A731A4A128813449E4212DD174B1B7803F5EF
:400E40007A7303EB42039E420ADCFFF763FE202001F0A0F9102001F0A3F9FFF755FE70BD0D4B1B7803F57A7303EB42039E4211DD094B1B7803F57A7303EB8202964209DC6C
:400E8000FFF748FE102001F085F9082001F088F9FFF73AFE70BD00BF9481FF1FAC81FF1F10B501F0ABFC554B1860002801DA00221A60524B1B68B3F5803F03DB4FF6FF72F6
:400EC0004E4B1A604D4B186801F086FC4C4B188080B240F2E14398421ED80022494B1A704FF4FA62484B1A801022484B1A701E22474B1A708022474B1A7023211820FFF7E6
:400F00006DFD454C20705E22444B1A7036211820FFF764FD207010BDA0F2E2439BB240F2E14293421ED80122364B1A704FF47A62354B1A802022354B1A701E22344B1A702A
:400F40009022344B1A7023211820FFF747FD324C20702F22314B1A7036211820FFF73EFD207010BDA0F6C4139BB240F2E14293421ED80222234B1A704FF4FA52224B1A80F2
:400F80004022224B1A702822214B1A70A022214B1A7023211820FFF721FD1F4C207018201E4B187002463621FFF718FD207010BDA0F6A66080B240F2E24398421DD803220C
:400FC000104B1A704FF47A520F4B1A80C0220F4B1A7032220E4B1A70B0220E4B1A7023211820FFF7FBFC0C4C207008220B4B1A7036211820FFF7F2FC207010BDB481FF1FD9
:40100000B281FF1FA081FF1F9681FF1FA881FF1F9481FF1FB081FF1FB881FF1FB181FF1F08B5052000F098F808BD00BF08B5062000F07CF808BD00BF00B583B003218DF839
:401040000410030A8DF805308DF8060001230DEB010201A800F09AF89DF8030003B05DF804FB00BF30B583B004460D46FFF7DEFF02238DF80430230A8DF805308DF806404A
:401080008DF80750002302AA02F8053D04210DEB010000F07BF803B030BD00BF10B582B003248DF80440030A8DF805308DF8060013460A46214601A800F068F802B010BDA8
:4010C0002DE9F04182B000AF054688461446FFF7ADFF012001F016FEE61C04F10A0323F00703ADEB030D02238DF800302B0A8DF801308DF80250224641460DF1030001F047
:40110000F3FE002307F1080202F8013DF1B2684600F03CF80837BD46BDE8F08108B5FFF77FFF10F0010FFAD108BD00BF10B50446002001F00DF8204600F000FE00F0D6FDC8
:4011400010F0080FFAD000F063FE0446012000F0FFFF204610BD00BF10B50446002000F0F7FF204600F0EAFD002000F0E7FD00F0BDFD10F0010FFAD000F04AFE00F048FEBA
:401180000446012000F0E4FF204610BD2DE9F04383B006460C4617469846002000F0D8FF64B2002511E02146082CA8BF0821C9B206EBC50000F0A8FE00F098FD10F0010FCF
:4011C000FAD0083C64B201356DB2002CEBDC00F0ABFE00F04FFE0026009601964FFA88F820E0C146B8F1080FA8BF4FF008095FFA89F1684600F088FE00F078FD10F0010FA7
:40120000FAD0002406E004EBC60500F001FE78550134E4B24C45F6DBA8F108084FFA88F8013676B2B8F1000FDBDC012000F090FF00F07AFE00F01EFE00F03CFE03B0BDE861
:40124000F08300BFFEE700BFF0B40022174611E050F82760F3B226F0FF0608E001EB420511F812406D78A5550132013BDBB2002BF4D10137232FEBD9F0BC70470A4B1B781B
:40128000DBB203F00701094A11701B09013213700822074B1A708023064A1370583213704422054B1A707047CF0100496E5800403D510040005B00407658004008B50A46D5
:4012C000002101F01CFE08BD08B501F00DFE08BD38B50024404B1C80502202331A700B2202331A8018233D4A13703321023211800232137045F6BF5102321180023213703E
:4013000045F6E8330232138019250232157002321380334B1D7047F22F5202331A8002331D7040F2E73202331A801B2202331A7004222C492C48FFF7C7FF02222B4B1A7077
:4013400008224FF040231A70032103F500731970274B1B78DBB227490B70274B1A8041F25122023B1A800CE0244B1B7803F0010343EA440404F003044FF4F07001F078FD9B
:40138000013D0DB1032CEFD115B90320FFF75AFF1B4B4FF480721A8007221A70002219490A704820023108701A700222033B1A7004220A331A7003F297331A78FF221A70AA
:4013C000114A137843F001031370013A137843F08003137038BD00BF80400040864000409640004054090048004100400043004008010049A1460040224200402542004011
:401400000440004006400040A1430040012807D8044B53F820201844017A13780B431370704700BFAC3E0000012808D8044B53F820201844017A137823EA01031370704779
:40144000AC3E000038B572B6394A137843F00403137000240BE0374863001A19510001440A46098AD068FFF729FF0134E4B20A2CF1D900240CE02F48A20011194B000344FF
:40148000B3F85820596D186DFFF71EFF0134E4B2022CF0D928494FF09040FFF7D5FE0A24264B1C70264A137843F0020313701032137843F002031370224D2B7843F04003AF
:4014C0002B70A2F58632513A137843F01003137008221D491D48FFF7F7FE22461C491D48FFF7F2FE08221C491C48FFF7EDFE22461B491C48FFF7E8FE22461B491B48FFF726
:40150000E3FE1B4A137843F008031370194C61232370FFF7DDFE812323700122164B1A70FFF7ACFE0E2229461448FFF7CDFE38BDE8460040AC3E00009000004883580040EB
:4015400003500140A0430040200900480251004028090048C051004034090048125100403C090048205100404809004830510040224300400048004004000840B04300407A
:4015800008B501F085FC03680C2B00D1FEE7FEE708B5094B1A681044084BC31A802B02DC054B186005E001F073FC0C2303604FF0FF32104608BD00BFD480FF1FF881FF1F2D
:4015C00008B5104E104D16E029686B68AC68002204E051F8040B43F8040B0432A242F8D1E868002203E0002143F8041B04328242F9D11035013E002EE6D101F04FFCFEF74C
:4016000041FDFEE701000000743F000008B5104A104B1A60104A136843F40073136000230AE0032B03D80D4A52F8231000E00C490C4A42F8231001332F2BF2D90A4B1A78D3
:401640000A4B1A70074A0A4B1A60FFF7FBFE08BD0004FA050CED00E014ED00E000000000811500000080FF1FBC760040C080FF1F08ED00E07222074B1A702022033B1A70A7
:401680000622603B1A70472210331A700022B03B1A7070478B65004010B501F0F1FB04460A4A137843F020031370033A137843F010031370A2F58072137843F01003137017
:4016C00001F0C8F9204601F0DFFB10BD9B65004008B5054B1B7823B9FFF7CCFF0122024B1A70FFF7D9FF08BD7481FF1F034B1B7813F0040FFAD1024B1870704768640040C3
:401700004864004038B5074B1B782BB938BDFFF7EDFF0134A4B201E005460024285D0028F5D138BD7481FF1F10B50222114B1A7081220E3B1A70082202331A700422113342
:401740001A70002401331C704FF400420A4B1A6007210F2001F0F4FA08490F2001F0DCFA1022074B1A70074B1C70074B1C70074B1C7010BDD649004080E100E0DD17000021
:40178000B981FF1FC981FF1FBC81FF1FBD81FF1F08B501F075FB064A137843F0040313701032137843F00403137001F06DFB08BDA543004008B5074B1B7823B9FFF7B4FF05
:4017C0000122044B1A70FFF7E3FF4FF40042024B1A6008BD7681FF1F00E100E038B5A54B1C78A54B1B7813F0400F00F03A81E4B214F0010F00F01D819F4B1B78453B052BD8
:4018000000F21481DFE813F006008200120112010600DF0004F0DF0504F00A04082C42D1954B1B78DBB2452B35D1944B1B7813F0FF0F10D0924B1B681B78DBB2914A1370EC
:4018400004228C4B1A7001228F4B1A7046228A4B1A702C46EDE08D4B1B7813F0020F0DD08B4A137843F00A0313706022824B1A704FF40042874B1A602C46DAE0864A1378A4
:4018800043F0100313701022844B1A700422023B1A702C46CDE00022764B1A704A22764B1A702C46C5E00A2C2BD1794A137843F0A0031370754B1B7813F0020F14D06E4BB0
:4018C0001B7813F0080F01D0092300E00A23704A11780B4313706022674B1A704FF400426C4B1A602C46A4E06B4A137843F0100313701022694B1A700422023B1A702C46DB
:4019000097E0002001F0E6F92C4692E014F0020F36D15D4B1A78D2B2584B1B78DBB29A4210D2594A1378DBB255490968CB5CDBB254490B7004214F4B197013780133DBB2D7
:40194000137076E0514B1B7813F0020F0CD0504A137843F00A0313706022474B1A704FF400424C4B1A6064E04B4A137843F0100313701022494B1A700422023B1A7058E0B1
:40198000424B1B7813F0020F0CD0414A137843F09A0313706022384B1A704FF400423D4B1A6046E03C4A137843F01003137010223A4B1A700422023B1A70354A137843F02D
:4019C0009003137035E0364A1378DBB2354908682C490978C9B2C15413780133DBB213701278D2B2304B1B78DBB29A4203D21022204B1A701DE0254B1B7813F0020F0CD070
:401A0000234A137843F00903137060221A4B1A704FF400421F4B1A600BE01F4A137843F0100313700022134B1A7002E0002001F051F914F0200F1CD00F4B1B7813F0080FFD
:401A400001D0012300E00223114A11780B431370114A137803F0EF0313701022064B1A7038BD054B1B7813F0100F02D11022024B1A7038BDD7490040B981FF1FBE81FF1F7C
:401A8000C081FF1FD8490040BD81FF1FC881FF1FC981FF1F80E100E0D6490040D9490040BC81FF1FC481FF1FCA81FF1F1A4B1B78DBB2102B29D1194B1B7813F0080F26D150
:401AC0004FF40042164B1A604000C0B229B140F001004922104B1A7002E045220E4B1A70104B1870012201331A700F4B1B7813F0010FFAD00C4B1B7803F00A030A2B08D1C7
:401B00001022054B1A700320704702207047012070470020704700BFB981FF1FD949004080E100E0D8490040D7490040164B1B7813F0040F23D04000C0B229B140F0010002
:401B40004922124B1A7002E04522104B1A70104B1870122201331A700422023B1A700D4B1B7813F0010FFAD00A4B1B7803F00A030A2B06D11022054B1A700320704702205F
:401B800070470020704700BFD9490040B981FF1FD8490040D74900400A4B1B7813F0040F0ED01023074A13700421023A1170064A1370064B1B7813F0210FFAD0002070470D
:401BC00002207047D9490040B981FF1FD7490040114B1B7813F0040F1BD0104B18700422013B1A7046220E4B1A700E4B1B7813F0010FFAD00B4B1B7813F0020F04D16022CB
:401C0000074B1A70002070476022054B1A70032070470220704700BFD9490040D8490040B981FF1FD7490040114B1B7813F0040F1BD0104B1B78DBB2492B05D100220E4B78
:401C40001A704A220B4B1A700B4B1B7813F0010FFAD00A4B1B78DBB218B11021064A117004E06021034A117000E0002318467047D9490040B981FF1FD7490040D8490040C2
:401C80000422014B1A60704700E100E00222014B1A60704700E100E008B501F0F1F80C4A137843F020031370013A137843F010031370FE32137843F01003137001F0E4F82D
:401CC00000F0D6FEFFF7DCFFFFF7E0FF08BD00BF976400400422014B1A60704780E100E00222014B1A60704780E100E010B5FFF7F1FF064B1C78064A137803F009031C432C
:401D000000231370FFF7BCFF204610BD66640040D881FF1F10B5FFF7E3FF064B1B78064A147804F040041C4300231370FFF7AEFF204610BD64650040E981FF1F10B5044688
:401D40002B4B1A7802F0FF0312B1013BDBB200E00723284A1278D2B29342F1D0FFF7BAFF254B1978254A137803F009030B4313701F4B1A78D2B21F4B1B78DBB29A4207D183
:401D80001E4B1B7813F0040F02D01D4B1C702CE0184A13780133DBB213701378DBB2072B02D90022134B1A70124B1A78D2B2104B1B78DBB29A420ED10D4A13780133DBB293
:401DC00013701378DBB2072B02D90022084B1A7001220C4B1A70074B1B78DBB20A4AD4540A4A137843F004031370FFF749FF10BDE581FF1FE781FF1F66640040D881FF1F18
:401E000047640040E481FF1FD081FF1F8664004010B5FFF765FF134B1A78D2B2124B1B78DBB29A4214D0114B1B7813F0FF0F0CD10C4A13780133DBB213701378DBB2072B7F
:401E400006D90022074B1A7002E00022074B1A70044B1B78DBB2064AD45CE4B2FFF716FF204610BDE881FF1FE681FF1FCC81FF1FDC81FF1F08B501E0094B1B78094B1B7884
:401E800013F0200FF8D1FFF72BFF0023064A1370064A1370064A1370FFF7F8FE08BD00BF5764004064650040CC81FF1FE881FF1FE681FF1F08B500F0E3FF0E4B1A7842F0D4
:401EC00001021A701A7802F0FE021A7000F0DCFFFFF700FF0023084A1370084A1370084A1370084A137803F0FB031370FFF7C8FE08BD00BF97640040E481FF1FE581FF1F12
:401F0000E781FF1F8664004070B506460C46002506E0705DFFF712FF0135EDB2013CE4B2002CF6D170BD00BF08B501E00A4B1B780A4B1B7813F0200FF8D100F0A1FF084B7C
:401F40001A7842F001021A701A7802F0FE021A7000F09AFF08BD00BF57640040646500409764004010B50F22174B1A70174C042323600721022000F0E3FE1549022000F03C
:401F8000CBFE022323600721012000F0D9FE1149012000F0C1FEFFF7C7FF00240E4B1C700E4B1C700E4B1C700E4B1C700E4B1C700E4B1C70FFF79AFEFFF7ACFE0C4B1C7027
:401FC0002022FE331A7010BD8764004080E100E011200000B1200000CC81FF1FE881FF1FE681FF1FE481FF1FE581FF1FE781FF1F8664004008B5054B1B7823B9FFF7B2FF58
:402000000122024B1A70FFF747FE08BD7781FF1F28E01F4B19781F4A137803F009030B431370137813F0040F24D01B4B1B7813F0FF0F0CD1194A13780133DBB21370137890
:40204000DBB2072B06D90022144B1A7002E00022114B1A70114B1B78DBB2114AD35CDBB2104A13700D4B1A78D2B20F4B1B78DBB29A42CED1094B1A78D2B20B4B1B78DBB21A
:402080009A4204D1094A137803F0FB031370704766640040D881FF1FE481FF1FE581FF1FD081FF1F47640040E781FF1F86640040204B1A7820490B7803F0400313430B70E4
:4020C00032E01E4B1A78D2B21D490B780133DBB20B700B78DBB2072B02D90021184B1970174B1978C9B2174B1B78DBB299420ED114490B780133DBB20B700B78DBB2072BF8
:4021000002D900210F4B197001210F4B19700C4B1B78DBB20D49CA54064B1A7806490B7803F0400313430B70034B1B7813F0200FC7D1704764650040E981FF1F5764004026
:40214000E681FF1FE881FF1FCC81FF1FDC81FF1F044A137803F0EF03000100F0100018431070704720510040024A137843F080031370704779640040024A137803F07F033B
:402180001370704779640040014B1870704700BF09650040014B1870704700BF49650040014B1870704700BF29650040014B1870704700BF89640040014B1878704700BFB7
:4021C00069640040014B1878704700BF5965004008B501E0FFF7F6FFFFF7EEFF10F0100FF8D108BD08B5124A137803F0C00343F00B03137002F59072137843F0010313700D
:40220000FF20FFF7C1FFFF20FFF7C4FF0020FFF7C7FF0020FFF7CAFF00F032FE054A137843F01003137000F02FFEFFF7D1FF08BD796400409964004008B5054B1B7823B9F5
:40224000FFF7D0FF0122024B1A70FFF78DFF08BD7881FF1F024A137843F080031370704775650040024A137803F07F031370704775650040014B1870704700BF05650040CC
:40228000014B1870704700BF45650040014B1870704700BF25650040014B1870704700BF35650040014B1870704700BF85650040014B1878704700BF65650040014B187806
:4022C000704700BF5565004008B501E0FFF7F6FFFFF7EEFF10F0100FF8D108BD10B5134A137803F0C00343F01B031370104C237843F001032370FF20FFF7BCFFFF20FFF778
:40230000BFFF0020FFF7C2FF0020FFF7C5FF0020FFF7C8FF00F0B4FD237843F01003237000F0B2FDFFF7D0FF10BD00BF756500409565004008B5054B1B7823B9FFF7CEFFB9
:402340000122024B1A70FFF785FF08BD7981FF1F10B59DF80840012C51D1013809282ED8DFE800F0052D2D052D2D0F192D230F2B03D92548007840B222E02448007840B2F9
:402380001EE00F2B03D92248007840B218E02148007840B214E00F2B03D91F48007840B20EE01E48007840B20AE00F2B03D91C48007840B204E01B48007840B200E0002052
:4023C00001EB401101FB02F1C90B8AB20D2B0BD8C3F10E0289B211418AB2611E124800EB810101338B7005E0631E0F4901EB83030F219970013C0C4B23F8242010BD00203B
:4024000000F068FC10BD00BF180100491C010049190100491D0100491A0100491E0100491B0100491F0100497C81FF1FF8B5074600F026FD06460D4D2B7843F003032B704B
:402440000B4C237843F0030323700A4B1F70032000F058FC2B7803F0FC032B70237803F0FC032370304600F00FFDF8BDF8460040F9460040925800400022324B1A71012862
:402480005FD170B53822304B1A70042202331A70062201331A70002401331C7001331C703F2201331A7002331C7001331C7001331C7001250A331D70502203F527631A702B
:4024C0000A2201331A702C2201331A7001331C70442203331A70482201331A7001331D7002331D70112201331A70192201331A70972201331A705220FFF798FF5822134B1D
:402500001A7001331C70052605331E70022201331A7001331C7001331C70204600F0C6FA43F233320A4B1A602946304600F0E2FA2946252000F062FB06491D2000F0ECFB6A
:4025400070BD70477C81FF1F004E004094580040EC81FF1F25280000F0B583B0284D01272F70284E00247471102000F0B1FA102000F032FB07211D2000F0E2FB0422224B5A
:402580001A7001331C7007331C70204A137843F0180313701E4B1C7003F2F5231C7001331C700A22A3F209331A7001331C7002331C705B2205331A705E2201331A7004333B
:4025C0001C701422A3F68C231A70009710234FF4004248F6F0510220FFF7BAFE2B78013B06EB83039A780B4B1A702B78013B36F82320094B1A802878FFF73EFF03B0F0BDF0
:40260000D880FF1F7C81FF1F96580040075B0040935800400E4E00400C4E004070B500F02FFC06462A4B1B782A4B1A7842F001021A701A7842F010021A7010331A7842F017
:4026400001021A701A7842F010021A70224D2B7843F002032B70214C237843F0020323701F4A137843F003031370032000F04AFB2B7803F0FD032B70237803F0FD0323705B
:40268000184A137843F0060313707A22164B1A70164A137843F0010313701032137843F0010313700F3A137843F0010313701032137843F0010313704FF000530C4A13604B
:4026C000A2F5C0721360304600F0DEFB70BD00BFD880FF1FAA430040F8460040F9460040915800407758004082580040A143004080E200E008B5084B9B794BB9064BDB794E
:4027000013F0FF0F01D1FFF727FF0122024B9A71FFF784FF08BD00BF7C81FF1F024A137843F0010313707047004E0040024A137803F0FE0313707047004E0040094B1B79B6
:4027400013F0FF0F03D0074B5B79DBB203E0064B1B7803F00103012B01D00028EED01846704700BF7C81FF1F014E0040154B1B7803F00303012B07D8134B1888023B1B88CE
:402780009BB243EA004013E0022B0AD10E4B1888023B1B7843EA00430C4A107843EA002006E00B4B188883B2074A108843EA0040084B1B7913F0FF0F02D00022054B5A7192
:4027C000704700BF144E0040124E0040114E0040104E00407C81FF1F064B9B68C01A4FF47A7303FB00F0044B1B6890FBF3F000B2704700BF7C81FF1FEC81FF1F10B5084A58
:40280000137843F004031370FFF788FF0020FFF795FFFFF7ABFF0446FFF788FF204610BD014E0040704700BF024A137843F08003137070477B640040024A137803F07F0358
:40284000137070477B640040014B1870704700BF8B640040014B1878704700BF6B640040014B1870704700BF2B640040014B1878704700BF4B640040014B1870704700BF81
:402880000B640040024B1B78024B1878704700BF0B6400404B64004008B501E0FFF7E6FFFFF7D8FF10F0080FF8D108BD08B51320FFF7D6FF1320FFF7DFFF00F0E1FA064AD0
:4028C000137843F01003137000F0DEFAFFF7E4FF0020FFF7B9FF08BD9B64004008B5054B1B7823B9FFF7E2FF0122024B1A70FFF79BFF08BD8881FF1F024B1878C0F3800038
:40290000704700BF21510040024A137843F080031370704779650040024A137803F07F031370704779650040014B1870704700BF09640040014B1870704700BF49640040B8
:40294000014B1870704700BF29640040014B1870704700BF89650040014B1878704700BF69650040014B1878704700BF5964004008B501E0FFF7F6FFFFF7EEFF10F0100F8E
:40298000F8D108BD08B5124A137803F0C00343F009031370E03A137843F001031370FF20FFF7C2FFFF20FFF7C5FF0020FFF7C8FF0020FFF7CBFF00F063FA064A137843F047
:4029C0001003137000F060FAFFF7D2FF08BD00BF796500409965004008B5054B1B7823B9FFF7D0FF0122024B1A70FFF78DFF08BD8981FF1F014B1B681864704708ED00E0CF
:402A00004001C0B2014B1870704700BF00E400E00122014B1A60704700E100E00122014B1A60704780E100E010B50446FFF7F6FF2046FFF7DFFF0720FFF7E2FFFFF7E8FF84
:402A400010BD00BF024B1878C0F38000704700BF31510040054A137843F0040313701032137843F004031370704700BFA2430040054A137843F0020313701032137843F031
:402A800002031370704700BFA243004010B5002404E02046FEF7C8FC0134E4B2012CF8D9FF22014B1A7010BDD980FF1F10B50446FFF7ECFF2046FEF7A9FC014B1C7010BD6E
:402AC000D980FF1F014B188880B2704780400040034B1A7800F0F80010431870704700BF82400040024B187800F00700704700BF8240004070B505460E46FFF7F3FF04462D
:402B0000FFF7E0FFA84256D02B4B1B7803F0010294B900B185B938B9284B1D80284A137803F0BF03137070BD254A137843F040031370224B1D8070BD22B3002321490B700B
:402B400001240F310C7004310B700C390B7803F07F030B701A4B1B7813F0080F00D08DB9194B18800721013B1970164B1B7813F0010FFAD110490B7803F0FE030B700021BD
:402B8000104B19700C4B1B7813F0010F0DD00E4B1D800EB1032200E001220A4B1A70094B1B7813F0010FFAD170BD044B1D8002490B7813430B7070BDA243004080400040CC
:402BC000824000400140004002400040014B188880B2704700410040034B1A7800F0F80010431870704700BF02410040024B187800F00700704700BF0241004070B50546A1
:402C00000E46FFF7F3FF0446FFF7E0FFA84256D02B4B1B7803F0010294B900B185B938B9284B1D80284A137803F0BF03137070BD254A137843F040031370224B1D8070BD61
:402C400022B3002321490B70012413310C7004390B7008390B7803F07F030B701A4B1B7813F0080F00D08DB9194B18800721013B1970164B1B7813F0010FFAD110490B7867
:402C800003F0FE030B700021104B19700C4B1B7813F0010F0DD00E4B1D800EB1032200E001220A4B1A70094B1B7813F0010FFAD170BD044B1D8002490B7813430B7070BD60
:402CC000A14300400041004002410040014000400240004001BE704710B5044605E0084B186800F0C5F8A4F50044B4F5004FF6D8034B586800FB04F000F0BAF810BD00BFF1
:402D0000DC80FF1F08B5034B1B7A00FB03F000F0AFF808BDDC80FF1F70B504460E46074B1D681F2802D90020FFF7D4FF04F01F04103455F8240045F8246070BD08ED00E081
:402D400038B504460D46072902D90020FFF7C2FF1F2C02D90020FFF7BDFF04F01F0000F1604000F564406D01EDB2057038BD00BF024A137843F08003137070477A64004097
:402D8000014B1870704700BF8A640040014B1878704700BF6A640040014B1870704700BF2A640040014B1878704700BF4A640040014B1870704700BF0A64004008B501E04D
:402DC000FFF7F0FFFFF7E2FF10F0080FF8D108BD08B50120FFF7E0FF0120FFF7E9FF00F04FF8064A137843F01003137000F04CF8FFF7E4FF0120FFF7C3FF08BD9A640040FC
:402E000008B5054B1B7823B9FFF7E2FF0122024B1A70FFF7ADFF08BD8A81FF1F014B1B681865704708ED00E04001C0B2014B1870704700BF04E400E01022014B1A60704769
:402E400000E100E01022014B1A60704780E100E010B50446FFF7F6FF2046FFF7DFFF0720FFF7E2FFFFF7E8FF10BD00BF000000000230800803D000BF01380046FCD17047B7
:402E8000EFF3108072B6704780F31088704700BF014B1868704700BF4C81FF1F0E4B70B51E460E4C0025E41AA410A54204D056F8253098470135F8E701F04AF8084B094CD3
:402EC0001E46E41AA4100025A54204D056F8253098470135F8E770BD5C3F00005C3F00005C3F0000643F000010B5431E0A44914204D011F8014B03F8014FF8E710BD0346F4
:402F00000244934202D003F8011BFAE7704700000EB400B54FF402719CB0ADF814106FF00041049107914FF6FF711DAB02900690084853F8042BADF81610006802A9019305
:402F400000F064F8029B00221A701CB05DF804EB03B070474C81FF1F2DE9F0478E6882469E420C46914698463ED88A8912F4906F3AD02568096902236F1A656905EB450578
:402F800095FBF3F57B1C43449D4238BF1D4653050FD5294600F040FB064698B13A462169FFF7A2FFA38923F4906343F08003A38113E02A4600F08EFB064670B921695046B5
:402FC00000F0DEFA0C23CAF80030A3894FF0FF3043F04003A381BDE8F08726613E44266046466561ED1BA560464528BF464649463246206800F0A8FAA36800209B1BA360A7
:4030000023681E442660BDE8F08700002DE9F04F9DB003938B8980461C060D4616460DD50B695BB9402100F0F7FA2860286118B90C23C8F80030CDE040236B6100230993D6
:4030400020238DF82930DFF89CB130238DF82A3037463C4614F8013B1BB9B7EB060910D003E0252BF9D02746F3E74B46324629464046FFF771FF013000F0A780099B4B440B
:4030800009933B78002B00F0A08000234FF0FF3204930793059206938DF853301A930126052221784E4800F041FA671C049B38B14B4A3C46801A06FA00F018430490EFE7C4
:4030C000D90644BF20228DF853201A0744BF2B228DF8532022782A2A03D0079A00210A200BE0039A111D12680391002A10DA524243F00200079204900BE027463B78013490
:40310000303B092B03D800FB02320121F5E701B107923B782E2B1ED17B782A2B0AD1039B02371A1D1B680392002BB8BF4FF0FF33059310E0002319460593781C0A24074695
:403140003A780130303A092A03D804FB01210123F5E703B1059103223978224800F0E6F940B14023CBEB000003FA00F0049B013718430490397806221B487E1C8DF828102A
:4031800000F0D4F988B1194B33B9039B073323F007030833039314E003AB00932A46144B04A94046AFF3008007E003AB00932A460F4B04A9404600F093F8B0F1FF3F824663
:4031C00003D0099B5344099342E7AB895B0601D4099801E04FF0FF301DB0BDE8F08F00BF1C3F0000223F0000263F000000000000592F00002DE9F04791461F460A698B685A
:4032000006469342B8BF1346C9F8003091F843200C46DDF8208012B10133C9F800302368990642BFD9F800300233C9F80030256815F0060510D104F1190A07E00123524686
:4032400039463046C04701301AD00135E368D9F800209B1A9D42F1DB94F843302268003318BF012392060FD5E118302081F843005A1C94F845102244023382F8431003E08B
:403280004FF0FF30BDE8F08704F1430239463046C0470130F4D02268D9F80050E36802F00602042A08BF5D1B2269A3680CBF25EAE57500259342C4BF9B1AED184FF00009B3
:4032C0001A344D4509D00123224639463046C0470130D5D009F10109F3E70020BDE8F0872DE9F04317460A7E85B06E2A984606460C460C9B01F1430E00F0AE8011D8632AA8
:4033000022D009D8002A00F0BB80582A40F0CA8081F84520834955E0642A1ED0692A1CD0C0E0732A00F0B08009D86F2A2ED0702A40F0B8800A6842F020020A603EE0752ACB
:4033400024D0782A3AD0ADE01A6801F14205111D1960136884F84230A8E021681A6811F0800F02D0111D196008E011F0400F02F10401196002D0B2F9003000E01368002BDD
:403380003CDA2D225B4284F8432037E021681A6811F0800F02D0111D196007E011F0400F02F10401196001D0138800E01368227E5C496F2A14BF0A2208221BE078225A4953
:4033C00084F845202268186812F0800F00F104051D6003D1550601D5038800E00368D00744BF42F0200222601BB9226822F0200222601022002084F8430001E049490A228B
:403400006568002DA56008DB206820F0040020602BB9002D7DD175460CE0002B79D07546B3FBF2F002FB1033CB5C05F8013D03460028F5D1082A0BD12368DA0708D523690D
:4034400062689A42DEBF302305F8013C05F1FF35C5EB0E0323612EE008681A6810F0800F496903D0101D1860136808E010F0400F02F104001860136801D0198000E01960F5
:4034800000232361754616E01A68111D1960156800216268284600F049F808B1401B6060636804E004F1420584F8422001232361002384F84330CDF800803B4603AA214653
:4034C0003046FFF797FE013002D14FF0FF3026E023692A4639463046C0470130F5D023689B0710D5002504F1190907E001234A4639463046C0470130E7D00135E368039A7A
:403500009B1A9D42F2DBE068039B9842B8BF184605E00B7804F1420584F842308AE705B0BDE8F0832D3F00003E3F000010B5C9B202449042034605D01C7801308C42F8D10A
:40354000184610BD002010BD884210B501EB020301D8421E0BE09842FBD28118D21AD34204D013F8014D01F8014DF8E710BD994204D011F8014B02F8014FF8E710BD000034
:4035800038B50546002944D051F8043C0C1F002BB8BFE41800F0D4F81E4A1368114613B96360146030E0A3420DD92268A018834201BF18685B681218226063600C6023E088
:4035C000A24203D813465A68002AF9D118681918A1420BD12168014458188242196013D110685268014419605A600DE002D90C232B6009E021686018824201BF1068526862
:403600000918216062605C602846BDE8384000F098B838BD9081FF1F70B5CD1C25F0030508350C2D38BF0C25002D064601DBA94202D90C23336046E000F082F8234B1C6853
:403640001A462146A1B10B685B1B0ED40B2B03D90B60CC18CD501EE08C420BBF63684B681360636018BF0C4615E00C464968E9E7174C23681BB9304600F052F8206029464C
:40368000304600F04DF8431C18D0C41C24F00304A0420DD12560304600F053F804F10B00231D20F00700C31A0ED05A42E25070BD211A304600F034F80130EBD10C2333609E
:4036C000304600F03EF8002070BD00BF9081FF1F8C81FF1FF8B5074615460E4621B91146BDE8F840FFF798BF1AB9FFF749FF2846F8BD00F027F885420ED929463846FFF7F0
:403700008BFF044650B131462A46FFF7EDFB31463846FFF735FF01E03046F8BD2046F8BD38B5064C0023054608462360FDF730FF431C02D1236803B12B6038BDF081FF1F88
:403740007047704751F8040C0028BEBF091851F8043CC0180438704700000000434F4E54524F4C20524547495354455220313A203078253032580D0A000000004572726FE1
:4037800072206F6363757272656420647572696E672049324320636F6D6D20746F207265616420636F6E74726F6C20726567697374657220310D0A00434F4E54524F4C20BF
:4037C00052454749535445522031207375636365737366756C6C79207772697474656E2061733A203078253032580D0A000000004572726F72206F636375727265642064B0
:403800007572696E672049324320636F6D6D20746F2073657420636F6E74726F6C20726567697374657220310D0A0000434F4E54524F4C20524547495354455220333A20E9
:403840003078253032580D0A000000004572726F72206F6363757272656420647572696E672049324320636F6D6D20746F207265616420636F6E74726F6C207265676973BC
:4038800074657220330D0A00434F4E54524F4C2052454749535445522033207375636365737366756C6C79207772697474656E2061733A203078253032580D0A00000000FC
:4038C0004572726F72206F6363757272656420647572696E672049324320636F6D6D20746F2073657420636F6E74726F6C20726567697374657220330D0A0000434F4E5441
:40390000524F4C20524547495354455220353A203078253032580D0A000000004572726F72206F6363757272656420647572696E672049324320636F6D6D20746F207265FA
:40394000616420636F6E74726F6C20726567697374657220350D0A00434F4E54524F4C2052454749535445522035207375636365737366756C6C79207772697474656E20E3
:4039800061733A203078253032580D0A000000004572726F72206F6363757272656420647572696E672049324320636F6D6D20746F2073657420636F6E74726F6C207265E0
:4039C00067697374657220350D0A0000434F4E54524F4C20524547495354455220363A203078253032580D0A000000004572726F72206F6363757272656420647572696E16
:403A0000672049324320636F6D6D20746F207265616420636F6E74726F6C20726567697374657220360D0A00434F4E54524F4C205245474953544552203620737563636574
:403A4000737366756C6C79207772697474656E2061733A203078253032580D0A000000004572726F72206F6363757272656420647572696E672049324320636F6D6D2074B3
:403A80006F2073657420636F6E74726F6C20726567697374657220360D0A00004649464F20434F4E54524F4C2052454749535445523A203078253032580D0A004572726F9E
:403AC00072206F6363757272656420647572696E672049324320636F6D6D20746F2072656164204649464F20636F6E74726F6C207265676973746572200D0A004649464F86
:403B000020434F4E54524F4C205245474953544552207375636365737366756C6C79207772697474656E2061733A203078253032580D0A004572726F72206F6363757272A9
:403B4000656420647572696E672049324320636F6D6D20746F20736574204649464F20636F6E74726F6C207265676973746572200D0A0000494E543220434F4E4649475551
:403B8000524154494F4E2052454749535445523A203078253032580D0A0000004572726F72206F6363757272656420647572696E672049324320636F6D6D20746F207265ED
:403BC000616420494E543220434F4E46494755524154494F4E205245474953544552200D0A000000494E543220434F4E46494755524154494F4E2052454749535445522055
:403C00007375636365737366756C6C79207772697474656E2061733A203078253032580D0A0000004572726F72206F6363757272656420647572696E672049324320636F4C
:403C40006D6D20746F2073657420494E543220434F4E46494755524154494F4E205245474953544552200D0A00000000494E5432204455524154494F4E2052454749535479
:403C800045523A203078253032580D0A000000004572726F72206F6363757272656420647572696E672049324320636F6D6D20746F207265616420494E5432204455524159
:403CC00054494F4E205245474953544552200D0A00000000494E5432204455524154494F4E205245474953544552207375636365737366756C6C79207772697474656E2014
:403D000061733A203078253032580D0A000000004572726F72206F6363757272656420647572696E672049324320636F6D6D20746F2073657420494E543220445552415497
:403D4000494F4E205245474953544552200D0A004F766572207468726573686F6C6420646174613A2025642025642025642025642025642054696D657374616D703A202584
:403D800064207365636F6E64730D0A00416363656C65726174696F6E20646174613A202564202564202564200D0A20506172616D65746572733A20307825303258202830FC
:403DC0007825303258290D0A0A00000020454550524F4D205265616420506172616D6574657273203D203078253032582028307825303258290D0A002A2A415454454E5433
:403E0000494F4E3A20506F736974696F6E206F6620706F74656E74696F6D65746572206368616E67656420647572696E6720726561642D6F6E6C79206D6F64616C69747988
:403E40002A2A0D0A0A0000002A2A2A2A5741524E494E473A20636F6E66696775726174696F6E206D656E7520697320696E20726561642D6F6E6C79206D6F64616C69747947
:403E80002A2A2A2A0D0A000020454550524F4D205265616420506172616D6574657273203D203078253032580D0A0A00035B00402443004040000000C84900401900004F28
:403EC00000400C00405100403000F05100401000000001408006000701400009001401408006001B0140000100400140000A004C01400002005001402000000060520040D7
:403F000018080048060080060140200800488000801A0140A008004880004300232D302B2000686C4C006566674546470030313233343536373839414243444546003031DC
:403F400032333435363738396162636465660000F8B500BFF8BC08BC9E4670474D0000000D160000F8B500BFF8BC08BC9E46704729000000883F0000C880FF1F88000000F4
:403F8000A800000000000000000000000100000012000000F881FF1F01FF00000000E02EC05D00001800000000366E010000000000000000000000000000000000000000C7
:403FC0000000000000000000000000001A3F000000000000000000000000000000000000000000000000000000000000000000000000000000000000000000000000000068
:40400000000000000000000000000000EC80FF1F000000000000000000000000000000000000000000000000000000000000000000000000000000000000000000000000F6
:404040000000000000000000000000000000000000000000000000000000000000000000000000000000000000000000000000000000000000000000000000000000000040
:404080000000000000000000000000000000000000000000000000000000000000000000000000000000000000000000000000000000000000000000000000000000000000
:4040C00000000000000000000000000000000000000000000000000000000000000000000000000000000000000000000000000000000000000000000000000000000000C0
:40410000000000000000000000000000000000000000000000000000000000000000000000000000000000000000000000000000000000000000000000000000000000007F
:020000040003F7
:0200000480007A
:40000000024F004006520040056400400465004002010140020301400205014009060140390701405E08014044090140650A0140370B0140040D0140020F014057140140EA
:4000400048150140141701406018014048190140091A01404C1B01400940014006410140064201400843014004440140084501400546014005470140074801401C49014082
:40008000084C01400F4D0140065001400351014001300A27004001601002110218A01920870F880F890D8A0D8B0D850F8838890D8B728740E6109740EA0187089740020108
:4000C00030015409560458045B045C055D105F010080032806800A990B04102812011302184019501B081F02211823052A222B20302032043341388039103B0941024230FB
:40010000432049184A025040526153045C605D0A608065406780686869106B437203851287409740A202A708B202C017C20FC40FCA07CC0FCE0FD007D20CD6F0D891E00214
:40014000E6020040040A0503061408200C201420181319021A041C031E141F0122152608281329032A0C3010320F33033440362039083A083B023E113F044024410345E028
:40018000460B47C0482649FF4AFF4BFF4EF04F44500C5401580459045A045B045C225D225F0166C06A406B0283028504860196019B01A30DB104B201B308B502B701B880CA
:4001C000BE44C020C103C5D0C601C702C816C9FFCAFFCBFFCDA0CF04D018D280D405D804D904DA04DB04DC40DD54DF01E040E2C0E440E540E6C0E8C0EAC0ECC0EEC0022086
:4002000004200502072109080C080E040F021484170419081A021C421E081F0421142220238126092B802C042F0432203480358036803720380239083D083E044118448449
:40024000450449014D0251085380564057015A895C405D125E08700286038821920C93109602972898409B249C049D809E48A302A402B502C0F4C2E4C470CA21CC34CE432C
:40028000D0E6D6FBEE200E020F011302160217012E0130013302340237013E103F40405645EC4702481349FF4AFF4BFF4F015018528054015604580459045A045B045C65BE
:4002C0005D775F016040624064406540668068806A806C806E808014831084DC85218622870E88098AD08E208F10970C980C990C9A719B239E03A410A640A708A810A921EA
:40030000AAACAB06AD40AF03B30FB4E0B560B61FB710B920BA20BB08BF40C041C5ECC602C807C9FFCAFFCBFFCF01D018D280D401D804D904DA04DB04DC22DD77DF01E04050
:40034000E240E440E540E680E880EA80EC80EE8003020580064007240B200C400E051002140415041A081B021E0522402310264027242D842E082F043102320837243B4033
:400380003C823E044540468049094A084B404F0552085440554059095A805E805F0562027340740176809602A602C0F1C2C4C461CA70CC63CED8D090D20CD6DBD8018601F2
:4003C000A602E402EA018E02E610003802C0042106D808FC09040A030B390C9A1413150E1664180219131B041C9A1F2020982202249825052602273A28022A9830E032134F
:40040000330F340F373039083A2254405604580459045B045C115D105F01810E840194079D08A10EA407AB01AE04AF03B001B104B302B402B501B604B708BF10C010C102D3
:40044000C5D0C615C742C83FC9FFCAFFCBFFCDA0CF04D018D280D407D804D904DA04DB04DC55DD55DF01E040E2C0E440E540E6C0E8C0EAC0ECC0EEC0008001120320040478
:400480000A110B080F20102813021401150419021AB01B201C441E0222842402260427882B202C812F0A3294378039303C02440146044D044F015481560457185C605F09D8
:4004C000610862606340768080218E15912092019308969097409A409B029E80A068A108A220A302A680A720B720C02FC227C4AECAB2CC1ECE84D030D6F0D80FE001E250E5
:40050000E401EA05EC10EE0C82808C80912092019308969097409A409B029C809E80A068A108A220A302A720A912B020B304E2400105030A04C406180710081F1049110969
:4005400012061306141F189219031A051B0C1CE01D021F0D20E0231026C02AE02EE030C0310F321C34033620371038803B023F404006470449FF4A074BFF4C404D204EF022
:400580004F0550085418580459045A045B045C125D225F01604061A862406320800789018B028E04930194019807B001B102B202B301B404C040C106C50DC620C701C81DEA
:4005C000C9FFCAFFCBFFCDA0CF04D018D280D405D804D904DA04DB04DC65DD45DF01E040E2C0E440E540E6C0E8C0EAC0ECC0EEC002400302042005040A200B080C0A0E065C
:400600001422151219101AA01D0C1E041F4121022204254027402F4031023602376038013B123E023F04430248104B204E8852405314560859095B805C0166106701700122
:400640008D108F409310942296809720986099099B809E089F01A20BA302A418A680AB01AC10AE01B110B301C069C2F6C4F0CA80CCB1CEC4D001D224D68BD830E250E801F4
:4006800016021A042E05340636013E1058045C025F0105010605071009080A040C020D080E051002142215121A011B101D221E401F182442251026042E402F1834403501CE
:4006C0003603371438023B013D303E0A3F804420452247044E024F2457405E086C186F01760F7710804084028708880289018B108F20920494209512970598609C029F21A0
:40070000A108A201A40AAD40AE14B602C0F0C2F6C4F1CA70CCF0CEF0D0E0D230D640E001E415E840EA05EC10EE04332235203704398085208D40CCF0CE10E6406308660837
:40074000A722AB04D8C0EA803E1086089E08A726CE20E6406A02860187029610A726DC20E210E64013017F10C408DE01021003045F8087109720AB01C00AD60445089A10BE
:400780009B049F80D0019F80A508B210B704EE0C251083048F019610A724C820E6201220170459086608670275027B02822083048D088E0893029902A302A902AA10AB0208
:4007C000AF20B510C430D6C0D880DC80DE20E080E480EAA0EE30132814207B107D20A508AB80C40EDE03108070018001811083108880A510A710A820AB28B508C408DC0180
:40080000E601EC0800F60A220CF410761A221C7600FF010303C0000002800000430000000002000D0A401000018D000084000080040D008007423808568D0900848D0000CA
:40084000048D800084620014801104226000000008007F808070020F080000A00000510424036000050EFDBC3DFFFFFF2200F008040000000000022C040404041111000145
:400880000000C00040011011C00100114001400100000000000000000000000000000000FF10000018080000081A000410000001441E0000C000000480180000002004007A
:4008C000E70018000006E318DC1A21043C00C20138201F02D81C0001000028200000004523050400060E0C0005FFFFFF62A0F0410C000000000002120404040422220001ED
:4009000000000000000040020010301000101012000000000000000000000000000000000060600060000000930050808300830000000000000B0B00000000001400011629
:400940001200020000000000E00004E0E000E00008000000250018010000000000000000000000000000000000000000000000000000000000000000000000000000000099
:400980000000000000000000000000000000000000000000000000000000000000000000000000000000000000000000000000000000000000000000000000000000000037
:4009C00000000000000000000000000000000000000000000000000000000000000000000000000000000000000000000000000000000000000000000000000000000000F7
:400A000000000000000000000000000000000000000000000000000000000000000000000000000000000000000000000000000000000000000000000000000000000000B6
:400A40000000000000000000000000000000000000000000000000000000000000000000000000000000000000000000000000000000000000000000000000000000000076
:0200000490006A
:0400000000004005B7
:0200000490105A
:04000000BC90ACAF55
:0200000490303A
:0200000068E2B4
:0200000490402A
:4000000000000000000000000000000000000000000000000000000000000000000000000000000000000000000000000000000000000000000000000000000000000000C0
:400040000000000000000000000000000000000000000000000000000000000000000000000000000000000000000000000000000000000000000000000000000000000080
:400080000000000000000000000000000000000000000000000000000000000000000000000000000000000000000000000000000000000000000000000000000000000040
:4000C0000000000000000000000000000000000000000000000000000000000000000000000000000000000000000000000000000000000000000000000000000000000000
:0200000490501A
:0C00000000012E16106900012E30794B13
:00000001FF