:400000000080002011000000A5150000A515000008B5044B1A6803F53F5302331A6001F0E1FA00BFFA46004010B5054C237833B9044B13B10448AFF300800123237010BD27
:400040005081FF1F0000000080370000084B10B51BB108490848AFF300800848036803B910BD074B002BFBD0BDE81040184700BF000000005481FF1F80370000C880FF1F84
:40008000000000002DE9F04FE9B062B600F064FC01F032FB00F04CFD02F0B2FCA74802F0D7FCA74802F0E8FE02F02EFC02F0BCFE01F0B6FF02F034FB0023A24A1360A24A7B
:4000C0001360A24A1380052002F01AFE0DF26B122021182000F046FC48B99DF86B219C495BA802F029FF5BA801F020FB02E0994801F01CFB9DF86B314F2B14D04F228DF835
:400100006B212021182000F07DFC48B99DF86B2191495BA802F010FF5BA801F007FB02E08E4801F003FB0DF5B5722221182000F019FC48B99DF86A2189495BA802F0FCFE29
:400140005BA801F0F3FA02E0864801F0EFFA9DF86A31022B14D002228DF86A212221182000F050FC48B99DF86A217F495BA802F0E3FE5BA801F0DAFA02E07C4801F0D6FAFA
:400180000DF269122421182000F0ECFB48B99DF8692177495BA802F0CFFE5BA801F0C6FA02E0744801F0C2FA9DF86931422B14D042228DF869212421182000F023FC48B950
:4001C0009DF869216C495BA802F0B6FE5BA801F0ADFA02E0694801F0A9FA5AAA2521182000F0C0FB48B99DF8682165495BA802F0A3FE5BA801F09AFA02E0624801F096FA9B
:400200009DF86831202B14D020228DF868212521182000F0F7FB48B99DF868215A495BA802F08AFE5BA801F081FA02E0574801F07DFA0DF267122E21182000F093FB48B99C
:400240009DF8672152495BA802F076FE5BA801F06DFA02E04F4801F069FA9DF86731402B14D040228DF867212E21182000F0CAFB48B99DF8672148495BA802F05DFE5BA80C
:4002800001F054FA02E0454801F050FA0DF5B3723421182000F066FB48B99DF8662140495BA802F049FE5BA801F040FA02E03D4801F03CFA9DF866312A2B14D02A228DF87C
:4002C00066213421182000F09DFB48B99DF8662135495BA802F030FE5BA801F027FA02E0324801F023FA0DF265123721182000F039FB48B99DF865212D495BA802F01CFE5A
:400300005BA801F013FA02E02A4801F00FFA9DF86531032B55D003228DF865213721182000F070FB002849D19DF8652122495BA802F002FE5BA801F0F9F942E0350A0000D1
:40034000550A00009881FF1FA081FF1F9481FF1F84370000A4370000E0370000183800005438000074380000B0380000E8380000243900004439000080390000B8390000B4
:40038000F4390000143A0000503A0000883A0000C43A0000E43A0000243B00005C3B00009C3B0000C43B00000C3C00004C3C0000943C0000B83C0000FC3C0000A94801F0E0
:4003C000B5F900200C900D900E9000F04DFEA64B18701A7812091A701B7813F0FF0F14D11022A24B1A704FF4FA62A14B1A801E22A04B1A7080222321182000F003FB5E22D5
:400400003621182000F0FEFA4CE0974B1B78DBB2012B14D12022954B1A704FF47A62944B1A801E22934B1A7090222321182000F0E9FA2F223621182000F0E4FA32E08A4B84
:400440001B78DBB2022B14D14022884B1A704FF4FA52874B1A802822864B1A70A0222321182000F0CFFA18223621104600F0CAFA18E07D4B1B78DBB2032B13D1C0227B4BBF
:400480001A704FF47A527A4B1A803222794B1A70B0222321182000F0B5FA08223621182000F0B0FA704A13781B0143F00103DBB213704FF001090023059306939B4698465E
:4004C0006D4B1B68012B02D100F0D0FA8146B9F1010F00F08E81B9F1020F00F0B681B9F1000FEDD1604B1A7812091A701A7849EA0212D2B21A701978002000F0CBFD00F00D
:4005000025FE002000F0B0FD049002F01BFAFF2002F02CFA02F074FA0DF1A3022F21182000F020FA0028CBD19DF8A33013F0040F40F04481C4E704EB4402530029AA1344E0
:4005400006222821182000F02BFA002840F0338167003A19530068AA134413F8FC2C13F8FB1C42EA012141F30721404A157805FB01F52DB285EAE570A0EBE57013F8FA1C8B
:4005800013F8F96C41EA062141F30721167806FB01F636B286EAE671A1EBE67113F8F83C27444FEA470E68AFBE441EF8F77C43EA072343F30723177807FB03F73FB287EA87
:4005C000E772A2EBE77212B209B200B200F0BCFA0DF1A2023521182000F0C4F9814630B99DF8A23013F0420F01D04FF0010BBBF1000F47D009AB23F8185008F101085FFA1D
:4006000088F8B8F1040F47D91C4B1B88ADF82E300C2209A9022000F06BFD00F097FD0C220CA9022000F052FDBDF93020BDF93230BDF93410BDF93600BDF938E0BDF93AC0AD
:40064000CDF80CC0CDF808E0019000910C495BA802F072FC5BA801F069F84FF0000BD8461AE000BF383D00009C81FF1FA481FF1F9281FF1F9081FF1F9881FF1F9481FF1F2F
:40068000783D0000B9F1000F06D19DF8A23013F0480F01D04FF0010ABAF1000F36D009AB23F8186008F101085FFA88F8B8F1040F36D9A14B1B88ADF82E300C2209A90220D8
:4006C00000F016FD00F042FD0C220CA9022000F0FDFCBDF93020BDF93230BDF93410BDF93600BDF938E0BDF93AC0CDF80CC0CDF808E00190009191495BA802F01DFC5BA80D
:4007000001F014F84FF0000AD04609E0B9F1000F06D19DF8A23013F0600F01D001230593059B002B35D009AB23F8187008F101085FFA88F8B8F1040F2BD97F4B1B88ADF8AA
:400740002E300C2209A9022000F0D2FC00F0FEFC0C220CA9022000F0B9FCBDF93020BDF93230BDF93410BDF93600BDF938E0BDF93AC0CDF80CC0CDF808E0019000916F492D
:400780005BA802F0D9FB5BA800F0D0FF0023059398466B4B1B780293049B0193009733462A4668495BA802F0C7FB5BA800F0BEFF052002F0A5FA0134E4B204E00024DDF80E
:4007C00018A0CDF81C901F2C7FF6B5AECDF818A0DDF81C9000228DF867212E21182000F011F940228DF867212E21182000F00AF966E6534C23781B092370237849EA0313F5
:40080000DBB223702178002000F044FC00F09EFC002000F029FC237802464B490FA802F08BFB0FA800F082FF02F08CF8002002F09DF802F0E5F8002001F03EFD002001F0D9
:4008400041FD002001F0C2FC3AE602F07BF87F2002F08CF802F0D4F8002001F02DFD002001F030FD002001F0B1FC012000F0FCFB824602F0FBF804460146012000F00AFC7F
:4008800000F064FC012C33D1002000F0EDFB00F47F604FFA89F545EA0006F6B200F018FB274F3B7845EA0315EDB23D703978002000F0F0FB00F04AFC3B78DBB29E4209D0AE
:4008C000A24507D04E2221490FA802F021FB0FA800F02CFF002000F0C7FB194B1B78024619490FA802F028FB0FA800F01FFFE7E5002000F0B9FB00F47F6040EA0906F6B281
:400900005BAC134D0FCD0FC40FCD0FC40FCD0FC495E80F0007C424F8023B1B0C23705BA800F004FF32460B490FA802F005FB0FA800F0FCFEC4E500BF9481FF1F783D00007D
:400940009C81FF1FB43D0000F43D0000203E0000703E0000B03E000008B500F03FFF002008BD00BFF8B506460D461746002101F0B1F8044668B9284601F03EF9044640B9E9
:400980000121304601F0E6F8044610B901F060F9387001F015F9201C18BF0120F8BD00BF2DE9F04180460C4616461F46002101F091F80546F0B944F0800001F01DF905466F
:4009C000C0B90121404601F0C5F8054650B111E0C4EB0608012001F03BF907F80800013CE4B200E03446012CF2D8013E002001F02FF9B85501F0E4F8281C18BF0120BDE88A
:400A0000F08100BF70B50D461646002101F062F8044640B9284601F0EFF8044618B9304601F0EAF8044601F0CBF8201C18BF012070BD00BF08B501F023FF0122034B1A6080
:400A4000034A13680133136008BD00BF9881FF1FA081FF1F08B502F0ADF9034A13889BB202339BB2138008BD9481FF1F08B501F0F9FE142001F016FF01F046FF0022284BCC
:400A80001A6003E001F014FF264B186001F04AFF0028F7D0234B1B68112B0ADC224A1268012A06D80022214B1A6002221E4B1A6032E0112B09DC1C4B1B68022B05D100236F
:400AC0001A4A1360184A136026E0184B1B68022B0FD101F0EDFE144B5B68984209DD124B1B68012B05D10023104A13600E4A136012E00E4B1B68022B0ED101F0D9FE0A4BFF
:400B00005B68984208DD084B1B682BB90022074B1A600122044B1A60034B186808BD00BF9881FF1F6C81FF1FCC80FF1FA081FF1F08B501F015FC01F095FB08BD08B501F0AF
:400B4000A7FB01F02FFB08BD70B504460D461646BC4B1B881AB2BC490B7803F57A73D31ABA4A82FB0302A2EBE373B94A13800B78C3F57A739C4208DB0B7803F57A739C42D7
:400B800003DC0022B34B1A701EE0AF4B1B78C3F57A739D4209DBAC4B1B7803F57A739D4203DC0122AB4B1A700EE0A74B1B78C3F57A739E4208DBA44B1B7803F57A739E42C7
:400BC00002DC0222A34B1A70A24B1B78012B7FD01BB1022B00F0F78070BDFFF7AFFFFF2001F064FB002001F06DFBFF2001F0E8FA002001F0EBFAFFF79BFF934B1B78C3F5C6
:400C00007A739C4210DB904B1B7803F57A739C420ADCFFF793FFFF2001F048FBFF2001F04BFBFFF785FF70BD874B1B7803F57A739C4213DD844B1B7803F57A73844A128848
:400C400013449C420ADCFFF779FF412001F02EFB202001F031FBFFF76BFF70BD7A4B1A7802F57A727A4B1B881A44944212DD764A127802F57A7202EB430294420ADCFFF7B0
:400C80005DFF202001F012FB102001F015FBFFF74FFF70BD6C4A127802F57A7202EB4302944240F31081684A127802F57A7203EB430313449C4200F30681FFF73FFF1020A3
:400CC00001F0F4FA082001F0F7FAFFF731FF70BDFFF734FFFF2001F0E9FA002001F0ECFAFF2001F06DFA002001F070FAFFF720FF554B1B78C3F57A739D4210DB524B1B78CC
:400D000003F57A739D420ADCFFF718FFFF2001F0CDFAFF2001F0D6FAFFF70AFF70BD4A4B1B7803F57A739D4213DD474B1B7803F57A73474A128813449D420ADCFFF7FEFEFA
:400D4000412001F0B3FA202001F0BCFAFFF7F0FE70BD3D4B1A7802F57A723D4B1B881A44954212DD384A127802F57A7202EB430295420ADCFFF7E2FE202001F097FA10208A
:400D800001F0A0FAFFF7D4FE70BD2F4A127802F57A7202EB4302954240F395802A4A127802F57A7203EB430313449D4200F38B80FFF7C4FE102001F079FA082001F082FA52
:400DC000FFF7B6FE70BDFFF7B9FEFF2001F06EFA002001F071FA002001F074FAFFF7A8FE194B1B78C3F57A739E4210DB164B1B7803F57A739E420ADCFFF7A0FEFF2001F0B6
:400E0000DFF9FF2001F0E2F9FFF792FE70BD0E4B1B7803F57A739E421EDD0B4B1B7803F57A730B4A128813449E4215DCFFF786FE412001F0C5F9202001F0C8F9FFF778FEC3
:400E400070BD00BF9281FF1F9081FF1F56555555A881FF1FA681FF1F1B4B1A7802F57A721A4B1B881A44964212DD174A127802F57A7202EB430296420ADCFFF75FFE2020EC
:400E800001F09EF9102001F0A1F9FFF751FE70BD0D4A127802F57A7202EB4302964212DD094A127802F57A7203EB430313449E4209DCFFF743FE102001F082F9082001F0C4
:400EC00085F9FFF735FE70BD9081FF1FA881FF1F10B501F0A9FC554B1860002801DA00221A60524B1B68B3F5803F03DB4FF6FF724E4B1A604D4B186801F084FC4C4B1880B0
:400F000080B240F2E14398421ED80022494B1A704FF4FA62484B1A801022484B1A701E22474B1A708022474B1A7023211820FFF769FD454C20705E22444B1A7036211820C3
:400F4000FFF760FD207010BDA0F2E2439BB240F2E14293421ED80122364B1A704FF47A62354B1A802022354B1A701E22344B1A709022344B1A7023211820FFF743FD324CB6
:400F800020702F22314B1A7036211820FFF73AFD207010BDA0F6C4139BB240F2E14293421ED80222234B1A704FF4FA52224B1A804022224B1A702822214B1A70A022214BDE
:400FC0001A7023211820FFF71DFD1F4C207018201E4B187002463621FFF714FD207010BDA0F6A66080B240F2E24398421DD80322104B1A704FF47A520F4B1A80C0220F4B77
:401000001A7032220E4B1A70B0220E4B1A7023211820FFF7F7FC0C4C207008220B4B1A7036211820FFF7EEFC207010BDB081FF1FAE81FF1F9C81FF1F9281FF1FA481FF1FCC
:401040009081FF1FAC81FF1FB481FF1FAD81FF1F08B5052000F098F808BD00BF08B5062000F07CF808BD00BF00B583B003218DF80410030A8DF805308DF8060001230DEB93
:40108000010201A800F09AF89DF8030003B05DF804FB00BF30B583B004460D46FFF7DEFF02238DF80430230A8DF805308DF806408DF80750002302AA02F8053D04210DEB88
:4010C000010000F07BF803B030BD00BF10B582B003248DF80440030A8DF805308DF8060013460A46214601A800F068F802B010BD2DE9F04182B000AF054688461446FFF7DB
:40110000ADFF012001F012FEE61C04F10A0323F00703ADEB030D02238DF800302B0A8DF801308DF80250224641460DF1030001F0EFFE002307F1080202F8013DF1B2684600
:4011400000F03CF80837BD46BDE8F08108B5FFF77FFF10F0010FFAD108BD00BF10B50446002001F00BF8204600F0FCFD00F0D2FD10F0080FFAD000F05FFE0446012000F0A9
:40118000FDFF204610BD00BF10B50446002000F0F5FF204600F0E6FD002000F0E3FD00F0B9FD10F0010FFAD000F046FE00F044FE0446012000F0E2FF204610BD2DE9F04367
:4011C00083B006460C4617469846002000F0D6FF64B2002511E02146082CA8BF0821C9B206EBC50000F0A4FE00F094FD10F0010FFAD0083C64B201356DB2002CEBDC00F0F7
:40120000A7FE00F04BFE0026009601964FFA88F820E0C146B8F1080FA8BF4FF008095FFA89F1684600F084FE00F074FD10F0010FFAD0002406E004EBC60500F0FDFD78558D
:401240000134E4B24C45F6DBA8F108084FFA88F8013676B2B8F1000FDBDC012000F08EFF00F076FE00F01AFE00F038FE03B0BDE8F08300BFFEE700BFF0B40022174611E08F
:4012800050F82760F3B226F0FF0608E001EB420511F812406D78A5550132013BDBB2002BF4D10137222FEBD9F0BC70470A4B1B78DBB203F00701094A11701B090132137090
:4012C0000822074B1A708023064A1370583213704422054B1A707047CF0100496E5800403D510040005B00407658004008B50A46002101F018FE08BD08B501F009FE08BD64
:4013000038B500243D4B1C80502202331A700B2202331A8018233A4A13703321023211800232137045F6E8330232138019250232157002321380334B1D7047F22F52023364
:401340001A8002331D7040F2E73202331A801B2202331A7004222C492C48FFF7CDFF02222B4B1A7008224FF040231A70032103F500731970274B1B78DBB227490B70274BA9
:401380001A8041F25122023B1A800CE0244B1B7803F0010343EA440404F003044FF4F07001F07AFD013D0DB1032CEFD115B90320FFF760FF1B4B4FF480721A8007221A709D
:4013C000002219490A704820023108701A700222033B1A7004220A331A70144A137843F07F031370013A137843F001031370013A137843F08003137038BD00BF8040004025
:401400008640004092400040BC0A0048004100400043004008010049A146004022420040254200400440004006400040A2430040012807D8044B53F820201844017A13784B
:401440000B431370704700BFD43E0000012808D8044B53F820201844017A137823EA010313707047D43E000038B572B6394A137843F00403137000240BE0374863001A196D
:40148000510001440A46098AD068FFF72FFF0134E4B2082CF1D900240CE02F48A20011194B000344B3F84C20996C586CFFF724FF0134E4B2022CF0D928494FF09040FFF778
:4014C000DBFE0A24264B1C70264A137843F0020313701032137843F002031370224D2B7843F040032B70A2F58632513A137843F01003137008221D491D48FFF7FDFE22460B
:401500001C491D48FFF7F8FE08221C491C48FFF7F3FE22461B491C48FFF7EEFE22461B491B48FFF7E9FE1B4A137843F008031370194C61232370FFF7E3FE8123237001229F
:40154000164B1A70FFF7B2FE0E2229461448FFF7D3FE38BDE8460040D43E00008C0000488358004003500140A0430040880A004802510040900A0048C05100409C0A00486F
:4015800012510040A40A004820510040B00A004830510040224300400048004004000840B043004008B501F087FC03680C2B00D1FEE7FEE708B5094B1A681044084BC31AED
:4015C000802B02DC054B186005E001F075FC0C2303604FF0FF32104608BD00BFD480FF1FF081FF1F08B5104E104D16E029686B68AC68002204E051F8040B43F8040B0432B2
:40160000A242F8D1E868002203E0002143F8041B04328242F9D11035013E002EE6D101F051FCFEF72FFDFEE701000000903F000008B5104A104B1A60104A136843F4007381
:40164000136000230AE0032B03D80D4A52F8231000E00C490C4A42F8231001332F2BF2D90A4B1A780A4B1A70074A0A4B1A60FFF7FBFE08BD0004FA050CED00E014ED00E065
:4016800000000000A51500000080FF1FBC760040C080FF1F08ED00E07222084B1A702022A3F581731A700622623B1A70472210331A70002203F5A7731A7070478B6500403A
:4016C00010B501F0F1FB04460A4A137843F020031370A2F58172137843F010031370FC32137843F01003137001F0C8F9204601F0DFFB10BD9B65004008B5054B1B7823B97A
:40170000FFF7CAFF0122024B1A70FFF7D9FF08BD7081FF1F034B1B7813F0040FFAD1024B18707047656500404765004038B5074B1B782BB938BDFFF7EDFF0134A4B201E011
:4017400005460024285D0028F5D138BD7081FF1F10B50222114B1A7081220E3B1A70082202331A70042211331A70002401331C704FF400420A4B1A6007210F2001F0F4FAF3
:4017800008490F2001F0DCFA1022074B1A70074B1C70074B1C70074B1C7010BDD649004080E100E005180000B581FF1FC581FF1FB881FF1FB981FF1F08B501F075FB064ADB
:4017C000137843F0040313701032137843F00403137001F06DFB08BDA543004008B5074B1B7823B9FFF7B4FF0122044B1A70FFF7E3FF4FF40042024B1A6008BD7281FF1FB4
:4018000000E100E038B5A54B1C78A54B1B7813F0400F00F03A81E4B214F0010F00F01D819F4B1B78453B052B00F21481DFE813F006008200120112010600DF0004F0DF05D5
:4018400004F00A04082C42D1954B1B78DBB2452B35D1944B1B7813F0FF0F10D0924B1B681B78DBB2914A137004228C4B1A7001228F4B1A7046228A4B1A702C46EDE08D4B7C
:401880001B7813F0020F0DD08B4A137843F00A0313706022824B1A704FF40042874B1A602C46DAE0864A137843F0100313701022844B1A700422023B1A702C46CDE00022CE
:4018C000764B1A704A22764B1A702C46C5E00A2C2BD1794A137843F0A0031370754B1B7813F0020F14D06E4B1B7813F0080F01D0092300E00A23704A11780B4313706022A5
:40190000674B1A704FF400426C4B1A602C46A4E06B4A137843F0100313701022694B1A700422023B1A702C4697E0002001F0E6F92C4692E014F0020F36D15D4B1A78D2B2C2
:40194000584B1B78DBB29A4210D2594A1378DBB255490968CB5CDBB254490B7004214F4B197013780133DBB2137076E0514B1B7813F0020F0CD0504A137843F00A031370DC
:401980006022474B1A704FF400424C4B1A6064E04B4A137843F0100313701022494B1A700422023B1A7058E0424B1B7813F0020F0CD0414A137843F09A0313706022384BD3
:4019C0001A704FF400423D4B1A6046E03C4A137843F01003137010223A4B1A700422023B1A70354A137843F09003137035E0364A1378DBB2354908682C490978C9B2C15434
:401A000013780133DBB213701278D2B2304B1B78DBB29A4203D21022204B1A701DE0254B1B7813F0020F0CD0234A137843F00903137060221A4B1A704FF400421F4B1A60D2
:401A40000BE01F4A137843F0100313700022134B1A7002E0002001F051F914F0200F1CD00F4B1B7813F0080F01D0012300E00223114A11780B431370114A137803F0EF03D7
:401A800013701022064B1A7038BD054B1B7813F0100F02D11022024B1A7038BDD7490040B581FF1FBA81FF1FBC81FF1FD8490040B981FF1FC481FF1FC581FF1F80E100E0A2
:401AC000D6490040D9490040B881FF1FC081FF1FC681FF1F1A4B1B78DBB2102B29D1194B1B7813F0080F26D14FF40042164B1A604000C0B229B140F001004922104B1A70DB
:401B000002E045220E4B1A70104B1870012201331A700F4B1B7813F0010FFAD00C4B1B7803F00A030A2B08D11022054B1A700320704702207047012070470020704700BFC6
:401B4000B581FF1FD949004080E100E0D8490040D7490040164B1B7813F0040F23D04000C0B229B140F001004922124B1A7002E04522104B1A70104B1870122201331A709E
:401B80000422023B1A700D4B1B7813F0010FFAD00A4B1B7803F00A030A2B06D11022054B1A7003207047022070470020704700BFD9490040B581FF1FD8490040D7490040B0
:401BC0000A4B1B7813F0040F0ED01023074A13700421023A1170064A1370064B1B7813F0210FFAD00020704702207047D9490040B581FF1FD7490040114B1B7813F0040FA1
:401C00001BD0104B18700422013B1A7046220E4B1A700E4B1B7813F0010FFAD00B4B1B7813F0020F04D16022074B1A70002070476022054B1A70032070470220704700BF01
:401C4000D9490040D8490040B581FF1FD7490040114B1B7813F0040F1BD0104B1B78DBB2492B05D100220E4B1A704A220B4B1A700B4B1B7813F0010FFAD00A4B1B78DBB2AC
:401C800018B11021064A117004E06021034A117000E0002318467047D9490040B581FF1FD7490040D84900400422014B1A60704700E100E00222014B1A60704700E100E0D1
:401CC00008B501F0F1F80C4A137843F020031370013A137843F010031370A2F20112137843F01003137001F0E3F800F0D5FEFFF7DBFFFFF7DFFF08BD976500400422014B63
:401D00001A60704780E100E00222014B1A60704780E100E010B5FFF7F1FF064B1C78064A137803F009031C4300231370FFF7BCFF204610BD66650040D481FF1F10B5FFF7C3
:401D4000E3FF064B1B78064A147804F040041C4300231370FFF7AEFF204610BD65640040E581FF1F10B504462B4B1A7802F0FF0312B1013BDBB200E00723284A1278D2B200
:401D80009342F1D0FFF7BAFF254B1978254A137803F009030B4313701F4B1A78D2B21F4B1B78DBB29A4207D11E4B1B7813F0040F02D01D4B1C702CE0184A13780133DBB2C3
:401DC00013701378DBB2072B02D90022134B1A70124B1A78D2B2104B1B78DBB29A420ED10D4A13780133DBB213701378DBB2072B02D90022084B1A7001220C4B1A70074BE8
:401E00001B78DBB20A4AD4540A4A137843F004031370FFF749FF10BDE181FF1FE381FF1F66650040D481FF1F43640040E081FF1FCC81FF1F8665004010B5FFF765FF134B66
:401E40001A78D2B2124B1B78DBB29A4214D0114B1B7813F0FF0F0CD10C4A13780133DBB213701378DBB2072B06D90022074B1A7002E00022074B1A70044B1B78DBB2064A47
:401E8000D45CE4B2FFF716FF204610BDE481FF1FE281FF1FC881FF1FD881FF1F08B501E0094B1B78094B1B7813F0200FF8D1FFF72BFF0023064A1370064A1370064A137019
:401EC000FFF7F8FE08BD00BF5364004065640040C881FF1FE481FF1FE281FF1F08B500F0E3FF0E4B1A7842F001021A701A7802F0FE021A7000F0DCFFFFF700FF0023084A8B
:401F00001370084A1370084A1370084A137803F0FB031370FFF7C8FE08BD00BF93640040E081FF1FE181FF1FE381FF1F8665004070B506460C46002506E0705DFFF712FF5E
:401F40000135EDB2013CE4B2002CF6D170BD00BF08B501E00A4B1B780A4B1B7813F0200FF8D100F0A1FF084B1A7842F001021A701A7802F0FE021A7000F09AFF08BD00BF22
:401F800053640040656400409364004010B50F22184B1A70184C042323600721022000F0E3FE1649022000F0CBFE022323600721012000F0D9FE1249012000F0C1FEFFF7CB
:401FC000C7FF00240F4B1C700F4B1C700F4B1C700F4B1C700F4B1C700F4B1C70FFF79AFEFFF7ACFE0D4B1C702022A3F201131A7010BD00BF8765004080E100E03D200000B6
:40200000DD200000C881FF1FE481FF1FE281FF1FE081FF1FE181FF1FE381FF1F8665004008B5054B1B7823B9FFF7B0FF0122024B1A70FFF745FE08BD7381FF1F28E01F4BEF
:4020400019781F4A137803F009030B431370137813F0040F24D01B4B1B7813F0FF0F0CD1194A13780133DBB213701378DBB2072B06D90022144B1A7002E00022114B1A703F
:40208000114B1B78DBB2114AD35CDBB2104A13700D4B1A78D2B20F4B1B78DBB29A42CED1094B1A78D2B20B4B1B78DBB29A4204D1094A137803F0FB031370704766650040A8
:4020C000D481FF1FE081FF1FE181FF1FCC81FF1F43640040E381FF1F86650040204B1A7820490B7803F0400313430B7032E01E4B1A78D2B21D490B780133DBB20B700B7846
:40210000DBB2072B02D90021184B1970174B1978C9B2174B1B78DBB299420ED114490B780133DBB20B700B78DBB2072B02D900210F4B197001210F4B19700C4B1B78DBB295
:402140000D49CA54064B1A7806490B7803F0400313430B70034B1B7813F0200FC7D1704765640040E581FF1F53640040E281FF1FE481FF1FC881FF1FD881FF1F044A13788E
:4021800003F0EF03000100F0100018431070704720510040024A137843F080031370704777640040024A137803F07F031370704777640040014B1870704700BF066400407F
:4021C000014B1870704700BF46640040014B1870704700BF26640040014B1870704700BF87640040014B1878704700BF67640040014B1878704700BF5664004008B501E0DB
:40220000FFF7F6FFFFF7EEFF10F0100FF8D108BD08B5124A137803F0C00343F00B0313701F32137843F001031370FF20FFF7C2FFFF20FFF7C5FF0020FFF7C8FF0020FFF7CD
:40224000CBFF00F031FE064A137843F01003137000F02EFEFFF7D2FF08BD00BF776400409764004008B5054B1B7823B9FFF7D0FF0122024B1A70FFF78DFF08BD7481FF1F7F
:40228000024A137843F080031370704776640040024A137803F07F031370704776640040014B1870704700BF05640040014B1870704700BF45640040014B1870704700BF2D
:4022C00025640040014B1870704700BF35640040014B1870704700BF86640040014B1878704700BF66640040014B1878704700BF5564004008B501E0FFF7F6FFFFF7EEFF6B
:4023000010F0100FF8D108BD08B5134A137803F0C00343F01B0313701F32137843F001031370FF20FFF7BCFFFF20FFF7BFFF0020FFF7C2FF0020FFF7C5FF0020FFF7C8FFFA
:4023400000F0B2FD054A137843F01003137000F0AFFDFFF7CFFF08BD766400409664004008B5054B1B7823B9FFF7CEFF0122024B1A70FFF785FF08BD7581FF1F10B59DF8BC
:402380000840012C51D1013809282ED8DFE800F0052D2D052D2D0F192D230F2B03D92548007840B222E02448007840B21EE00F2B03D92248007840B218E02148007840B2B1
:4023C00014E00F2B03D91F48007840B20EE01E48007840B20AE00F2B03D91C48007840B204E01B48007840B200E0002001EB401101FB02F1C90B8AB20D2B0BD8C3F10E02AA
:4024000089B211418AB2611E124800EB810101338B7005E0631E0F4901EB83030F219970013C0C4B23F8242010BD002000F066FC10BD00BF180100491C010049190100490C
:402440001D0100491A0100491E0100491B0100491F0100497881FF1FF8B5074600F024FD06460D4D2B7843F003032B700B4C237843F0030323700A4B1F70032000F056FC15
:402480002B7803F0FC032B70237803F0FC032370304600F00DFDF8BDF8460040F9460040925800400022324B1A7101285FD170B53822304B1A70042202331A700622013338
:4024C0001A70002401331C7001331C703F2201331A7002331C7001331C7001331C7001250A331D70502203F527631A700A2201331A702C2201331A7001331C70442203338E
:402500001A70482201331A7001331D7002331D70112201331A70192201331A70972201331A705220FFF798FF5822134B1A7001331C70052605331E70022201331A700133DD
:402540001C7001331C70204600F0C4FA43F233320A4B1A602946304600F0E0FA2946252000F060FB06491D2000F0EAFB70BD70477881FF1F004E004094580040E881FF1F47
:4025800051280000F0B583B0284D01272F70284E00247471102000F0AFFA102000F030FB07211D2000F0E0FB0422224B1A7001331C7007331C70204A137843F01803137062
:4025C0001E4B1C7003F2F5231C7001331C700A22A3F209331A7001331C7002331C705B2205331A705E2201331A7004331C701422A3F68C231A70009710234FF4004248F6B0
:40260000F0510220FFF7BAFE2B78013B06EB83039A780B4B1A702B78013B36F82320094B1A802878FFF73EFF03B0F0BDD880FF1F7881FF1F96580040075B00409358004048
:402640000E4E00400C4E004070B500F02DFC06462A4B1B782A4B1A7842F001021A701A7842F010021A7010331A7842F001021A701A7842F010021A70224D2B7843F002032E
:402680002B70214C237843F0020323701F4A137843F003031370032000F048FB2B7803F0FD032B70237803F0FD032370184A137843F0060313707A22164B1A70164A137836
:4026C00043F0010313701032137843F0010313700F3A137843F0010313701032137843F0010313704FF000530C4A1360A2F5C0721360304600F0DCFB70BD00BFD880FF1F4E
:40270000AA430040F8460040F9460040915800407758004082580040A143004080E200E008B5084B9B794BB9064BDB7913F0FF0F01D1FFF727FF0122024B9A71FFF784FFF7
:4027400008BD00BF7881FF1F024A137843F0010313707047004E0040024A137803F0FE0313707047004E0040094B1B7913F0FF0F03D0074B5B79DBB203E0064B1B7803F01C
:402780000103012B01D00028EED01846704700BF7881FF1F014E0040154B1B7803F00303012B07D8134B1888023B1B889BB243EA004013E0022B0AD10E4B1888023B1B7865
:4027C00043EA00430C4A107843EA002006E00B4B188883B2074A108843EA0040084B1B7913F0FF0F02D00022054B5A71704700BF144E0040124E0040114E0040104E0040DB
:402800007881FF1F064B9B68C01A4FF47A7303FB00F0044B1B6890FBF3F000B2704700BF7881FF1FE881FF1F10B5084A137843F004031370FFF788FF0020FFF795FFFFF7B3
:40284000ABFF0446FFF788FF204610BD014E0040704700BF024A137843F080031370704774650040024A137803F07F031370704774650040014B1870704700BF84640040BE
:40288000014B1878704700BF64640040014B1870704700BF24640040014B1878704700BF44640040014B1870704700BF04640040024B1B78024B1878704700BF04640040A5
:4028C0004464004008B501E0FFF7E6FFFFF7D8FF10F0080FF8D108BD08B51320FFF7D6FF1320FFF7DFFF00F0DFFA064A137843F01003137000F0DCFAFFF7E4FF0020FFF721
:40290000B9FF08BD9464004008B5054B1B7823B9FFF7E2FF0122024B1A70FFF79BFF08BD8481FF1F024B1878C0F38000704700BF21510040024A137843F08003137070471E
:402940007A650040024A137803F07F03137070477A650040014B1870704700BF0A650040014B1870704700BF4A650040014B1870704700BF2A650040014B1870704700BFFE
:402980008A650040014B1878704700BF6A650040014B1878704700BF5A65004008B501E0FFF7F6FFFFF7EEFF10F0100FF8D108BD10B5114A137803F0C00343F009031370FA
:4029C0000E4C237843F001032370FF20FFF7C2FFFF20FFF7C5FF0020FFF7C8FF0020FFF7CBFF00F061FA237843F01003237000F05FFAFFF7D3FF10BD7A6500409A650040B1
:402A000008B5054B1B7823B9FFF7D2FF0122024B1A70FFF78FFF08BD8581FF1F014B1B681864704708ED00E04001C0B2014B1870704700BF00E400E00122014B1A607047B4
:402A400000E100E00122014B1A60704780E100E010B50446FFF7F6FF2046FFF7DFFF0720FFF7E2FFFFF7E8FF10BD00BF024B1878C0F38000704700BF31510040054A1378F7
:402A800043F0040313701032137843F004031370704700BFA2430040054A137843F0020313701032137843F002031370704700BFA243004010B5002404E02046FEF7C6FC92
:402AC0000134E4B2012CF8D9FF22014B1A7010BDD980FF1F10B50446FFF7ECFF2046FEF7A7FC014B1C7010BDD980FF1F014B188880B2704780400040034B1A7800F0F8002B
:402B000010431870704700BF82400040024B187800F00700704700BF8240004070B505460E46FFF7F3FF0446FFF7E0FFA84256D02B4B1B7803F0010294B900B185B938B9EF
:402B4000284B1D80284A137803F0BF03137070BD254A137843F040031370224B1D8070BD22B3002321490B7001240F310C7004310B700C390B7803F07F030B701A4B1B789B
:402B800013F0080F00D08DB9194B18800721013B1970164B1B7813F0010FFAD110490B7803F0FE030B700021104B19700C4B1B7813F0010F0DD00E4B1D800EB1032200E046
:402BC00001220A4B1A70094B1B7813F0010FFAD170BD044B1D8002490B7813430B7070BDA243004080400040824000400140004002400040014B188880B2704700410040A9
:402C0000034B1A7800F0F80010431870704700BF02410040024B187800F00700704700BF0241004070B505460E46FFF7F3FF0446FFF7E0FFA84256D02B4B1B7803F0010251
:402C400094B900B185B938B9284B1D80284A137803F0BF03137070BD254A137843F040031370224B1D8070BD22B3002321490B70012413310C7004390B7008390B7803F05A
:402C80007F030B701A4B1B7813F0080F00D08DB9194B18800721013B1970164B1B7813F0010FFAD110490B7803F0FE030B700021104B19700C4B1B7813F0010F0DD00E4BB1
:402CC0001D800EB1032200E001220A4B1A70094B1B7813F0010FFAD170BD044B1D8002490B7813430B7070BDA14300400041004002410040014000400240004001BE704726
:402D000010B5044605E0084B186800F0C5F8A4F50044B4F5004FF6D8034B586800FB04F000F0BAF810BD00BFDC80FF1F08B5034B1B7A00FB03F000F0AFF808BDDC80FF1F73
:402D400070B504460E46074B1D681F2802D90020FFF7D4FF04F01F04103455F8240045F8246070BD08ED00E038B504460D46072902D90020FFF7C2FF1F2C02D90020FFF777
:402D8000BDFF04F01F0000F1604000F564406D01EDB2057038BD00BF024A137843F080031370704778640040014B1870704700BF88640040014B1878704700BF686400402D
:402DC000014B1870704700BF28640040014B1878704700BF48640040014B1870704700BF0864004008B501E0FFF7F0FFFFF7E2FF10F0080FF8D108BD08B50120FFF7E0FFD7
:402E00000120FFF7E9FF00F04FF8064A137843F01003137000F04CF8FFF7E4FF0120FFF7C3FF08BD9864004008B5054B1B7823B9FFF7E2FF0122024B1A70FFF7ADFF08BD1D
:402E40008681FF1F014B1B68D864704708ED00E04001C0B2014B1870704700BF03E400E00822014B1A60704700E100E00822014B1A60704780E100E010B50446FFF7F6FF88
:402E80002046FFF7DFFF0720FFF7E2FFFFF7E8FF10BD00BF000000000230800803D000BF01380046FCD17047EFF3108072B6704780F31088704700BF014B1868704700BF0E
:402EC0004C81FF1F0E4B70B51E460E4C0025E41AA410A54204D056F8253098470135F8E701F044F8084B094C1E46E41AA4100025A54204D056F8253098470135F8E770BDF3
:402F0000783F0000783F0000783F0000803F000010B5431E0A44914204D011F8014B03F8014FF8E710BD03460244934202D003F8011BFAE7704700000EB400B54FF4027134
:402F40009CB0ADF814106FF00041049107914FF6FF711DAB02900690084853F8042BADF81610006802A9019300F064F8029B00221A701CB05DF804EB03B070474C81FF1F94
:402F80002DE9F0478E6882469E420C46914698463ED88A8912F4906F3AD02568096902236F1A656905EB450595FBF3F57B1C43449D4238BF1D4653050FD5294600F040FB8D
:402FC000064698B13A462169FFF7A2FFA38923F4906343F08003A38113E02A4600F08EFB064670B92169504600F0DEFA0C23CAF80030A3894FF0FF3043F04003A381BDE858
:40300000F08726613E44266046466561ED1BA560464528BF464649463246206800F0A8FAA36800209B1BA36023681E442660BDE8F08700002DE9F04F9DB003938B89804687
:403040001C060D4616460DD50B695BB9402100F0F7FA2860286118B90C23C8F80030CDE040236B610023099320238DF82930DFF89CB130238DF82A3037463C4614F8013B79
:403080001BB9B7EB060910D003E0252BF9D02746F3E74B46324629464046FFF771FF013000F0A780099B4B4409933B78002B00F0A08000234FF0FF3204930793059206930B
:4030C0008DF853301A930126052221784E4800F041FA671C049B38B14B4A3C46801A06FA00F018430490EFE7D90644BF20228DF853201A0744BF2B228DF8532022782A2A8F
:4031000003D0079A00210A200BE0039A111D12680391002A10DA524243F00200079204900BE027463B780134303B092B03D800FB02320121F5E701B107923B782E2B1ED1D5
:403140007B782A2B0AD1039B02371A1D1B680392002BB8BF4FF0FF33059310E0002319460593781C0A2407463A780130303A092A03D804FB01210123F5E703B10591032257
:403180003978224800F0E6F940B14023CBEB000003FA00F0049B013718430490397806221B487E1C8DF8281000F0D4F988B1194B33B9039B073323F007030833039314E0D5
:4031C00003AB00932A46144B04A94046AFF3008007E003AB00932A460F4B04A9404600F093F8B0F1FF3F824603D0099B5344099342E7AB895B0601D4099801E04FF0FF30F6
:403200001DB0BDE8F08F00BF383F00003E3F0000423F000000000000812F00002DE9F04791461F460A698B6806469342B8BF1346C9F8003091F843200C46DDF8208012B172
:403240000133C9F800302368990642BFD9F800300233C9F80030256815F0060510D104F1190A07E00123524639463046C04701301AD00135E368D9F800209B1A9D42F1DBB5
:4032800094F843302268003318BF012392060FD5E118302081F843005A1C94F845102244023382F8431003E04FF0FF30BDE8F08704F1430239463046C0470130F4D02268F5
:4032C000D9F80050E36802F00602042A08BF5D1B2269A3680CBF25EAE57500259342C4BF9B1AED184FF000091A344D4509D00123224639463046C0470130D5D009F1010997
:40330000F3E70020BDE8F0872DE9F04317460A7E85B06E2A984606460C460C9B01F1430E00F0AE8011D8632A22D009D8002A00F0BB80582A40F0CA8081F84520834955E07F
:40334000642A1ED0692A1CD0C0E0732A00F0B08009D86F2A2ED0702A40F0B8800A6842F020020A603EE0752A24D0782A3AD0ADE01A6801F14205111D1960136884F8423096
:40338000A8E021681A6811F0800F02D0111D196008E011F0400F02F10401196002D0B2F9003000E01368002B3CDA2D225B4284F8432037E021681A6811F0800F02D0111D02
:4033C000196007E011F0400F02F10401196001D0138800E01368227E5C496F2A14BF0A2208221BE078225A4984F845202268186812F0800F00F104051D6003D1550601D5AE
:40340000038800E00368D00744BF42F0200222601BB9226822F0200222601022002084F8430001E049490A226568002DA56008DB206820F0040020602BB9002D7DD175462A
:403440000CE0002B79D07546B3FBF2F002FB1033CB5C05F8013D03460028F5D1082A0BD12368DA0708D5236962689A42DEBF302305F8013C05F1FF35C5EB0E0323612EE098
:4034800008681A6810F0800F496903D0101D1860136808E010F0400F02F104001860136801D0198000E0196000232361754616E01A68111D1960156800216268284600F0BB
:4034C00049F808B1401B6060636804E004F1420584F8422001232361002384F84330CDF800803B4603AA21463046FFF797FE013002D14FF0FF3026E023692A4639463046F0
:40350000C0470130F5D023689B0710D5002504F1190907E001234A4639463046C0470130E7D00135E368039A9B1A9D42F2DBE068039B9842B8BF184605E00B7804F1420509
:4035400084F842308AE705B0BDE8F083493F00005A3F000010B5C9B202449042034605D01C7801308C42F8D1184610BD002010BD884210B501EB020301D8421E0BE0984296
:40358000FBD28118D21AD34204D013F8014D01F8014DF8E710BD994204D011F8014B02F8014FF8E710BD000038B50546002944D051F8043C0C1F002BB8BFE41800F0D4F807
:4035C0001E4A1368114613B96360146030E0A3420DD92268A018834201BF18685B681218226063600C6023E0A24203D813465A68002AF9D118681918A1420BD121680144BF
:4036000058188242196013D110685268014419605A600DE002D90C232B6009E021686018824201BF106852680918216062605C602846BDE8384000F098B838BD8C81FF1F22
:4036400070B5CD1C25F0030508350C2D38BF0C25002D064601DBA94202D90C23336046E000F082F8234B1C681A462146A1B10B685B1B0ED40B2B03D90B60CC18CD501EE0C2
:403680008C420BBF63684B681360636018BF0C4615E00C464968E9E7174C23681BB9304600F052F820602946304600F04DF8431C18D0C41C24F00304A0420DD125603046C4
:4036C00000F053F804F10B00231D20F00700C31A0ED05A42E25070BD211A304600F034F80130EBD10C233360304600F03EF8002070BD00BF8C81FF1F8881FF1FF8B5074612
:4037000015460E4621B91146BDE8F840FFF798BF1AB9FFF749FF2846F8BD00F027F885420ED929463846FFF78BFF044650B131462A46FFF7EDFB31463846FFF735FF01E011
:403740003046F8BD2046F8BD38B5064C0023054608462360FDF72EFF431C02D1236803B12B6038BDEC81FF1F7047704751F8040C0028BEBF091851F8043CC0180438704707
:4037800000000000434F4E54524F4C20524547495354455220313A203078253032580D0A000000004572726F72206F6363757272656420647572696E672049324320636F20
:4037C0006D6D20746F207265616420636F6E74726F6C20726567697374657220310D0A00434F4E54524F4C2052454749535445522031207375636365737366756C6C7920C6
:403800007772697474656E2061733A203078253032580D0A000000004572726F72206F6363757272656420647572696E672049324320636F6D6D20746F2073657420636F5A
:403840006E74726F6C20726567697374657220310D0A0000434F4E54524F4C20524547495354455220333A203078253032580D0A000000004572726F72206F636375727283
:40388000656420647572696E672049324320636F6D6D20746F207265616420636F6E74726F6C20726567697374657220330D0A00434F4E54524F4C20524547495354455277
:4038C0002033207375636365737366756C6C79207772697474656E2061733A203078253032580D0A000000004572726F72206F6363757272656420647572696E6720493252
:403900004320636F6D6D20746F2073657420636F6E74726F6C20726567697374657220330D0A0000434F4E54524F4C20524547495354455220353A203078253032580D0A06
:40394000000000004572726F72206F6363757272656420647572696E672049324320636F6D6D20746F207265616420636F6E74726F6C20726567697374657220350D0A00A2
:40398000434F4E54524F4C2052454749535445522035207375636365737366756C6C79207772697474656E2061733A203078253032580D0A000000004572726F72206F63B2
:4039C00063757272656420647572696E672049324320636F6D6D20746F2073657420636F6E74726F6C20726567697374657220350D0A0000434F4E54524F4C205245474906
:403A00005354455220363A203078253032580D0A000000004572726F72206F6363757272656420647572696E672049324320636F6D6D20746F207265616420636F6E747221
:403A40006F6C20726567697374657220360D0A00434F4E54524F4C2052454749535445522036207375636365737366756C6C79207772697474656E2061733A2030782530C0
:403A800032580D0A000000004572726F72206F6363757272656420647572696E672049324320636F6D6D20746F2073657420636F6E74726F6C207265676973746572203626
:403AC0000D0A00004649464F20434F4E54524F4C2052454749535445523A203078253032580D0A004572726F72206F6363757272656420647572696E672049324320636FD3
:403B00006D6D20746F2072656164204649464F20636F6E74726F6C207265676973746572200D0A004649464F20434F4E54524F4C205245474953544552207375636365733B
:403B40007366756C6C79207772697474656E2061733A203078253032580D0A004572726F72206F6363757272656420647572696E672049324320636F6D6D20746F207365BE
:403B800074204649464F20636F6E74726F6C207265676973746572200D0A0000494E543220434F4E46494755524154494F4E2052454749535445523A203078253032580DE8
:403BC0000A0000004572726F72206F6363757272656420647572696E672049324320636F6D6D20746F207265616420494E543220434F4E46494755524154494F4E2052453C
:403C0000474953544552200D0A000000494E543220434F4E46494755524154494F4E205245474953544552207375636365737366756C6C79207772697474656E2061733A45
:403C4000203078253032580D0A0000004572726F72206F6363757272656420647572696E672049324320636F6D6D20746F2073657420494E543220434F4E46494755524148
:403C800054494F4E205245474953544552200D0A00000000494E5432204455524154494F4E2052454749535445523A203078253032580D0A000000004572726F72206F63F2
:403CC00063757272656420647572696E672049324320636F6D6D20746F207265616420494E5432204455524154494F4E205245474953544552200D0A00000000494E543291
:403D0000204455524154494F4E205245474953544552207375636365737366756C6C79207772697474656E2061733A203078253032580D0A000000004572726F72206F631E
:403D400063757272656420647572696E672049324320636F6D6D20746F2073657420494E5432204455524154494F4E205245474953544552200D0A004F7665722074687273
:403D80006573686F6C6420646174613A2025642025642025642025642025642054696D657374616D703A202564207365636F6E64730D0A00416363656C65726174696F6E9C
:403DC00020646174613A202564202564202564200D0A20506172616D65746572733A203078253032582028307825303258290D0A0A00000020454550524F4D2052656164EB
:403E000020506172616D6574657273203D203078253032582028307825303258290D0A002A2A415454454E54494F4E3A20506F736974696F6E206F6620706F74656E74696A
:403E40006F6D65746572206368616E67656420647572696E6720726561642D6F6E6C79206D6F64616C6974792A2A0D0A0A0000002A2A2A2A5741524E494E473A20636F6E28
:403E800066696775726174696F6E206D656E7520697320696E20726561642D6F6E6C79206D6F64616C6974792A2A2A2A0D0A000020454550524F4D2052656164205061724E
:403EC000616D6574657273203D203078253032580D0A0A00035B00402443004040000000C84900401900405100403000F0510040100000000140800200030140000D801483
:403F00000140800700400140000A004C014000020050014020000000605200408009004806008002014088090048800000140140080A004880004300232D302B2000686CF8
:403F40004C00656667454647003031323334353637383941424344454600303132333435363738396162636465660000F8B500BFF8BC08BC9E4670474D00000031160000DA
:403F8000F8B500BFF8BC08BC9E46704729000000A03F0000C880FF1F88000000A0000000000000000100000012000000F081FF1F01FF00000000E02EC05D00001800000007
:403FC00000366E010000000000000000000000000000000000000000000000000000000000000000363F0000000000000000000000000000000000000000000000000000A7
:40400000000000000000000000000000000000000000000000000000000000000000000000000000EC80FF1F000000000000000000000000000000000000000000000000F6
:404040000000000000000000000000000000000000000000000000000000000000000000000000000000000000000000000000000000000000000000000000000000000040
:404080000000000000000000000000000000000000000000000000000000000000000000000000000000000000000000000000000000000000000000000000000000000000
:4040C00000000000000000000000000000000000000000000000000000000000000000000000000000000000000000000000000000000000000000000000000000000000C0
:40410000000000000000000000000000000000000000000000000000000000000000000000000000000000000000000000000000000000000000000000000000000000007F
:020000040003F7
:0200000480007A
:4000000004520040056400400465004011020140320301405D04014043050140620601404E0701405208014037090140020B0140040C0140030D0140161401405D1501407A
:400040004A1601404E17014021190140501A0140511B014005400140094101400B42014006430140024401400745014006460140034701400E4801401A4901400E4C01403B
:400080000A4D014007500140025101400040110218A01920840D860F870D880D8938850F870F8A0D8B7204040E08140418081C012004240328082C03300432013408360272
:4000C0003E0158045C045F01005C0108020204040702080209800A980C200E111114138116A9181019A01A041D101E211F0121202204280229082B0831A0320438403914E7
:400100003A824101421443084602478048044A024B05500852508501C0A7C2EFC4FFCA0ECC0ECE0FD007D20CE208E6020001040C05050602070A0A100C080D090F06110218
:400140001201130D140216041A101C012008240129032A012B0C2C01300E310F320136103A023B023E44403645EC4702481349FF4AFF4BFF4F0150185401580459045A0491
:400180005B045C115D665F016040624064406540668068806A806C806E8081018502890193019F04A502B301B502B704C040C101C5D0C652C741C83FC9FFCAFFCBFFCDA056
:4001C000CF04D018D440D604D904DA04DB04DC40DD14DF01E040E2C0E440E540E6C0E8C0EAC0ECC0EEC0004402800308082009800A90100811041240138018401948210268
:400200002408272228042C242E103102374238443E2A40204540470249054A084C204D015208530854805540562B59456508661067418510868087408F2092089306944493
:400240009514969099B09A509E299F82A008A210A420A580A810C00FC20FC40FCA44CC91CEEAD092D204D60BD8F0E610030504010901130218011901230228012B0430011F
:400280003304350237013F144010410245D046104702481B49FF4AFF4BFF4DA04F04501852805407580459045A045B045C445D445F01604062C06440654066C068C06AC051
:4002C0006CC06EC08603881489208B058C0C8D138E718F0490DC9222970898109A409D139F0CA010A103A2ACA304A620A809AAD0AD0AAF14B0E0B330B41FB70FB908BA02A3
:40030000BB80C004C504C9FFCA07CBFFCC40CD20CEF0CF05D008D280D405D804D904DA04DB04DC22DD42DF01E040E1A8E240E32000200322040808010B080C201008129070
:400340001320160818801B221E8021402280232025402718280129402B802C802F083008328036203702388039203E224204431146064B084D024E20511052105624570833
:4003800059025A445D015EA05F087340774080218504904891019208930694049514969099A09A489B029C209FC0A0A0A102A210A580A808AB01B510C027C24AC44ECAA9C3
:4003C000CCAACEACD031D6FBE208EA400004034004080720080809090B060C080F401320151216011705180719041B181C061E0120022401251F26062806291F2A012C0650
:400400003140331C34083503360737203A803F41401545EC4602480749FF4AFF4BFF4F015018528054015604580459045A045B045C225D665F016040624064406540668001
:4004400068806A806C806E808A028B018D018F0292029601AF04B202B302B401B501B704BE04D418D804D904DB04DC54DD20DF0103080408066807010BA00C080D100E0260
:4004800015021602171419041B201C041E0620102160244025802608272829802C202E2836023728381039803C023D283F8047404F8557405A015C405F05618062106502C3
:4004C0007401774084048608A520C0F2C2ECC4F0CA68CCE0CEFCD010D210D6D1D88CA520B44039023F0159045F0124408520E60289038A038B048D048E038F0992029401FF
:4005000099059B0A9D0EB003B10FB603B902D401D804D904DB04DC11DD20DF010010029003020440051009090A020B080E90110812011321181019421A061E801F8020047C
:4005400021082340274029403288330235103740388139083A103C403E1040044108428048084A025080520159025B015C205F4A7001801081048284830186048792880140
:4005800089088B088C8190C09108921093289422982099109A109B289C019D409E049F01A008A101A28AA302A708A820AB80AD20AE02AF02B040B140B240B310C0CFC23F73
:4005C000C40FCA08CC3BCE3FD007D20CD6F0E002E205EA05EE20090219022401250128012C013001310235013F1054095604580459045B045C445D105F0180048401850186
:400600008612870689078C1A8E05901292049301940795029608981299089C169D06A106A301A412A604A804A904AA12AC16AD07B107B207B41DB508BA20BF10C012C1041B
:40064000C50BC6ECC80DC9FFCAFFCBFFCEF0CF44D00CD602D72CD804D904DA04DB04DC21DD12DF01E6C0EA40EB020044024009800A981114138016201750180419101A10CC
:400680001E402088274828852F103040320233283620371038203A043E20415043024810504053905D805F1661026602670269146A806B8071808404884C8C808D01904019
:4006C00091A89208930E9406951496D099A09A709B209D409F81A142A2AAA322A410A580A780AA08AE02AF40B602C00DC20FC4E7CA4DCC2FCE26D00DD6F0D891E208E405B7
:40070000E602EA86EC126580664085808A028E0190049408952296019780980499049B089E529F15A201A420A514A602A708AB08AC08AD80AE04AF10B102B720E020E210AB
:40074000E425E602EAC8EC1007030A02110112012A0230023102320137014030410545D046024701481649FF4AFF4BFF4DA04F04501852805405580459045A045B045C3337
:400780005D335F01604062C06440654066C068C06AC06CC06EC08118860C876388088B048D10917C9301940C9540980E991C9B629C029D089E0CA004A17FA201A40EA5671B
:4007C000A718A802A960AA0CAD24B002B201B31FB578B60CBB28BE01D602D710D804D904DB04DC22DD20DF010308040407080B400C040E0E12041504168017141B091C201D
:400800001E412102224027142C042D062E8031023480360137183A043CA43E02430849014B805204534059055A805E406C246F017340744075887608810282048314861086
:400840008701888089118A0C8D148E8090049408952296019780980499049A029B089D889E109F15A201A420A514A708B108B202C062C2E8C472CAF0CCF1CEF2D002D20854
:40088000D61BE220E468E610EA853120320434083640CCF05F026302852096089C08A520A640D6C0E2103E1086408C0196089C08A640A701AB02CE20E640EE8090019618E0
:4008C0009A029C08A701B6027C20DE0100080302594084049C20C00AD40145029D40A302B420D001E8029D40A302A5022704802081018404900196189A029F04A701B00820
:40090000B704C820E4A0E640110214206001668274047B02870190019A829C20A004A302A501A701AA10AB02AE04B280C430D6C0D880DC80DE20E610EAA0EE101328150404
:400940007B087F208328850488049D40AF02B502C40EDE03E004EC081020740485408C209D40A004AB28C408DE04E608007608120A560C74105E1A561C0C00FF03C0000084
:400980008280000043000000004D00000A4D1000010D00405672090804008000071038600402000D844D0000600000008412006480010432844D000000007F70800F080098
:4009C00008000028000050006503200004BEFC0D1FFFFFFF2200F008040000000000000004040400110100010000C00040011011C001001140014001000000000000000055
:400A0000000000000000000031000604000013020000800131000E010001400040000004000008002C010300400000000000400000000C00000080013001400080060F00D5
:400A40000A008008000011114503060002000CE024FFFFFF62A0F0410C0080000000000004040404226200010000000000004002001030100010101200000000000000004D
:400A800000000000000000000060600060000000930050808300830000000000000B0B0000000000140001161200020000000000E00004E0E000E00008000000250018018E
:400AC00000000000000000000000000000000000000000000000000000000000000000000000000000000000000000000000000000000000000000000000000000000000F6
:400B000000000000000000000000000000000000000000000000000000000000000000000000000000000000000000000000000000000000000000000000000000000000B5
:400B40000000000000000000000000000000000000000000000000000000000000000000000000000000000000000000000000000000000000000000000000000000000075
:400B80000000000000000000000000000000000000000000000000000000000000000000000000000000000000000000000000000000000000000000000000000000000035
:0200000490006A
:0400000000004005B7
:0200000490105A
:04000000BC90ACAF55
:0200000490303A
:02000000DE58C8
:0200000490402A
:4000000000000000000000000000000000000000000000000000000000000000000000000000000000000000000000000000000000000000000000000000000000000000C0
:400040000000000000000000000000000000000000000000000000000000000000000000000000000000000000000000000000000000000000000000000000000000000080
:400080000000000000000000000000000000000000000000000000000000000000000000000000000000000000000000000000000000000000000000000000000000000040
:4000C0000000000000000000000000000000000000000000000000000000000000000000000000000000000000000000000000000000000000000000000000000000000000
:0200000490501A
:0C00000000012E16106900012E30EEC128
:00000001FF