:400000000080002011000000510C0000510C000008B5044B1A6803F53F5302331A6000F037FE00BFFA46004010B5054C237833B9044B13B10448AFF300800123237010BD88
:400040005081FF1F00000000F0200000084B10B51BB108490848AFF300800848036803B910BD074B002BFBD0BDE81040184700BF000000005481FF1FF0200000C880FF1FD2
:4000800000000000F0B5C3B062B600F01BFA00F087FE00F00BFB01F00DFBA04801F032FB01F098FB00229E4B1A60052001F052FA0DF1D3022021182000F00AFA48B99DF860
:4000C000D320984935A801F0EFFB35A800F082FE02E0954800F07EFE9DF8D330572B14D057228DF8D3202021182000F041FA48B99DF8D3208D4935A801F0D6FB35A800F09E
:4001000069FE02E08A4800F065FE0DF1D2022221182000F0DDF948B99DF8D220854935A801F0C2FB35A800F055FE02E0824800F051FE9DF8D230022B14D002228DF8D2200F
:400140002221182000F014FA48B99DF8D2207B4935A801F0A9FB35A800F03CFE02E0784800F038FE0DF1D1022321182000F0B0F948B99DF8D120734935A801F095FB35A815
:4001800000F028FE02E0704800F024FE9DF8D130882B14D098228DF8D1202321182000F0E7F948B99DF8D120684935A801F07CFB35A800F00FFE02E0654800F00BFE34AA17
:4001C0002421182000F084F948B99DF8D020614935A801F069FB35A800F0FCFD02E05E4800F0F8FD9DF8D030402B14D040228DF8D0202421182000F0BBF948B99DF8D0201E
:40020000564935A801F050FB35A800F0E3FD02E0534800F0DFFD0DF1CF022E21182000F057F948B99DF8CF204E4935A801F03CFB35A800F0CFFD02E04B4800F0CBFD9DF8FE
:40024000CF30402B14D040228DF8CF202E21182000F08EF948B99DF8CF20444935A801F023FB35A800F0B6FD02E0414800F0B2FD0DF1CE023421182000F02AF948B99DF8D0
:40028000CE203C4935A801F00FFB35A800F0A2FD02E0394800F09EFD9DF8CE302A2B14D02A228DF8CE203421182000F061F948B99DF8CE20314935A801F0F6FA35A800F0AE
:4002C00089FD02E02E4800F085FD154B1B68012B03D100F071F92B4B18602A4B1B68012B00F0B880022B00F0D080002BEDD101F083F9FF2001F094F901F0DCF90DF10B0206
:400300002F21182000F0E4F80028DED19DF80B3013F0040F40F08980D7E700BFA10500008C81FF1FF4200000142100005021000088210000C4210000E42100002022000096
:400340005822000094220000B4220000F0220000282300006423000084230000C0230000F8230000342400005424000094240000CC2400000C250000342500007C2500004B
:40038000BC250000CC80FF1F04EB4402530003AA134406222821182000F0B8F8002841D162001319590042AB194411F8FC3C11F8FB5C43EA052545F30B156D00002DB8BF51
:4003C0006D422DB211F8FA3C11F8F96C43EA062646F30B167600002EB8BF764236B211F8F83C2244510042AA114411F8F77C43EA072747F30B177F00002FB8BF7F423FB215
:400400003A463146284600F05DF9009733462A462B4935A801F048FA35A800F0DBFC052001F098F80134E4B200E000241F2CABD900228DF8CF202E21182000F099F80A205D
:4004400001F088F840228DF8CF202E21182000F08FF83AE701F0D0F8002001F0E1F801F029F900F029F9FF2000F0FCFFFF2000F0FFFFFF2001F002F8FF2000F07FFF002080
:4004800000F082FF00F012F91FE701F0B5F87F2001F0C6F801F00EF900F00EF9FF2000F0E1FFFF2000F0E4FFFF2000F0E7FFFF2000F064FF002000F067FF00F0F7F804E767
:4004C0000426000008B500F0DDFC002008BD00BFF8B506460D461746002100F04FFE044668B9284600F0DCFE044640B90121304600F084FE044610B900F0FEFE387000F01A
:40050000B3FE201C18BF0120F8BD00BF2DE9F04180460C4616461F46002100F02FFE0546F0B944F0800000F0BBFE0546C0B90121404600F063FE054650B111E0C4EB0608FC
:40054000012000F0D9FE07F80800013CE4B200E03446012CF2D8013E002000F0CDFEB85500F082FE281C18BF0120BDE8F08100BF70B50D461646002100F000FE044640B99A
:40058000284600F08DFE044618B9304600F088FE044600F069FE201C18BF012070BD00BF0122034B1A60034A13680133136070478C81FF1F9081FF1F08B501F019F9374BDD
:4005C00018600022364B1A6006E001F011F9334B58601A68801A986000F0FEFF0028F4D02E4B9B68962B0EDD2E4A1268012A0AD800232D4A1360294A93605360136002227E
:40060000284B1A6047E0962B0DDD264B1B68022B09D10023244A1360204A936053601360204A136037E0204B1B68022B18D101F0DFF81A4B1B68C01A1A4A526890420FDA1E
:40064000184B1B68012B0BD1144A00235360936015490B6012490B601360124A13601AE0114B1B68022B16D101F0C2F80B4B1B68C01A0C4A526890420DDA0A4B1B6853B99C
:40068000064A5360936008490B6005490B6013600122044B1A60034B186808BD6C81FF1F8C81FF1FD080FF1F9081FF1F08B500F033FF00F0B3FE08BD08B500F0C5FE00F065
:4006C0004FFE08BDF8B505460E46174640F2E9229D4B1A80A0F57574A4B2282C03D800229A4B1A7010E0A1F575739BB2282B03D80122964B1A7007E0A7F575739BB2282B6A
:4007000002D80222914B1A70904B1B78012B61D01BB1022B00F0BC80F8BDFFF7CDFFFF2000F0A0FE002000F0A9FEFF2000F026FE002000F029FEFFF7B9FF282C0AD8FFF746
:40074000BBFFFF2000F08EFEFF2000F091FEFFF7ADFFF8BDB5F57F7F10DD7B4B1B8803F57F739D420ADCFFF7A7FF412000F07AFE202000F07DFEFFF799FFF8BD724B1B88CF
:4007800003F57F7295420FDD03F5FF72B5EB420F0ADCFFF791FF202000F064FE102000F067FEFFF783FFF8BD03F5FF72B5EB420F40F3C880FF33B5EB830F00F3C380FFF71E
:4007C0007BFF102000F04EFE082000F051FEFFF76DFFF8BDFFF770FFFF2000F043FE002000F046FEFF2000F0C9FD002000F0CCFDFFF75CFFA6F575739BB2282B0AD8FFF792
:400800005BFFFF2000F02EFEFF2000F037FEFFF74DFFF8BDB6F57F7F10DD4B4B1B8803F57F739E420ADCFFF747FF412000F01AFE202000F023FEFFF739FFF8BD424B1B8860
:4008400003F57F7296420FDD03F5FF72B6EB420F0ADCFFF731FF202000F004FE102000F00DFEFFF723FFF8BD03F5FF72B6EB420F68DDFF33B6EB830F64DCFFF71DFF1020B3
:4008800000F0F0FD082000F0F9FDFFF70FFFF8BDFFF712FFFF2000F0E5FD002000F0E8FD002000F0EBFDFFF701FFA7F575739BB2282B0AD8FFF700FFFF2000F05FFDFF2034
:4008C00000F062FDFFF7F2FEF8BDB7F57F7F10DD1D4B1B8803F57F739F420ADCFFF7ECFE412000F04BFD202000F04EFDFFF7DEFEF8BD154B1B8803F57F7297420FDD03F597
:40090000FF72B7EB420F0ADCFFF7D6FE202000F035FD102000F038FDFFF7C8FEF8BD03F5FF72B7EB420F0DDDFF33B7EB830F09DCFFF7C2FE102000F021FD082000F024FDBD
:40094000FFF7B4FEF8BD00BF9A81FF1F9881FF1FFEE700BFF0B40022174611E050F82760F3B226F0FF0608E001EB420511F812406D78A5550132013BDBB2002BF4D101372B
:40098000222FEBD9F0BC70470A4B1B78DBB203F00701094A11701B09013213700822074B1A708023064A1370583213704422054B1A707047CF0100496E5800403D51004034
:4009C000005B00407658004008B50A46002100F062FF08BD08B500F053FF08BD38B500243E4B1C80502202331A700B2202331A8018233B4A137033210232118002321370D0
:400A000045F6BF51023211800232137045F6E8330232138019250232157002321380314B1D7047F22F530432138002321570023213802D4B1D7004222C492D48FFF7CAFF33
:400A400002222C4B1A7008224FF040231A70032103F500731970284B1B78DBB227490B70274B1A8041F25122023B1A800CE0254B1B7803F0010343EA440404F003044FF443
:400A8000F07000F0C1FE013D0DB1032CEFD115B90320FFF75DFF1C4B4FF480721A8007221A70002219490A704820023108701A700222033B1A7004220A331A7003F29733DD
:400AC0001A78FF221A70124A137843F001031370013A137843F08003137038BD8040004086400040964000409E400040FC080048004100400043004008010049A146004021
:400B000022420040254200400440004006400040A143004038B572B6394A137843F00403137000240BE0374863001A19510001440A46098AD068FFF747FF0134E4B2092C4B
:400B4000F1D900240CE02F48A20011194B000344B3F85020D96C986CFFF73CFF0134E4B2012CF0D928494FF09040FFF7F3FE0A24264B1C70264A137843F0020313701032E6
:400B8000137843F002031370224D2B7843F040032B70A2F58632513A137843F01003137008221D491D48FFF715FF22461C491D48FFF710FF08221C491C48FFF70BFF22460D
:400BC0001B491C48FFF706FF22461B491B48FFF701FF1B4A137843F008031370194C61232370FFF7FBFE812323700122164B1A70FFF7CAFE0E2229461448FFF7EBFE38BD1F
:400C0000E8460040242600008C0000488358004003500140A0430040C808004802510040D0080048C0510040DC08004812510040E408004820510040F00800483051004085
:400C4000224300400048004004000840B043004008B500F0E9FD03680C2B00D1FEE7FEE708B5094B1A681044084BC31A802B02DC054B186005E000F0D7FD0C2303604FF016
:400C8000FF32104608BD00BFD880FF1FB881FF1F08B5104E104D16E029686B68AC68002204E051F8040B43F8040B0432A242F8D1E868002203E0002143F8041B0432824221
:400CC000F9D11035013E002EE6D100F0B3FDFFF7D9F9FEE701000000DC26000008B5104A104B1A60104A136843F40073136000230AE0032B03D80D4A52F8231000E00C4974
:400D00000C4A42F8231001332F2BF2D90A4B1A780A4B1A70074A0A4B1A60FFF7FBFE08BD0004FA050CED00E014ED00E000000000510C00000080FF1FBC760040C080FF1F75
:400D400008ED00E07222074B1A702022013B1A700622603B1A70472210331A700022B23B1A7070478B65004010B500F055FD04460A4A137843F020031370013A137843F021
:400D800010031370A2F58172137843F01003137000F0D0FB204600F043FD10BD9B65004008B5054B1B7823B9FFF7CCFF0122024B1A70FFF7D9FF08BD7C81FF1F034B1B789B
:400DC00013F0040FFAD1024B18707047686400404965004038B5074B1B782BB938BDFFF7EDFF0134A4B201E005460024285D0028F5D138BD7C81FF1F10B50222114B1A70D2
:400E000081220E3B1A70082202331A70042211331A70002401331C704FF400420A4B1A6007210F2000F0C0FB08490F2000F0A8FB1022074B1A70074B1C70074B1C70074BF6
:400E40001C7010BDD649004080E100E0AD0E0000A081FF1FB181FF1FA481FF1FA581FF1F08B500F0D9FC064A137843F0040313701032137843F00403137000F0D1FC08BD82
:400E8000A543004008B5074B1B7823B9FFF7B4FF0122044B1A70FFF7E3FF4FF40042024B1A6008BD7E81FF1F00E100E038B5A54B1C78A54B1B7813F0400F00F03A81E4B299
:400EC00014F0010F00F01D819F4B1B78453B052B00F21481DFE813F006008200120112010600DF0004F0DF0504F00A04082C42D1954B1B78DBB2452B35D1944B1B7813F033
:400F0000FF0F10D0924B1B681B78DBB2914A137004228C4B1A7001228F4B1A7046228A4B1A702C46EDE08D4B1B7813F0020F0DD08B4A137843F00A0313706022824B1A7079
:400F40004FF40042874B1A602C46DAE0864A137843F0100313701022844B1A700422023B1A702C46CDE00022764B1A704A22764B1A702C46C5E00A2C2BD1794A137843F0CB
:400F8000A0031370754B1B7813F0020F14D06E4B1B7813F0080F01D0092300E00A23704A11780B4313706022674B1A704FF400426C4B1A602C46A4E06B4A137843F010034C
:400FC00013701022694B1A700422023B1A702C4697E0002000F0BCFA2C4692E014F0020F36D15D4B1A78D2B2584B1B78DBB29A4210D2594A1378DBB255490968CB5CDBB2A5
:4010000054490B7004214F4B197013780133DBB2137076E0514B1B7813F0020F0CD0504A137843F00A0313706022474B1A704FF400424C4B1A6064E04B4A137843F0100346
:4010400013701022494B1A700422023B1A7058E0424B1B7813F0020F0CD0414A137843F09A0313706022384B1A704FF400423D4B1A6046E03C4A137843F0100313701022B7
:401080003A4B1A700422023B1A70354A137843F09003137035E0364A1378DBB2354908682C490978C9B2C15413780133DBB213701278D2B2304B1B78DBB29A4203D2102265
:4010C000204B1A701DE0254B1B7813F0020F0CD0234A137843F00903137060221A4B1A704FF400421F4B1A600BE01F4A137843F0100313700022134B1A7002E0002000F0D3
:4011000027FA14F0200F1CD00F4B1B7813F0080F01D0012300E00223114A11780B431370114A137803F0EF0313701022064B1A7038BD054B1B7813F0100F02D11022024B12
:401140001A7038BDD7490040A081FF1FA681FF1FA881FF1FD8490040A581FF1FB081FF1FB181FF1F80E100E0D6490040D9490040A481FF1FAC81FF1FB281FF1F1A4B1B78A8
:40118000DBB2102B29D1194B1B7813F0080F26D14FF40042164B1A604000C0B229B140F001004922104B1A7002E045220E4B1A70104B1870012201331A700F4B1B7813F018
:4011C000010FFAD00C4B1B7803F00A030A2B08D11022054B1A700320704702207047012070470020704700BFA081FF1FD949004080E100E0D8490040D7490040164B1B7859
:4012000013F0040F23D04000C0B229B140F001004922124B1A7002E04522104B1A70104B1870122201331A700422023B1A700D4B1B7813F0010FFAD00A4B1B7803F00A03F6
:401240000A2B06D11022054B1A7003207047022070470020704700BFD9490040A081FF1FD8490040D74900400A4B1B7813F0040F0ED01023074A13700421023A1170064A96
:401280001370064B1B7813F0210FFAD00020704702207047D9490040A081FF1FD7490040114B1B7813F0040F1BD0104B18700422013B1A7046220E4B1A700E4B1B7813F020
:4012C000010FFAD00B4B1B7813F0020F04D16022074B1A70002070476022054B1A70032070470220704700BFD9490040D8490040A081FF1FD7490040114B1B7813F0040FD8
:401300001BD0104B1B78DBB2492B05D100220E4B1A704A220B4B1A700B4B1B7813F0010FFAD00A4B1B78DBB218B11021064A117004E06021034A117000E00023184670475B
:40134000D9490040A081FF1FD7490040D8490040024A137843F080031370704774650040024A137803F07F031370704774650040014B1870704700BF04650040014B1870C5
:40138000704700BF44650040014B1870704700BF24650040014B1870704700BF84650040014B1878704700BF64650040014B1878704700BF5465004008B501E0FFF7F6FF19
:4013C000FFF7EEFF10F0100FF8D108BD10B5114A137803F0C00343F00B0313700E4C237843F001032370FF20FFF7C2FFFF20FFF7C5FF0020FFF7C8FF0020FFF7CBFF00F01D
:401400000BFA237843F01003237000F009FAFFF7D3FF10BD746500409465004008B5054B1B7823B9FFF7D2FF0122024B1A70FFF78FFF08BD7F81FF1F024A137843F0800328
:401440001370704774640040024A137803F07F031370704774640040014B1870704700BF04640040014B1870704700BF44640040014B1870704700BF24640040014B187072
:40148000704700BF34640040014B1870704700BF84640040014B1878704700BF64640040014B1878704700BF5464004008B501E0FFF7F6FFFFF7EEFF10F0100FF8D108BDAF
:4014C00010B5134A137803F0C00343F01B031370104C237843F001032370FF20FFF7BCFFFF20FFF7BFFF0020FFF7C2FF0020FFF7C5FF0020FFF7C8FF00F08EF9237843F07E
:401500001003237000F08CF9FFF7D0FF10BD00BF746400409464004008B5054B1B7823B9FFF7CEFF0122024B1A70FFF785FF08BD8081FF1F054A137843F00403137010327F
:40154000137843F004031370704700BFA243004001BE704710B5044605E0084B186800F053F9A4F50044B4F5004FF6D8034B586800FB04F000F048F910BD00BFDC80FF1F38
:4015800070B504460E46074B1D681F2802D90020FFF7DEFF04F01F04103455F8240045F8246070BD08ED00E038B504460D46072902D90020FFF7CCFF1F2C02D90020FFF73B
:4015C000C7FF04F01F0000F1604000F564406D01EDB2057038BD00BF024B1878C0F38000704700BF21510040024A137843F080031370704779640040024A137803F07F034A
:401600001370704779640040014B1870704700BF09640040014B1870704700BF49640040014B1870704700BF29640040014B1870704700BF89640040014B1878704700BF45
:4016400069640040014B1878704700BF5964004008B501E0FFF7F6FFFFF7EEFF10F0100FF8D108BD10B5114A137803F0C00343F0090313700E4C237843F001032370FF20F4
:40168000FFF7C2FFFF20FFF7C5FF0020FFF7C8FF0020FFF7CBFF00F0BFF8237843F01003237000F0BDF8FFF7D3FF10BD796400409964004008B5054B1B7823B9FFF7D2FFEB
:4016C0000122024B1A70FFF78FFF08BD8181FF1F014B1B681864704708ED00E04001C0B2014B1870704700BF00E400E00122014B1A60704700E100E00122014B1A607047EE
:4017000080E100E010B50446FFF7F6FF2046FFF7DFFF0720FFF7E2FFFFF7E8FF10BD00BF084A137843F0020313701032137843F00203137002F65932137843F001031370E5
:40174000704700BFA3430040014B1870704700BF0F4F0040014B1880704700BF104F0040014B1880704700BF124F004008B5164A137803F0010313700232137803F0FC031E
:401780001370124B1A7802F0CF021A701A7842F030021A701A7802F0F0021A701A7842F00F021A700A4A137843F00103137040F2F310FFF7CFFF40F2F310FFF7D1FF0820D6
:4017C000FFF7C2FF08BD00BF0C4F0040174F00400D4F004008B5054B1B7823B9FFF7C6FF0122024B1A70FFF79BFF08BD8281FF1F024B1B88024B188880B27047124F0040C3
:40180000144F0040000000000230800803D000BF01380046FCD17047EFF3108072B6704780F31088704700BF014B1868704700BF4C81FF1F0E4B70B51E460E4C0025E41A58
:40184000A410A54204D056F8253098470135F8E700F032FF084B094C1E46E41AA4100025A54204D056F8253098470135F8E770BDC4260000C4260000C4260000CC2600002F
:4018800010B5431E0A44914204D011F8014B03F8014FF8E710BD03460244934202D003F8011BFAE7704700000EB400B54FF402719CB0ADF814106FF00041049107914FF688
:4018C000FF711DAB02900690084853F8042BADF81610006802A9019300F064F8029B00221A701CB05DF804EB03B070474C81FF1F2DE9F0478E6882469E420C469146984660
:401900003ED88A8912F4906F3AD02568096902236F1A656905EB450595FBF3F57B1C43449D4238BF1D4653050FD5294600F040FB064698B13A462169FFF7A2FFA38923F49C
:40194000906343F08003A38113E02A4600F08EFB064670B92169504600F0DEFA0C23CAF80030A3894FF0FF3043F04003A381BDE8F08726613E44266046466561ED1BA56002
:40198000464528BF464649463246206800F0A8FAA36800209B1BA36023681E442660BDE8F08700002DE9F04F9DB003938B8980461C060D4616460DD50B695BB9402100F0F7
:4019C000F7FA2860286118B90C23C8F80030CDE040236B610023099320238DF82930DFF89CB130238DF82A3037463C4614F8013B1BB9B7EB060910D003E0252BF9D02746CE
:401A0000F3E74B46324629464046FFF771FF013000F0A780099B4B4409933B78002B00F0A08000234FF0FF3204930793059206938DF853301A930126052221784E4800F04D
:401A400041FA671C049B38B14B4A3C46801A06FA00F018430490EFE7D90644BF20228DF853201A0744BF2B228DF8532022782A2A03D0079A00210A200BE0039A111D126858
:401A80000391002A10DA524243F00200079204900BE027463B780134303B092B03D800FB02320121F5E701B107923B782E2B1ED17B782A2B0AD1039B02371A1D1B68039212
:401AC000002BB8BF4FF0FF33059310E0002319460593781C0A2407463A780130303A092A03D804FB01210123F5E703B1059103223978224800F0E6F940B14023CBEB000043
:401B000003FA00F0049B013718430490397806221B487E1C8DF8281000F0D4F988B1194B33B9039B073323F007030833039314E003AB00932A46144B04A94046AFF30080FA
:401B400007E003AB00932A460F4B04A9404600F093F8B0F1FF3F824603D0099B5344099342E7AB895B0601D4099801E04FF0FF301DB0BDE8F08F00BF8226000088260000EB
:401B80008C26000000000000F11800002DE9F04791461F460A698B6806469342B8BF1346C9F8003091F843200C46DDF8208012B10133C9F800302368990642BFD9F80030D2
:401BC0000233C9F80030256815F0060510D104F1190A07E00123524639463046C04701301AD00135E368D9F800209B1A9D42F1DB94F843302268003318BF012392060FD56A
:401C0000E118302081F843005A1C94F845102244023382F8431003E04FF0FF30BDE8F08704F1430239463046C0470130F4D02268D9F80050E36802F00602042A08BF5D1BEB
:401C40002269A3680CBF25EAE57500259342C4BF9B1AED184FF000091A344D4509D00123224639463046C0470130D5D009F10109F3E70020BDE8F0872DE9F04317460A7EBC
:401C800085B06E2A984606460C460C9B01F1430E00F0AE8011D8632A22D009D8002A00F0BB80582A40F0CA8081F84520834955E0642A1ED0692A1CD0C0E0732A00F0B08002
:401CC00009D86F2A2ED0702A40F0B8800A6842F020020A603EE0752A24D0782A3AD0ADE01A6801F14205111D1960136884F84230A8E021681A6811F0800F02D0111D1960E9
:401D000008E011F0400F02F10401196002D0B2F9003000E01368002B3CDA2D225B4284F8432037E021681A6811F0800F02D0111D196007E011F0400F02F10401196001D042
:401D4000138800E01368227E5C496F2A14BF0A2208221BE078225A4984F845202268186812F0800F00F104051D6003D1550601D5038800E00368D00744BF42F020022260B0
:401D80001BB9226822F0200222601022002084F8430001E049490A226568002DA56008DB206820F0040020602BB9002D7DD175460CE0002B79D07546B3FBF2F002FB10335C
:401DC000CB5C05F8013D03460028F5D1082A0BD12368DA0708D5236962689A42DEBF302305F8013C05F1FF35C5EB0E0323612EE008681A6810F0800F496903D0101D18606F
:401E0000136808E010F0400F02F104001860136801D0198000E0196000232361754616E01A68111D1960156800216268284600F049F808B1401B6060636804E004F14205FC
:401E400084F8422001232361002384F84330CDF800803B4603AA21463046FFF797FE013002D14FF0FF3026E023692A4639463046C0470130F5D023689B0710D5002504F15D
:401E8000190907E001234A4639463046C0470130E7D00135E368039A9B1A9D42F2DBE068039B9842B8BF184605E00B7804F1420584F842308AE705B0BDE8F08393260000E4
:401EC000A426000010B5C9B202449042034605D01C7801308C42F8D1184610BD002010BD884210B501EB020301D8421E0BE09842FBD28118D21AD34204D013F8014D01F823
:401F0000014DF8E710BD994204D011F8014B02F8014FF8E710BD000038B50546002944D051F8043C0C1F002BB8BFE41800F0D4F81E4A1368114613B96360146030E0A342F8
:401F40000DD92268A018834201BF18685B681218226063600C6023E0A24203D813465A68002AF9D118681918A1420BD12168014458188242196013D1106852680144196006
:401F80005A600DE002D90C232B6009E021686018824201BF106852680918216062605C602846BDE8384000F098B838BD8881FF1F70B5CD1C25F0030508350C2D38BF0C2575
:401FC000002D064601DBA94202D90C23336046E000F082F8234B1C681A462146A1B10B685B1B0ED40B2B03D90B60CC18CD501EE08C420BBF63684B681360636018BF0C46AD
:4020000015E00C464968E9E7174C23681BB9304600F052F820602946304600F04DF8431C18D0C41C24F00304A0420DD12560304600F053F804F10B00231D20F00700C31A60
:402040000ED05A42E25070BD211A304600F034F80130EBD10C233360304600F03EF8002070BD00BF8881FF1F8481FF1FF8B5074615460E4621B91146BDE8F840FFF798BF15
:402080001AB9FFF749FF2846F8BD00F027F885420ED929463846FFF78BFF044650B131462A46FFF7EDFB31463846FFF735FF01E03046F8BD2046F8BD38B5064C00230546BF
:4020C00008462360FEF7CCFD431C02D1236803B12B6038BDB481FF1F7047704751F8040C0028BEBF091851F8043CC0180438704700000000434F4E54524F4C2052454749C4
:402100005354455220313A203078253032580D0A000000004572726F72206F6363757272656420647572696E672049324320636F6D6D20746F207265616420636F6E74723F
:402140006F6C20726567697374657220310D0A00434F4E54524F4C2052454749535445522031207375636365737366756C6C79207772697474656E2061733A2030782530E3
:4021800032580D0A000000004572726F72206F6363757272656420647572696E672049324320636F6D6D20746F2073657420636F6E74726F6C207265676973746572203144
:4021C0000D0A0000434F4E54524F4C20524547495354455220333A203078253032580D0A000000004572726F72206F6363757272656420647572696E672049324320636FDD
:402200006D6D20746F207265616420636F6E74726F6C20726567697374657220330D0A00434F4E54524F4C2052454749535445522033207375636365737366756C6C792097
:402240007772697474656E2061733A203078253032580D0A000000004572726F72206F6363757272656420647572696E672049324320636F6D6D20746F2073657420636F30
:402280006E74726F6C20726567697374657220330D0A0000434F4E54524F4C20524547495354455220343A203078253032580D0A000000004572726F72206F636375727256
:4022C000656420647572696E672049324320636F6D6D20746F207265616420636F6E74726F6C20726567697374657220340D0A00434F4E54524F4C2052454749535445524C
:402300002034207375636365737366756C6C79207772697474656E2061733A203078253032580D0A000000004572726F72206F6363757272656420647572696E6720493226
:402340004320636F6D6D20746F2073657420636F6E74726F6C20726567697374657220340D0A0000434F4E54524F4C20524547495354455220353A203078253032580D0ADB
:40238000000000004572726F72206F6363757272656420647572696E672049324320636F6D6D20746F207265616420636F6E74726F6C20726567697374657220350D0A0078
:4023C000434F4E54524F4C2052454749535445522035207375636365737366756C6C79207772697474656E2061733A203078253032580D0A000000004572726F72206F6388
:4024000063757272656420647572696E672049324320636F6D6D20746F2073657420636F6E74726F6C20726567697374657220350D0A00004649464F20434F4E54524F4CDE
:402440002052454749535445523A203078253032580D0A004572726F72206F6363757272656420647572696E672049324320636F6D6D20746F2072656164204649464F20E8
:40248000636F6E74726F6C207265676973746572200D0A004649464F20434F4E54524F4C205245474953544552207375636365737366756C6C79207772697474656E206182
:4024C000733A203078253032580D0A004572726F72206F6363757272656420647572696E672049324320636F6D6D20746F20736574204649464F20636F6E74726F6C207237
:4025000065676973746572200D0A0000494E543220434F4E46494755524154494F4E2052454749535445523A203078253032580D0A0000004572726F72206F636375727227
:40254000656420647572696E672049324320636F6D6D20746F207265616420494E543220434F4E46494755524154494F4E205245474953544552200D0A000000494E543272
:4025800020434F4E46494755524154494F4E205245474953544552207375636365737366756C6C79207772697474656E2061733A203078253032580D0A0000004572726FA8
:4025C00072206F6363757272656420647572696E672049324320636F6D6D20746F2073657420494E543220434F4E46494755524154494F4E205245474953544552200D0A3F
:4026000000000000416363656C65726174696F6E20646174613A2025642025642025640D0A000000035B00402443004040000000C84900401900004F004018004051004063
:402640003000F0510040100000000140000680060140800900140140000800400140000A004C014000020050014020006052004040080048060000060140480800488000F3
:402680004300232D302B2000686C4C006566674546470030313233343536373839414243444546003031323334353637383961626364656600000000F8B500BFF8BC08BC00
:4026C0009E4670474D000000DD0C0000F8B500BFF8BC08BC9E46704729000000F0260000C880FF1F88000000680000000000000000000000010000000100000032000000C1
:40270000B881FF1F0000E02EC05D00001800000000366E010000000000000000000000000000000000000000000000000000000000000000802600000000000000000000B4
:4027400000000000000000000000000000000000000000000000000000000000000000000000000000000000000000000000000000000000EC80FF1F0000000000000000CF
:402780000000000000000000000000000000000000000000000000000000000000000000000000000000000000000000000000000000000000000000000000000000000019
:4027C00000000000000000000000000000000000000000000000000000000000000000000000000000000000000000000000000000000000000000000000000000000000D9
:402800000000000000000000000000000000000000000000000000000000000000000000000000000000000000000000000000000000000000000000000000000000000098
:402840000000000000000000000000000000000000000000000000000000000000000000000000000000000000000000000000000000000000000000000000000000000058
:020000040003F7
:0200000480007A
:40000000044F0040055200400464004003650040030301404E04014031050140080601403C0701405108014030090140040B0140040C0140060D0140501401404E150140D0
:40004000141701406A18014051190140491A01404E1B014004400140084101400C42014005430140024401400A4501400746014001470140074801401B490140094C014038
:400080000C4D0140065001400251014001300A4B0D60164B00400160110218601940840F860F880F890D840D8A388B728A08E240EE08040705010C070F02140118081E04C7
:4000C000200825012D013004310232023301340836014040410345D546044712483F49FF4AFF4BFF4DA04F04501852805407580459045A045B045C555D555F01604062C08F
:400100006440654066C068C06AC06CC06EC080EC8401860688E88A048C088E139417964098EC9C109E68A06CA280A411A626A8ECAE80B207B480B678BA88BB02BE10D440D0
:40014000D604D804D904DB04DC21DD10DF0102100302050407460A120B080E220F08124014011601171919801A501B101D041E021F1021022201232026022A402B103A88FC
:400180003B084102430849014B085254530A59815A085B2064016620676072808740A208C0F5C2E7C4F8CA0ACE0AD003D60FD8F0810185039903B102B701D904DC50DF01C2
:4001C000050D070A0BC00C080D080E220F08160217151D211F40210122402444270A2C082D0A2E8032203755380839023C443E0245204680470A4D024E0A4F055621570428
:4002000065406E026F5576028C408D019242960899049A4C9E239F5FA208A610AA02AB04B602C0F0C2E0C4F0CAF0CCF4CED3D0E0D230D810E240E640005C0223040C08044C
:400240000C01101F11041260130914021873190E1A0C1C082403287F29032B042D052E632F0A302C3210330F340F364C39083A223E045401580459045B045C125D205F012C
:40028000820189018F0897079B049C019E02AA04B002B101B302B401B508B604B704C060C105C5D0C602C701C816C9FFCAFFCBFFCDA0CF04D018D280D405D804D904DA0444
:4002C000DB04DC47DD44DF01E040E2C0E440E540E6C0E8C0EAC0ECC0EEC001020580066007040A020C900D020E2410041540172819021A0A1C421D021E1420082290239099
:4003000027102F0A321837113B50480449014B80520853C059055B805C205E497340960898049B20A680B720C0F8C2F1C4E2CA30CCA6CE0CD20CD6FBEC108A80960898041B
:40034000B004B920BF10D904DF0122108E109608AE04E240E680024004050502060A0A400B020C020E0D13011409160619021A201E102003220C2304250426202A102D04B8
:4003800030103220330434403501360F37023A803E154020410645D24610481B49FF4AFF4BFF4DA04F04501852805405580459045A045B045C515D555F01604062C064407F
:4003C000654066C068C06AC06CC06EC08406850186018C018E029101940499019C04B207B701BA08BF40D409D604D804D904DB04DC01DD10DF010004018002800308040429
:400400000702084009280A020E200F0110201204130219EA1D081E2020122130270128402A482C202F103102322036103702380839203C04412046804701482049014B20B6
:400440005004522059095A805D015F64668271028321840189028A048C109004910192829345940896089A4C9B029D609E02A280A308A630AE02B280C0AFC2A7C40ECA0BB0
:40048000CCA5CE46D004D204D6FBD890E230EA05EC148D209004910192829345940896089A4C9B029D40A308A630AA40AD29AE02AF08B70AE410E802EE02038006150F8016
:4004C00010131204140A15011614170E19441A081B311C131E0C24032567261429672D222F513010311833603507360F37803A803E013F41403541024204440145E0460C49
:40050000480649FF4AFF4BFF4C624DA04EF04F41500C580459045A045C225D025F016640670269106A306B106D106E106F128111830E84098520861087038A038D118F46EB
:400540009010920C941C954C960297139B4C9C10A308A414AC0CAE11B14AB21FB30FB530B920BB0AC052C104C50BC6C0C70EC819C9FFCAFFCBFFCEF0CF44D00CD804D90448
:40058000DA04DC22DD02DF01E6C0EA40EB020018040C084009080B800D080E020F44102013401420161018101B041E421F40200821092212234426802758284029012D802B
:4005C0002F2831083210340436103718380839023B803C023D023F804004410144104501476048204A014D414E015104521057408D04904092109548964098109B209C2070
:400600009D849E609F0CA001A380A480A614AC04AD04AE01AF01B70AC026C2FDC425CA71CC66CE9BD0F5D218E010E410E810EC4007010D0311031502290431043303390896
:400640003F054003454049FF4A074BFF4C404D204EF04F055008541859045A045B045D225F01604061A862406320800881DF8401850889188A018D1C8E018FC193C3951CC0
:40068000960297C2980199809C089F04A110A202A404A5C7A718A808A9C0AD44AF20B002B120B201B31FB404B608B7C0B808BB08BE11D602D711D804D904DB04DC22DD20B5
:4006C000DF010462072009800A020C100E200F0215191D801E2A1F01201023402420260827412B042C942D80310832023609375038083B803C403E283F0140104901500423
:400700005B015E10600862806C016D106F28748076287704800883018648876189808F2190409109921093809408960298149B309D819E609F04A108A282A304A480A604D1
:40074000A728B380C0F0C2E0C470CAF4CCF3CEFAD002D621D80CE220E402EA85EC14320433203640CC70630866208D089608A640AF20D8C0EE103E1059085D088640960886
:4007800099089E20A640A704CE20D6C0E6408E208F0496189E20A7047F20DE010020024059408A408F20A720C00AD401E002E601450889409D40B010D001E001EE01A50825
:4007C00025108F0496189B08AB08C820EA20128017045F086302660874047B02870188048E089B089F04A302A680AA90AB02AE04B510C430D6C0D880DC80DE20E610EAA08A
:40080000EC20EE10132815047B807D208D10A508C40EDE03E40811017404840489059104ABA8B508C408DE04E204E601EC0800B60A260C9610261A221C04003F03C0000009
:400840008280000043000000011A0000040100780A00100007003840001800025602091860180002841A00000402800080180400841C0063843300047F600000800F0813EE
:4008800002000020000050003504200006CEF0DB3BFFFFFF2200F008040000000000022004040404111100010000C00040011011C0010011400140010000000000000000AD
:4008C00000000000000000000060600060000000830050808300830000000000000B0B0000000000140001161200020000000000E00000E0E000E000080000002500180164
:4009000000000000000000000000000000000000000000000000000000000000000000000000000000000000000000000000000000000000000000000000000000000000B7
:400940000000000000000000000000000000000000000000000000000000000000000000000000000000000000000000000000000000000000000000000000000000000077
:400980000000000000000000000000000000000000000000000000000000000000000000000000000000000000000000000000000000000000000000000000000000000037
:4009C00000000000000000000000000000000000000000000000000000000000000000000000000000000000000000000000000000000000000000000000000000000000F7
:0200000490006A
:0400000000004005B7
:0200000490105A
:04000000BC90ACAF55
:0200000490303A
:0200000025D801
:0200000490402A
:4000000000000000000000000000000000000000000000000000000000000000000000000000000000000000000000000000000000000000000000000000000000000000C0
:400040000000000000000000000000000000000000000000000000000000000000000000000000000000000000000000000000000000000000000000000000000000000080
:400080000000000000000000000000000000000000000000000000000000000000000000000000000000000000000000000000000000000000000000000000000000000040
:4000C0000000000000000000000000000000000000000000000000000000000000000000000000000000000000000000000000000000000000000000000000000000000000
:0200000490501A
:0C00000000012E16106900012E27364169
:00000001FF