:400000000080002011000000D90F0000D90F000008B5044B1A6803F53F5302331A6000F0FBFF00BFFA46004010B5054C237833B9044B13B10448AFF300800123237010BDAD
:400040005081FF1F00000000A0300000084B10B51BB108490848AFF300800848036803B910BD074B002BFBD0BDE81040184700BF000000005481FF1FA0300000C880FF1F52
:40008000000000002DE9F043DFB062B600F06AFA01F04CF800F046FB02F0EEFAB04802F013FB02F079FB01F0D3FC02F04FF80023AC4A1360AC4A1360052002F023FA0DF13E
:4000C000DF022021182000F053FA48B99DF8DF20A64951A802F0C0FB51A801F041F802E0A34801F03DF89DF8DF30572B14D057228DF8DF202021182000F08AFA48B99DF89F
:40010000DF209C4951A802F0A7FB51A801F028F802E0994801F024F80DF1DE022221182000F026FA48B99DF8DE20944951A802F093FB51A801F014F802E0914801F010F877
:400140009DF8DE30022B14D002228DF8DE202221182000F05DFA48B99DF8DE20894951A802F07AFB51A800F0FBFF02E0864800F0F7FF0DF1DD022321182000F0F9F948B9E7
:400180009DF8DD20814951A802F066FB51A800F0E7FF02E07E4800F0E3FF9DF8DD30882B14D098228DF8DD202321182000F030FA48B99DF8DD20774951A802F04DFB51A8C4
:4001C00000F0CEFF02E0744800F0CAFF37AA2421182000F0CDF948B99DF8DC206F4951A802F03AFB51A800F0BBFF02E06C4800F0B7FF9DF8DC30402B14D040228DF8DC20BB
:400200002421182000F004FA48B99DF8DC20654951A802F021FB51A800F0A2FF02E0624800F09EFF0DF1DB022E21182000F0A0F948B99DF8DB205D4951A802F00DFB51A85B
:4002400000F08EFF02E05A4800F08AFF9DF8DB30402B14D040228DF8DB202E21182000F0D7F948B99DF8DB20524951A802F0F4FA51A800F075FF02E04F4800F071FF0DF1B3
:40028000DA023421182000F073F948B99DF8DA204A4951A802F0E0FA51A800F061FF02E0474800F05DFF9DF8DA302A2B14D02A228DF8DA203421182000F0AAF948B99DF832
:4002C000DA20404951A802F0C7FA51A800F048FF02E03D4800F044FF40223C4B1A704FF47A623B4B1A8002223A4B1A704FF001081C4B1B68012B02D100F0B2F98046B8F1E5
:40030000010F00F0D480B8F1020F00F0F880B8F1000FEDD12D4B197841EA0801C9B21970002000F00BFC00F025FC002000F0F0FB814602F043F9FF2002F054F902F09CF993
:400340000DF117022F21182000F012F90028CFD19DF8173013F0040F40F09480C8E700BF410600009881FF1FA081FF1FA4300000C4300000003100003831000074310000B3
:4003800094310000D0310000083200004432000064320000A0320000D8320000143300003433000070330000A8330000E433000004340000443400007C340000BC340000C2
:4003C000E43400002C3500006C3500009C81FF1F9481FF1FA481FF1F04EB4402530006AA134406222821182000F0E0F8002846D106A8620011194B00C718C35C7D7843EA4E
:40040000052545F30B1553490B7803FB05F5002DB8BF6D422DB2BB78FE7843EA062646F30B160B7803FB06F6002EB8BF764236B23B79224457003844477943EA072747F391
:400440000B170B7803FB07F7002FB8BF7F423FB23A463146284600F071F93F4B1B780293CDF80490009733462A463C4951A802F0F3F951A800F074FE052002F043F80134FB
:40048000E4B200E000241F2CA6D900228DF8DB202E21182000F0BCF80A2002F033F840228DF8DB202E21182000F0B2F820E72A4C217841EA0801C9B22170002000F03EFB22
:4004C00000F058FB002000F023FB23780246244938A802F0C1F938A800F042FE02F06EF8002002F07FF802F0C7F8FF2001F0FAFB002001F0FDFBFF2001F080FBF8E602F0A4
:400500005DF87F2002F06EF802F0B6F8FF2001F0E9FB002001F0ECFBFF2001F06FFB00F05BFA0D4C217841EA0801C9B22170002000F004FB00F01EFB002000F0E9FA23784C
:400540000246074938A802F087F938A800F008FECEE600BFA481FF1F9C81FF1FB4350000E435000008B500F053FE002008BD00BFF8B506460D461746002100F0C5FF04465E
:4005800068B9284601F052F8044640B90121304600F0FAFF044610B901F074F8387001F029F8201C18BF0120F8BD00BF2DE9F04180460C4616461F46002100F0A5FF0546BB
:4005C000F0B944F0800001F031F80546C0B90121404600F0D9FF054650B111E0C4EB0608012001F04FF807F80800013CE4B200E03446012CF2D8013E002001F043F8B8553A
:4006000000F0F8FF281C18BF0120BDE8F08100BF70B50D461646002100F076FF044640B9284601F003F8044618B9304600F0FEFF044600F0DFFF201C18BF012070BD00BF15
:4006400008B502F065F80122034B1A60034A13680133136008BD00BF9881FF1FA081FF1F08B502F047F8002002F064F802F094F80022284B1A6003E002F062F8264B186019
:4006800001F08CFF0028F7D0234B1B68092B0ADD224A1268012A06D80022214B1A6002221E4B1A6032E0092B09DD1C4B1B68022B05D100231A4A1360184A136026E0184B74
:4006C0001B68022B0FD102F03BF8144B5B68984209DA124B1B68012B05D10023104A13600E4A136012E00E4B1B68022B0ED102F027F80A4B5B68984208DA084B1B682BB950
:400700000022074B1A600122044B1A60034B186808BD00BF9881FF1F6C81FF1FCC80FF1FA081FF1F08B501F031FB01F0B1FA08BD08B501F0C3FA01F04DFA08BDF8B5054607
:400740000E461746A14B1B881BB2B3F57F7300D503339B109E4A1380A5F57574A4B2282C03D800229B4B1A7010E0A6F575739BB2282B03D80122974B1A7007E0A7F575731F
:400780009BB2282B02D80222924B1A70914B1B78012B61D01BB1022B00F0BC80F8BDFFF7C7FFFF2001F098FA002001F0A1FAFF2001F01EFA002001F021FAFFF7B3FF282C34
:4007C0000AD8FFF7B5FFFF2001F086FAFF2001F089FAFFF7A7FFF8BDB5F57F7F10DD7C4B1B8803F57F739D420ADCFFF7A1FF412001F072FA202001F075FAFFF793FFF8BD1A
:40080000734B1B8803F57F7295420FDD03F5FF72B5EB420F0ADCFFF78BFF202001F05CFA102001F05FFAFFF77DFFF8BD03F5FF72B5EB420F40F3C880FF33B5EB830F00F397
:40084000C380FFF775FF102001F046FA082001F049FAFFF767FFF8BDFFF76AFFFF2001F03BFA002001F03EFAFF2001F0C1F9002001F0C4F9FFF756FFA6F575739BB2282B0A
:400880000AD8FFF755FFFF2001F026FAFF2001F02FFAFFF747FFF8BDB6F57F7F10DD4C4B1B8803F57F739E420ADCFFF741FF412001F012FA202001F01BFAFFF733FFF8BD7B
:4008C000434B1B8803F57F7296420FDD03F5FF72B6EB420F0ADCFFF72BFF202001F0FCF9102001F005FAFFF71DFFF8BD03F5FF72B6EB420F68DDFF33B6EB830F64DCFFF771
:4009000017FF102001F0E8F9082001F0F1F9FFF709FFF8BDFFF70CFFFF2001F0DDF9002001F0E0F9002001F0E3F9FFF7FBFEA7F575739BB2282B0AD8FFF7FAFEFF2001F038
:4009400057F9FF2001F05AF9FFF7ECFEF8BDB7F57F7F10DD1E4B1B8803F57F739F420ADCFFF7E6FE412001F043F9202001F046F9FFF7D8FEF8BD164B1B8803F57F729742BC
:400980000FDD03F5FF72B7EB420F0ADCFFF7D0FE202001F02DF9102001F030F9FFF7C2FEF8BD03F5FF72B7EB420F0DDDFF33B7EB830F09DCFFF7BCFE102001F019F908209D
:4009C00001F01CF9FFF7AEFEF8BD00BF9481FF1FA881FF1FA681FF1F08B501F03BFC3F4B1860002801DA00221A603C4B1B68B3F5803F03DB4FF6FF72384B1A60374B186892
:400A000001F016FC364B188080B240F2E143984213D80022334B1A704FF4FA62324B1A800122324B1A708822314B1A7023211820FFF7EEFD2F4B187008BDA0F2E2439BB26B
:400A400040F2E142934213D84022264B1A704FF47A62254B1A800222244B1A709822244B1A7023211820FFF7D3FD224B187008BDA0F6C4139BB240F2E142934213D880229E
:400A8000184B1A704FF4FA52174B1A800422174B1A70A822164B1A7023211820FFF7B8FD144B187008BDA0F6A66080B240F2E243984212D8C0220B4B1A704FF47A520A4B15
:400AC0001A800C22094B1A70B822094B1A7023211820FFF79DFD074B187008BDE481FF1FE281FF1F9C81FF1F9481FF1FA481FF1FAC81FF1FE881FF1F08B5052000F058F844
:400B000008BD00BF08B5062000F03CF808BD00BF00B583B003218DF80410030A8DF805308DF8060001230DEB010201A800F05AF89DF8030003B05DF804FB00BF30B583B02F
:400B400004460D46FFF7DEFF02238DF80430230A8DF805308DF806408DF80750002302AA02F8053D04210DEB010000F03BF803B030BD00BF08B5FFF7BFFF10F0010FFAD1A2
:400B800008BD00BF10B50446002001F00FF8204600F002FE00F0D8FD10F0080FFAD000F065FE0446012001F001F8204610BD00BF10B50446002000F0F9FF204600F0ECFD9E
:400BC000002000F0E9FD00F0BFFD10F0010FFAD000F04CFE00F04AFE0446012000F0E6FF204610BD2DE9F04383B006460C4617469846002000F0DAFF64B2002511E02146C3
:400C0000082CA8BF0821C9B206EBC50000F0AAFE00F09AFD10F0010FFAD0083C64B201356DB2002CEBDC00F0ADFE00F051FE0026009601964FFA88F820E0C146B8F1080F67
:400C4000A8BF4FF008095FFA89F1684600F08AFE00F07AFD10F0010FFAD0002406E004EBC60500F003FE78550134E4B24C45F6DBA8F108084FFA88F8013676B2B8F1000F4B
:400C8000DBDC012000F092FF00F07CFE00F020FE00F03EFE03B0BDE8F08300BFFEE700BFF0B40022174611E050F82760F3B226F0FF0608E001EB420511F812406D78A55511
:400CC0000132013BDBB2002BF4D10137212FEBD9F0BC70470A4B1B78DBB203F00701094A11701B09013213700822074B1A708023064A1370583213704422054B1A707047BB
:400D0000CF0100496E5800403D510040005B00407658004008B50A46002101F094FD08BD08B501F085FD08BD38B50024404B1C80502202331A700B2202331A8018233D4A8C
:400D400013703321023211800232137045F6BF51023211800232137045F6E8330232138019250232157002321380334B1D7047F22F5202331A8002331D7040F2E7320233A8
:400D80001A801B2202331A7004222C492C48FFF7C7FF02222B4B1A7008224FF040231A70032103F500731970274B1B78DBB227490B70274B1A8041F25122023B1A800CE04E
:400DC000244B1B7803F0010343EA440404F003044FF4F07001F0F0FC013D0DB1032CEFD115B90320FFF75AFF1B4B4FF480721A8007221A70002219490A70482002310870E6
:400E00001A700222033B1A7004220A331A7003F297331A78FF221A70114A137843F001031370013A137843F08003137038BD00BF804000408640004096400040880900480B
:400E4000004100400043004008010049A146004022420040254200400440004006400040A1430040012807D8044B53F820201844017A13780B431370704700BF08360000B3
:400E8000012808D8044B53F820201844017A137823EA0103137070470836000038B572B6394A137843F00403137000240BE0374863001A19510001440A46098AD068FFF7B9
:400EC00029FF0134E4B2092CF1D900240CE02F48A20011194B000344B3F85020D96C986CFFF71EFF0134E4B2012CF0D928494FF09040FFF7D5FE0A24264B1C70264A137874
:400F000043F0020313701032137843F002031370224D2B7843F040032B70A2F58632513A137843F01003137008221D491D48FFF7F7FE22461C491D48FFF7F2FE08221C4996
:400F40001C48FFF7EDFE22461B491C48FFF7E8FE22461B491B48FFF7E3FE1B4A137843F008031370194C61232370FFF7DDFE812323700122164B1A70FFF7ACFE0E22294698
:400F80001448FFF7CDFE38BDE846004008360000880000488358004003500140A043004054090048025100405C090048C051004068090048125100407009004820510040CD
:400FC0007C09004830510040224300400048004004000840B043004008B501F0FDFB03680C2B00D1FEE7FEE708B5094B1A681044084BC31A802B02DC054B186005E001F096
:40100000EBFB0C2303604FF0FF32104608BD00BFD480FF1F2882FF1F08B5104E104D16E029686B68AC68002204E051F8040B43F8040B0432A242F8D1E868002203E00021CD
:4010400043F8041B04328242F9D11035013E002EE6D101F0C7FBFFF715F8FEE701000000C036000008B5104A104B1A60104A136843F40073136000230AE0032B03D80D4A0C
:4010800052F8231000E00C490C4A42F8231001332F2BF2D90A4B1A780A4B1A70074A0A4B1A60FFF7FBFE08BD0004FA050CED00E014ED00E000000000D90F00000080FF1F85
:4010C000BC760040C080FF1F08ED00E07222084B1A702022053B1A700622A3F5AD731A70472210331A70002203F24D131A7070478B65004010B501F067FB04460A4A137805
:4011000043F020031370053A137843F0100313700332137843F01003137001F0B1F8204601F056FB10BD00BF9B65004008B5054B1B7823B9FFF7CAFF0122024B1A70FFF781
:40114000D9FF08BD7481FF1F034B1B7813F0040FFAD1024B18707047696500404964004038B5074B1B782BB938BDFFF7EDFF0134A4B201E005460024285D0028F5D138BDA6
:401180007481FF1F10B50222114B1A7081220E3B1A70082202331A70042211331A70002401331C704FF400420A4B1A6007210F2001F0DCF908490F2001F0C4F91022074BF3
:4011C0001A70074B1C70074B1C70074B1C7010BDD649004080E100E039120000E981FF1FF981FF1FEC81FF1FED81FF1F08B501F0EBFA064A137843F00403137010321378E4
:4012000043F00403137001F0E3FA08BDA543004008B5074B1B7823B9FFF7B4FF0122044B1A70FFF7E3FF4FF40042024B1A6008BD7681FF1F00E100E038B5A54B1C78A54BF3
:401240001B7813F0400F00F03A81E4B214F0010F00F01D819F4B1B78453B052B00F21481DFE813F006008200120112010600DF0004F0DF0504F00A04082C42D1954B1B7801
:40128000DBB2452B35D1944B1B7813F0FF0F10D0924B1B681B78DBB2914A137004228C4B1A7001228F4B1A7046228A4B1A702C46EDE08D4B1B7813F0020F0DD08B4A13781A
:4012C00043F00A0313706022824B1A704FF40042874B1A602C46DAE0864A137843F0100313701022844B1A700422023B1A702C46CDE00022764B1A704A22764B1A702C4604
:40130000C5E00A2C2BD1794A137843F0A0031370754B1B7813F0020F14D06E4B1B7813F0080F01D0092300E00A23704A11780B4313706022674B1A704FF400426C4B1A60EC
:401340002C46A4E06B4A137843F0100313701022694B1A700422023B1A702C4697E0002001F0CEF82C4692E014F0020F36D15D4B1A78D2B2584B1B78DBB29A4210D2594A6F
:401380001378DBB255490968CB5CDBB254490B7004214F4B197013780133DBB2137076E0514B1B7813F0020F0CD0504A137843F00A0313706022474B1A704FF400424C4B0C
:4013C0001A6064E04B4A137843F0100313701022494B1A700422023B1A7058E0424B1B7813F0020F0CD0414A137843F09A0313706022384B1A704FF400423D4B1A6046E01C
:401400003C4A137843F01003137010223A4B1A700422023B1A70354A137843F09003137035E0364A1378DBB2354908682C490978C9B2C15413780133DBB213701278D2B253
:40144000304B1B78DBB29A4203D21022204B1A701DE0254B1B7813F0020F0CD0234A137843F00903137060221A4B1A704FF400421F4B1A600BE01F4A137843F010031370CD
:401480000022134B1A7002E0002001F039F814F0200F1CD00F4B1B7813F0080F01D0012300E00223114A11780B431370114A137803F0EF0313701022064B1A7038BD054B89
:4014C0001B7813F0100F02D11022024B1A7038BDD7490040E981FF1FEE81FF1FF081FF1FD8490040ED81FF1FF881FF1FF981FF1F80E100E0D6490040D9490040EC81FF1FB9
:40150000F481FF1FFA81FF1F1A4B1B78DBB2102B29D1194B1B7813F0080F26D14FF40042164B1A604000C0B229B140F001004922104B1A7002E045220E4B1A70104B187041
:40154000012201331A700F4B1B7813F0010FFAD00C4B1B7803F00A030A2B08D11022054B1A700320704702207047012070470020704700BFE981FF1FD949004080E100E070
:40158000D8490040D7490040164B1B7813F0040F23D04000C0B229B140F001004922124B1A7002E04522104B1A70104B1870122201331A700422023B1A700D4B1B7813F080
:4015C000010FFAD00A4B1B7803F00A030A2B06D11022054B1A7003207047022070470020704700BFD9490040E981FF1FD8490040D74900400A4B1B7813F0040F0ED010230E
:40160000074A13700421023A1170064A1370064B1B7813F0210FFAD00020704702207047D9490040E981FF1FD7490040114B1B7813F0040F1BD0104B18700422013B1A7087
:4016400046220E4B1A700E4B1B7813F0010FFAD00B4B1B7813F0020F04D16022074B1A70002070476022054B1A70032070470220704700BFD9490040D8490040E981FF1F36
:40168000D7490040114B1B7813F0040F1BD0104B1B78DBB2492B05D100220E4B1A704A220B4B1A700B4B1B7813F0010FFAD00A4B1B78DBB218B11021064A117004E0602159
:4016C000034A117000E0002318467047D9490040E981FF1FD7490040D84900400422014B1A60704700E100E00222014B1A60704700E100E008B501F067F80C4A137843F072
:40170000200313700732137843F010031370033A137843F01003137001F05AF800F0BEFDFFF7DCFFFFF7E0FF08BD00BF956400400422014B1A60704780E100E00222014B40
:401740001A60704780E100E010B5FFF7F1FF064B1C78064A137803F009031C4300231370FFF7BCFF204610BD6C6400400882FF1F10B5FFF7E3FF064B1B78064A147804F09B
:4017800040041C4300231370FFF7AEFF204610BD696400401982FF1F10B504462B4B1A7802F0FF0312B1013BDBB200E00723284A1278D2B29342F1D0FFF7BAFF254B1978DD
:4017C000254A137803F009030B4313701F4B1A78D2B21F4B1B78DBB29A4207D11E4B1B7813F0040F02D01D4B1C702CE0184A13780133DBB213701378DBB2072B02D9002205
:40180000134B1A70124B1A78D2B2104B1B78DBB29A420ED10D4A13780133DBB213701378DBB2072B02D90022084B1A7001220C4B1A70074B1B78DBB20A4AD4540A4A1378FC
:4018400043F004031370FFF749FF10BD1582FF1F1782FF1F6C6400400882FF1F446400401482FF1F0082FF1F8C64004010B5FFF765FF134B1A78D2B2124B1B78DBB29A4224
:4018800014D0114B1B7813F0FF0F0CD10C4A13780133DBB213701378DBB2072B06D90022074B1A7002E00022074B1A70044B1B78DBB2064AD45CE4B2FFF716FF204610BD78
:4018C0001882FF1F1682FF1FFC81FF1F0C82FF1F08B501E0094B1B78094B1B7813F0200FF8D1FFF72BFF0023064A1370064A1370064A1370FFF7F8FE08BD00BF54640040A8
:4019000069640040FC81FF1F1882FF1F1682FF1F08B500F059FF0E4B1A7842F001021A701A7802F0FE021A7000F052FFFFF700FF0023084A1370084A1370084A1370084AAA
:40194000137803F0FB031370FFF7C8FE08BD00BF946400401482FF1F1582FF1F1782FF1F8C64004070B506460C46002506E0705DFFF712FF0135EDB2013CE4B2002CF6D163
:4019800070BD00BF08B501E00A4B1B780A4B1B7813F0200FF8D100F017FF084B1A7842F001021A701A7802F0FE021A7000F010FF08BD00BF5464004069640040946400405A
:4019C00010B50F22174B1A70174C042323600721022000F0CBFD1549022000F0B3FD022323600721012000F0C1FD1149012000F0A9FDFFF7C7FF00240E4B1C700E4B1C707C
:401A00000E4B1C700E4B1C700E4B1C700E4B1C70FFF79AFEFFF7ACFE0C4B1C702022033B1A7010BD8564004080E100E06D1A00000D1B0000FC81FF1F1882FF1F1682FF1F08
:401A40001482FF1F1582FF1F1782FF1F8C64004008B5054B1B7823B9FFF7B2FF0122024B1A70FFF747FE08BD7781FF1F28E01F4B19781F4A137803F009030B431370137891
:401A800013F0040F24D01B4B1B7813F0FF0F0CD1194A13780133DBB213701378DBB2072B06D90022144B1A7002E00022114B1A70114B1B78DBB2114AD35CDBB2104A137075
:401AC0000D4B1A78D2B20F4B1B78DBB29A42CED1094B1A78D2B20B4B1B78DBB29A4204D1094A137803F0FB03137070476C6400400882FF1F1482FF1F1582FF1F0082FF1F28
:401B0000446400401782FF1F8C640040204B1A7820490B7803F0400313430B7032E01E4B1A78D2B21D490B780133DBB20B700B78DBB2072B02D90021184B1970174B197813
:401B4000C9B2174B1B78DBB299420ED114490B780133DBB20B700B78DBB2072B02D900210F4B197001210F4B19700C4B1B78DBB20D49CA54064B1A7806490B7803F0400396
:401B800013430B70034B1B7813F0200FC7D17047696400401982FF1F546400401682FF1F1882FF1FFC81FF1F0C82FF1F044A137803F0EF03000100F010001843107070472E
:401BC00020510040024A137843F080031370704778650040024A137803F07F031370704778650040014B1870704700BF08650040014B1870704700BF48650040014B1870AB
:401C0000704700BF28650040014B1870704700BF88650040014B1878704700BF68650040014B1878704700BF5865004008B501E0FFF7F6FFFFF7EEFF10F0100FF8D108BD23
:401C400010B5114A137803F0C00343F00B0313700E4C237843F001032370FF20FFF7C2FFFF20FFF7C5FF0020FFF7C8FF0020FFF7CBFF00F0A9FD237843F01003237000F01A
:401C8000A7FDFFF7D3FF10BD786500409865004008B5054B1B7823B9FFF7D2FF0122024B1A70FFF78FFF08BD7881FF1F024A137843F080031370704777650040024A13783A
:401CC00003F07F031370704777650040014B1870704700BF07650040014B1870704700BF47650040014B1870704700BF27650040014B1870704700BF37650040014B1870DD
:401D0000704700BF84640040014B1878704700BF64640040014B1878704700BF5765004008B501E0FFF7F6FFFFF7EEFF10F0100FF8D108BD08B5134A137803F0C00343F0B6
:401D40001B0313702032137843F001031370FF20FFF7BCFFFF20FFF7BFFF0020FFF7C2FF0020FFF7C5FF0020FFF7C8FF00F02CFD054A137843F01003137000F029FDFFF732
:401D8000CFFF08BD776500409464004008B5054B1B7823B9FFF7CEFF0122024B1A70FFF785FF08BD7981FF1F10B59DF80840012C51D1013809282ED8DFE800F0052D2D0530
:401DC0002D2D0F192D230F2B03D92548007840B222E02448007840B21EE00F2B03D92248007840B218E02148007840B214E00F2B03D91F48007840B20EE01E48007840B200
:401E00000AE00F2B03D91C48007840B204E01B48007840B200E0002001EB401101FB02F1C90B8AB20D2B0BD8C3F10E0289B211418AB2611E124800EB810101338B7005E0E5
:401E4000631E0F4901EB83030F219970013C0C4B23F8242010BD002000F052FB10BD00BF180100491C010049190100491D0100491A0100491E0100491B0100491F01004909
:401E80007C81FF1FF8B5074600F09EFC06460D4D2B7843F003032B700B4C237843F0030323700A4B1F70032000F042FB2B7803F0FC032B70237803F0FC032370304600F0BE
:401EC00087FCF8BDF8460040F9460040925800400022324B1A7101285FD170B53822304B1A70042202331A70062201331A70002401331C7001331C703F2201331A700233B9
:401F00001C7001331C7001331C7001250A331D70502203F527631A700A2201331A702C2201331A7001331C70442203331A70482201331A7001331D7002331D701122013339
:401F40001A70192201331A70972201331A705220FFF798FF5822134B1A7001331C70052605331E70022201331A7001331C7001331C70204600F0B0F943F233320A4B1A608B
:401F80002946304600F0CCF92946252000F04CFA06491D2000F0D6FA70BD70477C81FF1F004E0040945800401C82FF1F7D220000F0B583B0284D01272F70284E00247471AA
:401FC000102000F09BF9102000F01CFA07211D2000F0CCFA0422224B1A7001331C7007331C70204A137843F0180313701E4B1C7003F2F5231C7001331C700A22A3F2093328
:402000001A7001331C7002331C705B2205331A705E2201331A7004331C701422A3F68C231A70009710234FF4004248F6F0510220FFF7BAFE2B78013B06EB83039A780B4BF1
:402040001A702B78013B36F82320094B1A802878FFF73EFF03B0F0BDD880FF1F7C81FF1F96580040075B0040935800400E4E00400C4E004070B500F0A7FB06462A4B1B7898
:402080002A4B1A7842F001021A701A7842F010021A7010331A7842F001021A701A7842F010021A70224D2B7843F002032B70214C237843F0020323701F4A137843F0030321
:4020C0001370032000F034FA2B7803F0FD032B70237803F0FD032370184A137843F0060313707A22164B1A70164A137843F0010313701032137843F0010313700F3A137897
:4021000043F0010313701032137843F0010313704FF000530C4A1360A2F5C0721360304600F056FB70BD00BFD880FF1FAA430040F8460040F946004091580040775800404C
:4021400082580040A143004080E200E008B5084B9B794BB9064BDB7913F0FF0F01D1FFF727FF0122024B9A71FFF784FF08BD00BF7C81FF1F024A137843F001031370704738
:40218000004E0040024A137803F0FE0313707047004E0040094B1B7913F0FF0F03D0074B5B79DBB203E0064B1B7803F00103012B01D00028EED01846704700BF7C81FF1FEF
:4021C000014E0040154B1B7803F00303012B07D8134B1888023B1B889BB243EA004013E0022B0AD10E4B1888023B1B7843EA00430C4A107843EA002006E00B4B188883B251
:40220000074A108843EA0040084B1B7913F0FF0F02D00022054B5A71704700BF144E0040124E0040114E0040104E00407C81FF1F064B9B68C01A4FF47A7303FB00F0044B96
:402240001B6890FBF3F000B2704700BF7C81FF1F1C82FF1F10B5084A137843F004031370FFF788FF0020FFF795FFFFF7ABFF0446FFF788FF204610BD014E0040704700BF49
:40228000054A137843F0040313701032137843F004031370704700BFA2430040054A137843F0020313701032137843F002031370704700BFA243004010B5002404E0204677
:4022C000FEF7DEFD0134E4B2012CF8D9FF22014B1A7010BDD980FF1F10B50446FFF7ECFF2046FEF7BFFD014B1C7010BDD980FF1F014B188880B2704780400040034B1A7832
:4023000000F0F80010431870704700BF82400040024B187800F00700704700BF8240004070B505460E46FFF7F3FF0446FFF7E0FFA84256D02B4B1B7803F0010294B900B13E
:4023400085B938B9284B1D80284A137803F0BF03137070BD254A137843F040031370224B1D8070BD22B3002321490B7001240F310C7004310B700C390B7803F07F030B706C
:402380001A4B1B7813F0080F00D08DB9194B18800721013B1970164B1B7813F0010FFAD110490B7803F0FE030B700021104B19700C4B1B7813F0010F0DD00E4B1D800EB15B
:4023C000032200E001220A4B1A70094B1B7813F0010FFAD170BD044B1D8002490B7813430B7070BDA243004080400040824000400140004002400040014B188880B270472D
:4024000000410040034B1A7800F0F80010431870704700BF02410040024B187800F00700704700BF0241004070B505460E46FFF7F3FF0446FFF7E0FFA84256D02B4B1B78CE
:4024400003F0010294B900B185B938B9284B1D80284A137803F0BF03137070BD254A137843F040031370224B1D8070BD22B3002321490B70012413310C7004390B700839E2
:402480000B7803F07F030B701A4B1B7813F0080F00D08DB9194B18800721013B1970164B1B7813F0010FFAD110490B7803F0FE030B700021104B19700C4B1B7813F0010F79
:4024C0000DD00E4B1D800EB1032200E001220A4B1A70094B1B7813F0010FFAD170BD044B1D8002490B7813430B7070BDA1430040004100400241004001400040024000406E
:4025000001BE704710B5044605E0084B186800F053F9A4F50044B4F5004FF6D8034B586800FB04F000F048F910BD00BFDC80FF1F08B5034B1B7A00FB03F000F03DF908BDD2
:40254000DC80FF1F70B504460E46074B1D681F2802D90020FFF7D4FF04F01F04103455F8240045F8246070BD08ED00E038B504460D46072902D90020FFF7C2FF1F2C02D91B
:402580000020FFF7BDFF04F01F0000F1604000F564406D01EDB2057038BD00BF024B1878C0F38000704700BF21510040024A137843F08003137070477D640040024A1378DF
:4025C00003F07F03137070477D640040014B1870704700BF0D640040014B1870704700BF4D640040014B1870704700BF2D640040014B1870704700BF8D640040014B187863
:40260000704700BF6D640040014B1878704700BF5D64004008B501E0FFF7F6FFFFF7EEFF10F0100FF8D108BD10B5114A137803F0C00343F0090313700E4C237843F0010358
:402640002370FF20FFF7C2FFFF20FFF7C5FF0020FFF7C8FF0020FFF7CBFF00F0B5F8237843F01003237000F0B3F8FFF7D3FF10BD7D6400409D64004008B5054B1B7823B93C
:40268000FFF7D2FF0122024B1A70FFF78FFF08BD8881FF1F014B1B681864704708ED00E04001C0B2014B1870704700BF00E400E00122014B1A60704700E100E00122014B81
:4026C0001A60704780E100E010B50446FFF7F6FF2046FFF7DFFF0720FFF7E2FFFFF7E8FF10BD00BF024A137843F080031370704778640040024A137803F07F031370704764
:4027000078640040014B1870704700BF88640040014B1878704700BF68640040014B1870704700BF28640040014B1878704700BF48640040014B1870704700BF086400405F
:40274000024B1B78024B1878704700BF086400404864004008B501E0FFF7E6FFFFF7D8FF10F0080FF8D108BD08B51320FFF7D6FF1320FFF7DFFF00F027F8064A137843F0C4
:402780001003137000F024F8FFF7E4FF0020FFF7B9FF08BD9864004008B5054B1B7823B9FFF7E2FF0122024B1A70FFF79BFF08BD8981FF1F000000000230800803D000BFB9
:4027C00001380046FCD17047EFF3108072B6704780F31088704700BF014B1868704700BF4C81FF1F0E4B70B51E460E4C0025E41AA410A54204D056F8253098470135F8E772
:4028000000F04CFF084B094C1E46E41AA4100025A54204D056F8253098470135F8E770BDA8360000A8360000A8360000B036000010B5431E0A44914204D011F8014B03F810
:40284000014FF8E710BD03460244934202D003F8011BFAE7704700000EB400B54FF402719CB0ADF814106FF00041049107914FF6FF711DAB02900690084853F8042BADF854
:402880001610006802A9019300F064F8029B00221A701CB05DF804EB03B070474C81FF1F2DE9F0478E6882469E420C46914698463ED88A8912F4906F3AD025680969022303
:4028C0006F1A656905EB450595FBF3F57B1C43449D4238BF1D4653050FD5294600F040FB064698B13A462169FFF7A2FFA38923F4906343F08003A38113E02A4600F08EFB80
:40290000064670B92169504600F0DEFA0C23CAF80030A3894FF0FF3043F04003A381BDE8F08726613E44266046466561ED1BA560464528BF464649463246206800F0A8FABC
:40294000A36800209B1BA36023681E442660BDE8F08700002DE9F04F9DB003938B8980461C060D4616460DD50B695BB9402100F0F7FA2860286118B90C23C8F80030CDE0A7
:4029800040236B610023099320238DF82930DFF89CB130238DF82A3037463C4614F8013B1BB9B7EB060910D003E0252BF9D02746F3E74B46324629464046FFF771FF01302E
:4029C00000F0A780099B4B4409933B78002B00F0A08000234FF0FF3204930793059206938DF853301A930126052221784E4800F041FA671C049B38B14B4A3C46801A06FAF6
:402A000000F018430490EFE7D90644BF20228DF853201A0744BF2B228DF8532022782A2A03D0079A00210A200BE0039A111D12680391002A10DA524243F0020007920490E1
:402A40000BE027463B780134303B092B03D800FB02320121F5E701B107923B782E2B1ED17B782A2B0AD1039B02371A1D1B680392002BB8BF4FF0FF33059310E000231946C3
:402A80000593781C0A2407463A780130303A092A03D804FB01210123F5E703B1059103223978224800F0E6F940B14023CBEB000003FA00F0049B0137184304903978062204
:402AC0001B487E1C8DF8281000F0D4F988B1194B33B9039B073323F007030833039314E003AB00932A46144B04A94046AFF3008007E003AB00932A460F4B04A9404600F0A2
:402B000093F8B0F1FF3F824603D0099B5344099342E7AB895B0601D4099801E04FF0FF301DB0BDE8F08F00BF663600006C3600007036000000000000A12800002DE9F0478C
:402B400091461F460A698B6806469342B8BF1346C9F8003091F843200C46DDF8208012B10133C9F800302368990642BFD9F800300233C9F80030256815F0060510D104F171
:402B8000190A07E00123524639463046C04701301AD00135E368D9F800209B1A9D42F1DB94F843302268003318BF012392060FD5E118302081F843005A1C94F84510224471
:402BC000023382F8431003E04FF0FF30BDE8F08704F1430239463046C0470130F4D02268D9F80050E36802F00602042A08BF5D1B2269A3680CBF25EAE57500259342C4BF97
:402C00009B1AED184FF000091A344D4509D00123224639463046C0470130D5D009F10109F3E70020BDE8F0872DE9F04317460A7E85B06E2A984606460C460C9B01F1430E00
:402C400000F0AE8011D8632A22D009D8002A00F0BB80582A40F0CA8081F84520834955E0642A1ED0692A1CD0C0E0732A00F0B08009D86F2A2ED0702A40F0B8800A6842F047
:402C800020020A603EE0752A24D0782A3AD0ADE01A6801F14205111D1960136884F84230A8E021681A6811F0800F02D0111D196008E011F0400F02F10401196002D0B2F911
:402CC000003000E01368002B3CDA2D225B4284F8432037E021681A6811F0800F02D0111D196007E011F0400F02F10401196001D0138800E01368227E5C496F2A14BF0A22C6
:402D000008221BE078225A4984F845202268186812F0800F00F104051D6003D1550601D5038800E00368D00744BF42F0200222601BB9226822F0200222601022002084F8D1
:402D4000430001E049490A226568002DA56008DB206820F0040020602BB9002D7DD175460CE0002B79D07546B3FBF2F002FB1033CB5C05F8013D03460028F5D1082A0BD1C7
:402D80002368DA0708D5236962689A42DEBF302305F8013C05F1FF35C5EB0E0323612EE008681A6810F0800F496903D0101D1860136808E010F0400F02F1040018601368AA
:402DC00001D0198000E0196000232361754616E01A68111D1960156800216268284600F049F808B1401B6060636804E004F1420584F8422001232361002384F84330CDF86C
:402E000000803B4603AA21463046FFF797FE013002D14FF0FF3026E023692A4639463046C0470130F5D023689B0710D5002504F1190907E001234A4639463046C047013000
:402E4000E7D00135E368039A9B1A9D42F2DBE068039B9842B8BF184605E00B7804F1420584F842308AE705B0BDE8F083773600008836000010B5C9B202449042034605D0D6
:402E80001C7801308C42F8D1184610BD002010BD884210B501EB020301D8421E0BE09842FBD28118D21AD34204D013F8014D01F8014DF8E710BD994204D011F8014B02F89B
:402EC000014FF8E710BD000038B50546002944D051F8043C0C1F002BB8BFE41800F0D4F81E4A1368114613B96360146030E0A3420DD92268A018834201BF18685B68121807
:402F0000226063600C6023E0A24203D813465A68002AF9D118681918A1420BD12168014458188242196013D110685268014419605A600DE002D90C232B6009E0216860182A
:402F4000824201BF106852680918216062605C602846BDE8384000F098B838BD9081FF1F70B5CD1C25F0030508350C2D38BF0C25002D064601DBA94202D90C23336046E0C0
:402F800000F082F8234B1C681A462146A1B10B685B1B0ED40B2B03D90B60CC18CD501EE08C420BBF63684B681360636018BF0C4615E00C464968E9E7174C23681BB93046E0
:402FC00000F052F820602946304600F04DF8431C18D0C41C24F00304A0420DD12560304600F053F804F10B00231D20F00700C31A0ED05A42E25070BD211A304600F034F8EB
:403000000130EBD10C233360304600F03EF8002070BD00BF9081FF1F8C81FF1FF8B5074615460E4621B91146BDE8F840FFF798BF1AB9FFF749FF2846F8BD00F027F88542D1
:403040000ED929463846FFF78BFF044650B131462A46FFF7EDFB31463846FFF735FF01E03046F8BD2046F8BD38B5064C0023054608462360FDF7B8FF431C02D1236803B10C
:403080002B6038BD2082FF1F7047704751F8040C0028BEBF091851F8043CC0180438704700000000434F4E54524F4C20524547495354455220313A203078253032580D0A00
:4030C000000000004572726F72206F6363757272656420647572696E672049324320636F6D6D20746F207265616420636F6E74726F6C20726567697374657220310D0A002F
:40310000434F4E54524F4C2052454749535445522031207375636365737366756C6C79207772697474656E2061733A203078253032580D0A000000004572726F72206F633E
:4031400063757272656420647572696E672049324320636F6D6D20746F2073657420636F6E74726F6C20726567697374657220310D0A0000434F4E54524F4C205245474992
:403180005354455220333A203078253032580D0A000000004572726F72206F6363757272656420647572696E672049324320636F6D6D20746F207265616420636F6E7472AD
:4031C0006F6C20726567697374657220330D0A00434F4E54524F4C2052454749535445522033207375636365737366756C6C79207772697474656E2061733A20307825304F
:4032000032580D0A000000004572726F72206F6363757272656420647572696E672049324320636F6D6D20746F2073657420636F6E74726F6C2072656769737465722033B1
:403240000D0A0000434F4E54524F4C20524547495354455220343A203078253032580D0A000000004572726F72206F6363757272656420647572696E672049324320636F4B
:403280006D6D20746F207265616420636F6E74726F6C20726567697374657220340D0A00434F4E54524F4C2052454749535445522034207375636365737366756C6C792005
:4032C0007772697474656E2061733A203078253032580D0A000000004572726F72206F6363757272656420647572696E672049324320636F6D6D20746F2073657420636FA0
:403300006E74726F6C20726567697374657220340D0A0000434F4E54524F4C20524547495354455220353A203078253032580D0A000000004572726F72206F6363757272C3
:40334000656420647572696E672049324320636F6D6D20746F207265616420636F6E74726F6C20726567697374657220350D0A00434F4E54524F4C205245474953544552BA
:403380002035207375636365737366756C6C79207772697474656E2061733A203078253032580D0A000000004572726F72206F6363757272656420647572696E6720493295
:4033C0004320636F6D6D20746F2073657420636F6E74726F6C20726567697374657220350D0A00004649464F20434F4E54524F4C2052454749535445523A203078253032CA
:40340000580D0A004572726F72206F6363757272656420647572696E672049324320636F6D6D20746F2072656164204649464F20636F6E74726F6C207265676973746572A0
:40344000200D0A004649464F20434F4E54524F4C205245474953544552207375636365737366756C6C79207772697474656E2061733A203078253032580D0A004572726F35
:4034800072206F6363757272656420647572696E672049324320636F6D6D20746F20736574204649464F20636F6E74726F6C207265676973746572200D0A0000494E543223
:4034C00020434F4E46494755524154494F4E2052454749535445523A203078253032580D0A0000004572726F72206F6363757272656420647572696E672049324320636F5D
:403500006D6D20746F207265616420494E543220434F4E46494755524154494F4E205245474953544552200D0A000000494E543220434F4E46494755524154494F4E20527A
:4035400045474953544552207375636365737366756C6C79207772697474656E2061733A203078253032580D0A0000004572726F72206F6363757272656420647572696E17
:40358000672049324320636F6D6D20746F2073657420494E543220434F4E46494755524154494F4E205245474953544552200D0A00000000416363656C65726174696F6ED0
:4035C00020646174613A202564202564202564203078253032582028307825303258290D0A00000020454550524F4D2052656164203D203078253032582028307825303227
:4036000058290D0A00000000035B00402443004040000000C84900401900004F00400C00405100403000F05100401000000001400010001401408006001B0140000100400D
:403640000140000A004C0140000200500140200060520040CC0800480600801A0140D408004880004300232D302B2000686C4C006566674546470030313233343536373826
:4036800039414243444546003031323334353637383961626364656600000000F8B500BFF8BC08BC9E4670474D00000065100000F8B500BFF8BC08BC9E46704729000000F1
:4036C000D0360000C880FF1F88000000D80000000000000001000000050000002882FF1F01FF00000000E02EC05D00001800000000366E0100000000000000000000000048
:4037000000000000000000000000000000000000000000006436000000000000000000000000000000000000000000000000000000000000000000000000000000000000EF
:403740000000000000000000000000000000000000000000EC80FF1F00000000000000000000000000000000000000000000000000000000000000000000000000000000BF
:403780000000000000000000000000000000000000000000000000000000000000000000000000000000000000000000000000000000000000000000000000000000000009
:4037C00000000000000000000000000000000000000000000000000000000000000000000000000000000000000000000000000000000000000000000000000000000000C9
:403800000000000000000000000000000000000000000000000000000000000000000000000000000000000000000000000000000000000000000000000000000000000088
:403840000000000000000000000000000000000000000000000000000000000000000000000000000000000000000000000000000000000000000000000000000000000048
:020000040003F7
:0200000480007A
:40000000024F0040035200400464004004650040020301405704014043050140120701405F080140470901401D0B0140610C0140350D0140161501404F1601403D1701400A
:400040005718014047190140081A0140561B014004400140094101400542014008430140024401400545014008460140034701400B48014017490140094C01400F4D014062
:40008000075001400251014001300A36002018C01940840F850F880D8D0D8638880D890F8B728302E6020060048408010C84100412801456160918801A041C071E38208424
:4000C000280A2A102C043080327F3408360238083E51403241014260440545BE46CD470F481F49FF4AFF4BFF4C224EF04F085004540758045A045B045C015D515F0162C01B
:40010000644065016610671168C069016B116C406D016E406F018598870289028B988D9A913893C095FC970399219BD8A19AA502A601A913AB64AD98AF02B1E0B30FB40140
:40014000B713BB0AD602D728D804D904DB04DC16DD10DF01009001060808099210811208150818141A801B841C082588260927202C802F1A310233013409360137203C8029
:400180003D24400841884801492A50045160531059015A6865046CD06D246F0374407540816089408C108D109108980899049F03A001A780A808A904B001B104B301B780AB
:4001C000C00FC20FC42BCAF0CCE0CE70D00ED20CD60FD840E005EA08EE05900896689D019F02A004A840A920AA40AB04AD08B180B208B308B404E002E602E801EC090502C4
:400200000E010F011101150116011A022E0230023103340139023A803E11401345EC4702481349FF4AFF4BFF4F01501852805401580459045A045B045C225D775F0160408B
:40024000624064406540668068806A806C806E80800C82718410864087138A038CDC8E228F0C912C9303941096AC981499319B06A131A30EAA20AB08AC09AED0B0E0B10F7B
:40028000B330B41FB908BA02BB02BF04C062C101C50CC6B0C70EC819C9FFCAFFCBFFCEF0CF44D00CD440D604D804D904DA04DB04DC22DD12DF01E6C0EA40EB02004001264D
:4002C00002100701080809200F281206178019221B021C091E4020402102220123102480260229022A1231123408350238843A043C444004420245044780482049104F0501
:4003000051205208550457045E405F056148622063407780874091049320971099409A24A108A201A802AB04AC08B220B310B580C08FC266C483CA05CCC5CE5AD05CD204BF
:40034000D6D0D80FE002E820ECC0048005408040820188408E108F1091049480961097309A049C4A9D809E219F14A108A201AB82AF08B020B201B701E080E450E840EA808F
:40038000EC20EE80048D081109050A220B3A0E8010021102120D130D148D1720180D1A801C421E08208D21092336248D2513270C28622A142C40300F328035303670370FCB
:4003C0003A823B803E044006450449FF4A074BFF4C404D204EF04F05500854095604580459045A045B045C115D125F01604061A862406320820586048F019209A901AE0222
:40040000B002B208B404B601B701BE10C040C102C5D0C621C80EC9FFCAFFCBFFCDA0CF04D018D280D405D804D904DA04DB04DC44DD44DF01E040E2C0E440E540E6C0E8C0A8
:40044000EAC0ECC0EEC0010203200480060807100B800C200E521380144015501601170419021A0A1B061D081E421F802240270A2B042E082F90370A3B803D103E204322CD
:4004800049014D044F105360560459015A885C2A5D806742738087408C208D40C0ECC2F8C4F1CAC4CCC0CE28D005D220D6FBD89083018480880889208A108C8097019C886C
:4004C0009E10A480A520A940AC02AD40B302E008E213E401E602EA09EC08EE040007050106040702080118071B0122083001320833023402360437015418580459045B044F
:400500005C655D205F01840789078A108C0890029107920194019602970898049C079D04A210A608A808AB09AE08B003B101B208B308B410B504B604B702B808BE10BF04D6
:40054000C030C106C5D1C640C752C83FC9FFCAFFCBFFCDA0CF04D018D280D804D904DA04DB04DC52DD55DF01E040E2C0E440E540E6C0E8C0EAC0ECC0EEC0001001400210BD
:4005800005140640088809200A800C20108A13041680181019601A801B021D141E401F882181221427222B083180320A37203B203C084308482049014A08524A53105F01B3
:4005C000640265207280870489018B808C08966898029D019F02A004AC02B404C077C24FC41FCA04CC2BCE44D002D204D680D830E2ABEE02011009100C0711041309151071
:40060000190E1C0124072503270429052A042B0A2D102E083001311032043408350F360239203F014020410445D046024710482E49FF4AFF4BFF4DA04F045018528054057E
:40064000580459045A045B045C155D555F01604062C06440654066C068C06AC06CC06EC08040822084E08C138E049080922094139501960C98E09C0A9E14A020A2C0A40373
:40068000A614AA15AE08B0E0B301B40FB610BA20BE40BF04D401D804D904DB04DC02DD20DF010002010403020403060108080A060B800E01107012061618174019501B0105
:4006C0001C201D201E811F20220424402610280829102EA02F11320836153C013D203F10452046484D0155405651581059415A085D095E8077408040841086808C019001AA
:400700009202932099209A249C089D109F01A020A20BA302A710AC04B620C08DC28FC4EFCA70CCE2CEA0D0A0D6DFE001E610E810060208012E02300132023E0558045F017B
:40074000012003200402060107140C400E680F021180141015181602190A1DA01E481F0524802518261027012C102E422F043460360437023E283F8145A047014C114D10A4
:400780004F8057105C605D106C026E046F0876297716810A8504870888038A068C108D108F0190429118948095049604970299209C409D089F01A140A321A401A510A604F2
:4007C000A710A901AA0CAD10AF10B104B340C0F6C2F0C4E1CAF0CCF0CEF0D0B0D230D610E008E292E405E6E0EA01EC80318033083620CC705E01628081808708A580A62079
:40080000A708D6C0E6C03E10A6A0AE01CE20EA10854086209610A620AA80E040E640EE207C01DE01002253109401C00AD40445029401B011B310D001E804EA01EE018502B7
:400840009401A502254066048204870888108B019610A540C820D880E290122016405F086302641070047610822086508C0498109B08A301AA10C430D6C0D880DC80DE2048
:40088000E010E240E480EA801220132017017B107F4080019401C40EDE031040700180018310874188408E2097809B01A220A710AB20C408DC01E20900F60A620C860E1612
:4008C00010661A641C26003F03C0000002800000430000004F3C00C20C0800000418000008FF00000F1040000CE7431843000CE303C0100000440000028020000000430498
:40090000011CA0E14C0080C00F1F3038000222200000400126050400010EC00009FFFFFF62A0F0410C00000000000210040404042222000100000000000040020010301036
:4009400000101012000000000000000000000000000000000060600060000000830050808300830000000000000B0B0000000000140001161200020000000000E00000E0B7
:40098000E000E00008000000250018010000000000000000000000000000000000000000000000000000000000000000000000000000000000000000000000000000000031
:4009C00000000000000000000000000000000000000000000000000000000000000000000000000000000000000000000000000000000000000000000000000000000000F7
:400A000000000000000000000000000000000000000000000000000000000000000000000000000000000000000000000000000000000000000000000000000000000000B6
:400A40000000000000000000000000000000000000000000000000000000000000000000000000000000000000000000000000000000000000000000000000000000000076
:400A80000000000000000000000000000000000000000000000000000000000000000000000000000000000000000000000000000000000000000000000000000000000036
:0200000490006A
:0400000000004005B7
:0200000490105A
:04000000BC90ACAF55
:0200000490303A
:020000003DECD5
:0200000490402A
:4000000000000000000000000000000000000000000000000000000000000000000000000000000000000000000000000000000000000000000000000000000000000000C0
:400040000000000000000000000000000000000000000000000000000000000000000000000000000000000000000000000000000000000000000000000000000000000080
:400080000000000000000000000000000000000000000000000000000000000000000000000000000000000000000000000000000000000000000000000000000000000040
:4000C0000000000000000000000000000000000000000000000000000000000000000000000000000000000000000000000000000000000000000000000000000000000000
:0200000490501A
:0C00000000012E16106900012E2D4E5537
:00000001FF