:400000000080002011000000611500006115000008B5044B1A6803F53F5302331A6001F0BFFA00BFFA46004010B5054C237833B9044B13B10448AFF300800123237010BDD1
:400040005081FF1F0000000088360000084B10B51BB108490848AFF300800848036803B910BD074B002BFBD0BDE81040184700BF000000005481FF1F88360000C880FF1F76
:40008000000000002DE9F04FE9B062B600F068FC01F00EFB00F04AFD02F08EFCAF4802F0B3FCAF4802F06EFE02F008FC01F092FF02F010FB0023AB4A1360AB4A13600520BF
:4000C00002F0FAFD0DF207122021182000F04EFC48B99DF80721A5495BA802F0B1FE5BA801F000FB02E0A24801F0FCFA9DF807312F2B14D02F228DF807212021182000F0E8
:4001000085FC48B99DF807219A495BA802F098FE5BA801F0E7FA02E0974801F0E3FA0DF583722221182000F021FC48B99DF8062192495BA802F084FE5BA801F0D3FA02E07D
:400140008F4801F0CFFA9DF80631422B14D042228DF806212221182000F058FC48B99DF8062188495BA802F06BFE5BA801F0BAFA02E0854801F0B6FA0DF20512242118208B
:4001800000F0F4FB48B99DF8052180495BA802F057FE5BA801F0A6FA02E07D4801F0A2FA9DF80531452B14D045228DF805212421182000F02BFC48B99DF8052175495BA887
:4001C00002F03EFE5BA801F08DFA02E0724801F089FA41AA2521182000F0C8FB48B99DF804216E495BA802F02BFE5BA801F07AFA02E06B4801F076FA9DF80431202B14D043
:4002000020228DF804212521182000F0FFFB48B99DF8042163495BA802F012FE5BA801F061FA02E0604801F05DFA0DF203122E21182000F09BFB48B99DF803215B495BA85B
:4002400002F0FEFD5BA801F04DFA02E0584801F049FA9DF80331402B14D040228DF803212E21182000F0D2FB48B99DF8032151495BA802F0E5FD5BA801F034FA02E04E4874
:4002800001F030FA0DF581723421182000F06EFB48B99DF8022149495BA802F0D1FD5BA801F020FA02E0464801F01CFA9DF802312A2B14D02A228DF802213421182000F043
:4002C000A5FB48B99DF802213E495BA802F0B8FD5BA801F007FA02E03B4801F003FA0DF201123621182000F041FB48B99DF8012136495BA802F0A4FD5BA801F0F3F902E0D0
:40030000334801F0EFF99DF801312F2B14D02F228DF801213621182000F078FB48B99DF801212C495BA802F08BFD5BA801F0DAF902E0294801F0D6F940AA3721182000F08C
:4003400015FB00284CD19DF8002124495BA802F077FD5BA801F0C6F945E000BF3D0A00005D0A00009881FF1FA481FF1F8C360000AC360000E8360000203700005C37000031
:400380007C370000B8370000F03700002C3800004C38000088380000C0380000FC3800001C3900005839000090390000CC390000EC3900002C3A0000643A0000A43A0000E5
:4003C000CC3A0000143B0000543B00009C3B0000C03B0000043C0000403C0000843C0000C64801F07FF99DF80031032B14D003228DF800213721182000F008FB48B99DF898
:400400000021BF495BA802F01BFD5BA801F06AF902E0BC4801F066F900200C900D900E9000F0FAFDC0F30710B74B187078B91022B64B1A704FF4FA62B54B1A801E22B54B60
:400440001A7080222321182000F0E0FA34E001280FD12022AD4B1A704FF47A62AC4B1A801E22AC4B1A7090222321182000F0CEFA22E002280FD14022A44B1A704FF4FA525C
:40048000A34B1A802822A34B1A70A0222321182000F0BCFA10E003280ED1C0229B4B1A704FF47A529A4B1A8032229A4B1A70B0222321182000F0AAFA934A13781B0143F0D8
:4004C000010313704FF001090023059306939B46984602F0C7F9904B1B68012B02D100F0C3FA8146B9F1010F00F08A81B9F1020F00F0B081B9F1000FEBD1834B197801F040
:40050000F00141EA0901C9B21970002000F09AFD00F0F4FD002000F07FFD049002F0ECF9FF2002F0FDF902F047FA0DF13F022F21182000F01BFA0028CBD19DF83F3013F041
:40054000040F40F04281C4E704EB440310AA02EB430306222821182000F026FA002840F0318110AB6200111903EB410713F811107D7841EA052141F30721DFF890E19EF8BB
:40058000005005FB01F52DB285EAE570A0EBE570B978FE7841EA062141F307219EF8006006FB01F636B286EAE671A1EBE6713F79224403EB42035B7947EA032343F30723C1
:4005C0009EF8007007FB03F73FB287EAE772A2EBE77212B209B200B200F0B4FA0DF13E023521182000F0C2F981469DF83E204B495BA802F025FC5BA801F074F8B9F1000F95
:4006000006D19DF83E3013F0420F01D04FF0010BBBF1000F32D009AB23F8185008F101085FFA88F8B8F1050F32D90C221946022000F036FD00F062FD0C220CA9022000F0C3
:400640001DFDBDF93020BDF93230BDF93410BDF93600BDF938E0BDF93AC0CDF80CC0CDF808E0019000912E495BA802F0E9FB5BA801F038F84FF0000BD84609E0B9F1000F00
:4006800006D19DF83E3013F0480F01D04FF0010ABAF1000F46D009AB23F8186008F101085FFA88F8B8F1050F46D90C221946022000F0F6FC00F022FD0C220CA9022000F088
:4006C000DDFCBDF93020BDF93230BDF93410BDF93600BDF938E0BDF93AC0CDF80CC0CDF808E0019000910E495BA802F0A9FB5BA800F0F8FF4FF0000AD0461DE0A83C000025
:40070000EC3C0000283D00009C81FF1FA881FF1F9681FF1F9481FF1F9881FF1F683D0000803D0000B9F1000F06D19DF83E3013F0600F01D001230593059B8BB309AB23F86A
:40074000187008F101085FFA88F8B8F1050F27D90C221946022000F0A3FC00F0CFFC0C220CA9022000F08AFCBDF93020BDF93230BDF93410BDF93600BDF938E0BDF93AC063
:40078000CDF80CC0CDF808E0019000916D495BA802F056FB5BA800F0A5FF002305939846694B1B780293049B0193009733462A4666495BA802F044FB5BA800F093FF052091
:4007C00002F07AFA0134E4B204E00024DDF818A0CDF81C901F2C7FF6B7AECDF818A0DDF81C9000228DF803212E21182000F00EF940228DF803212E21182000F007F968E686
:40080000514C217801F0F00141EA0901C9B22170002000F017FC00F071FC002000F0FCFB237802464A4942A802F00AFB42A800F059FF02F061F8002002F072F802F0BCF8E2
:40084000FF2001F013FD002001F016FDFF2001F097FC3EE602F050F87F2002F061F802F0ABF8FF2001F002FD002001F005FDFF2001F086FC012000F0CFFB074602F0D2F81C
:4008800004460146012000F0DDFB00F037FC012C35D1002000F0C0FB00F47F604FFA89F545EA0006F6B200F00DFBDFF89CA09AF8001045EA0111C9B28AF80010002000F01B
:4008C000C1FB00F01BFC9AF800309E4209D0A74207D04E221F4942A802F09EFA42A800F001FF002000F098FB174B1B780246184942A802F0A5FA42A800F0F4FEE9E500205E
:4009000000F08AFB00F47F6040EA0906F6B25BAC114D0FCD0FC40FCD0FC40FCD0FC495E80F0007C424F8023B1B0C23705BA800F0D9FE3246094942A802F082FA42A800F0EC
:40094000D1FEC6E5803D00009C81FF1FAC3D0000EC3D0000183E0000683E0000A83E000008B500F017FF002008BD00BFF8B506460D461746002101F089F8044668B9284695
:4009800001F016F9044640B90121304601F0BEF8044610B901F038F9387001F0EDF8201C18BF0120F8BD00BF2DE9F04180460C4616461F46002101F069F80546F0B944F09F
:4009C000800001F0F5F80546C0B90121404601F09DF8054650B111E0C4EB0608012001F013F907F80800013CE4B200E03446012CF2D8013E002001F007F9B85501F0BCF862
:400A0000281C18BF0120BDE8F08100BF70B50D461646002101F03AF8044640B9284601F0C7F8044618B9304601F0C2F8044601F0A3F8201C18BF012070BD00BF08B501F04C
:400A4000F9FE0122034B1A60034A13680133136008BD00BF9881FF1FA481FF1F0122014B1A607047A081FF1F08B501F0D5FE142001F0F2FE01F022FF0022284B1A6003E0AE
:400A800001F0F0FE264B186001F026FF0028F7D0234B1B68112B0ADC224A1268012A06D80022214B1A6002221E4B1A6032E0112B09DC1C4B1B68022B05D100231A4A13603E
:400AC000184A136026E0184B1B68022B0FD101F0C9FE144B5B68984209DD124B1B68012B05D10023104A13600E4A136012E00E4B1B68022B0ED101F0B5FE0A4B5B68984281
:400B000008DD084B1B682BB90022074B1A600122044B1A60034B186808BD00BF9881FF1F6C81FF1FCC80FF1FA481FF1F08B501F0F1FB01F071FB08BD08B501F083FB01F022
:400B40000BFB08BD70B504460D461646BB4B1B881BB2BB4A127802F57A729B1A00D503339B10B84A1380B64B1B78C3F57A739C4209DBB34B1B7803F57A739C4203DC002254
:400B8000B14B1A701EE0AE4B1B78C3F57A739D4209DBAB4B1B7803F57A739D4203DC0122A94B1A700EE0A64B1B78C3F57A739E4208DBA34B1B7803F57A739E4202DC0222CE
:400BC000A14B1A70A04B1B78012B7ED01BB1022B00F0F58070BDFFF7AFFFFF2001F040FB002001F049FBFF2001F0C4FA002001F0C7FAFFF79BFF924B1B78C3F57A739C4295
:400C000010DB8F4B1B7803F57A739C420ADCFFF793FFFF2001F024FBFF2001F027FBFFF785FF70BD864B1B7803F57A739C4213DD834B1B7803F57A73824A128813449C422B
:400C40000ADCFFF779FF412001F00AFB202001F00DFBFFF76BFF70BD794B1B7803F57A73784A128813449C4212DD754B1B7803F57A7303EB42039C420ADCFFF75DFF202086
:400C800001F0EEFA102001F0F1FAFFF74FFF70BD6B4B1B7803F57A7303EB42039C4240F30B81674B1B7803F57A7303EB8202944200F30281FFF740FF102001F0D1FA0820AF
:400CC00001F0D4FAFFF732FF70BDFFF735FFFF2001F0C6FA002001F0C9FAFF2001F04AFA002001F04DFAFFF721FF554B1B78C3F57A739D4210DB524B1B7803F57A739D42BB
:400D00000ADCFFF719FFFF2001F0AAFAFF2001F0B3FAFFF70BFF70BD494B1B7803F57A739D4213DD464B1B7803F57A73454A128813449D420ADCFFF7FFFE412001F090FA29
:400D4000202001F099FAFFF7F1FE70BD3C4B1B7803F57A733B4A128813449D4212DD384B1B7803F57A7303EB42039D420ADCFFF7E3FE202001F074FA102001F07DFAFFF763
:400D8000D5FE70BD2E4B1B7803F57A7303EB42039D4240F391802A4B1B7803F57A7303EB8202954200F38880FFF7C6FE102001F057FA082001F060FAFFF7B8FE70BDFFF74D
:400DC000BBFEFF2001F04CFA002001F04FFA002001F052FAFFF7AAFE194B1B78C3F57A739E4210DB164B1B7803F57A739E420ADCFFF7A2FEFF2001F0BDF9FF2001F0C0F964
:400E0000FFF794FE70BD0E4B1B7803F57A739E421CDD0B4B1B7803F57A730A4A128813449E4213DCFFF788FE412001F0A3F9202001F0A6F9FFF77AFE70BD00BF9681FF1FA8
:400E40009481FF1FAC81FF1FAA81FF1F1B4B1B7803F57A731A4A128813449E4212DD174B1B7803F57A7303EB42039E420ADCFFF763FE202001F07EF9102001F081F9FFF746
:400E800055FE70BD0D4B1B7803F57A7303EB42039E4211DD094B1B7803F57A7303EB8202964209DCFFF748FE102001F063F9082001F066F9FFF73AFE70BD00BF9481FF1F68
:400EC000AC81FF1F08B501F089FC454B1860002801DA00221A60424B1B68B3F5803F03DB4FF6FF723E4B1A603D4B186801F064FC3C4B188080B240F2E143984216D80022D5
:400F0000394B1A704FF4FA62384B1A801022384B1A701E22374B1A708022374B1A7023211820FFF773FD354B187008BDA0F2E2439BB240F2E142934216D801222A4B1A70C1
:400F40004FF47A62294B1A802022294B1A701E22284B1A709022284B1A7023211820FFF755FD264B187008BDA0F6C4139BB240F2E142934216D802221B4B1A704FF4FA5221
:400F80001A4B1A8040221A4B1A702822194B1A70A022194B1A7023211820FFF737FD174B187008BDA0F6A66080B240F2E243984215D803220C4B1A704FF47A520B4B1A80B3
:400FC000C0220B4B1A7032220A4B1A70B0220A4B1A7023211820FFF719FD084B187008BDE881FF1FE681FF1F9C81FF1F9681FF1FA881FF1F9481FF1FB081FF1FEC81FF1F53
:4010000008B5052000F098F808BD00BF08B5062000F07CF808BD00BF00B583B003218DF80410030A8DF805308DF8060001230DEB010201A800F09AF89DF8030003B05DF81E
:4010400004FB00BF30B583B004460D46FFF7DEFF02238DF80430230A8DF805308DF806408DF80750002302AA02F8053D04210DEB010000F07BF803B030BD00BF10B582B0DC
:4010800003248DF80440030A8DF805308DF8060013460A46214601A800F068F802B010BD2DE9F04182B000AF054688461446FFF7ADFF012001F016FEE61C04F10A0323F0EC
:4010C0000703ADEB030D02238DF800302B0A8DF801308DF80250224641460DF1030001F09BFE002307F1080202F8013DF1B2684600F03CF80837BD46BDE8F08108B5FFF74B
:401100007FFF10F0010FFAD108BD00BF10B50446002001F00DF8204600F000FE00F0D6FD10F0080FFAD000F063FE0446012000F0FFFF204610BD00BF10B50446002000F0FA
:40114000F7FF204600F0EAFD002000F0E7FD00F0BDFD10F0010FFAD000F04AFE00F048FE0446012000F0E4FF204610BD2DE9F04383B006460C4617469846002000F0D8FFA9
:4011800064B2002511E02146082CA8BF0821C9B206EBC50000F0A8FE00F098FD10F0010FFAD0083C64B201356DB2002CEBDC00F0ABFE00F04FFE0026009601964FFA88F81E
:4011C00020E0C146B8F1080FA8BF4FF008095FFA89F1684600F088FE00F078FD10F0010FFAD0002406E004EBC60500F001FE78550134E4B24C45F6DBA8F108084FFA88F81C
:40120000013676B2B8F1000FDBDC012000F090FF00F07AFE00F01EFE00F03CFE03B0BDE8F08300BFFEE700BFF0B40022174611E050F82760F3B226F0FF0608E001EB4205B6
:4012400011F812406D78A5550132013BDBB2002BF4D10137232FEBD9F0BC70470A4B1B78DBB203F00701094A11701B09013213700822074B1A708023064A137058321370F0
:401280004422054B1A707047CF0100496E5800403D510040005B00407658004008B50A46002101F0C4FD08BD08B501F0B5FD08BD38B50024404B1C80502202331A700B2241
:4012C00002331A8018233D4A13703321023211800232137045F6BF51023211800232137045F6E8330232138019250232157002321380334B1D7047F22F5202331A8002339F
:401300001D7040F2E73202331A801B2202331A7004222C492C48FFF7C7FF02222B4B1A7008224FF040231A70032103F500731970274B1B78DBB227490B70274B1A8041F2F1
:401340005122023B1A800CE0244B1B7803F0010343EA440404F003044FF4F07001F020FD013D0DB1032CEFD115B90320FFF75AFF1B4B4FF480721A8007221A700022194986
:401380000A704820023108701A700222033B1A7004220A331A7003F297331A78FF221A70114A137843F001031370013A137843F08003137038BD00BF8040004086400040E8
:4013C0009640004068090048004100400043004008010049A146004022420040254200400440004006400040A1430040012807D8044B53F820201844017A13780B43137013
:40140000704700BFCC3E0000012808D8044B53F820201844017A137823EA010313707047CC3E000038B572B6394A137843F00403137000240BE0374863001A1951000144F8
:401440000A46098AD068FFF729FF0134E4B2092CF1D900240CE02F48A20011194B000344B3F85020D96C986CFFF71EFF0134E4B2012CF0D928494FF09040FFF7D5FE0A24D5
:40148000264B1C70264A137843F0020313701032137843F002031370224D2B7843F040032B70A2F58632513A137843F01003137008221D491D48FFF7F7FE22461C491D488E
:4014C000FFF7F2FE08221C491C48FFF7EDFE22461B491C48FFF7E8FE22461B491B48FFF7E3FE1B4A137843F008031370194C61232370FFF7DDFE812323700122164B1A70DD
:40150000FFF7ACFE0E2229461448FFF7CDFE38BDE8460040CC3E0000900000488358004003500140A043004034090048025100403C090048C0510040480900481251004006
:4015400050090048205100405C09004830510040224300400048004004000840B043004008B501F02DFC03680C2B00D1FEE7FEE708B5094B1A681044084BC31A802B02DC4B
:40158000054B186005E001F01BFC0C2303604FF0FF32104608BD00BFD480FF1F2882FF1F08B5104E104D16E029686B68AC68002204E051F8040B43F8040B0432A242F8D1EF
:4015C000E868002203E0002143F8041B04328242F9D11035013E002EE6D101F0F7FBFEF751FDFEE701000000843F000008B5104A104B1A60104A136843F40073136000231E
:401600000AE0032B03D80D4A52F8231000E00C490C4A42F8231001332F2BF2D90A4B1A780A4B1A70074A0A4B1A60FFF7FBFE08BD0004FA050CED00E014ED00E0000000003B
:40164000611500000080FF1FBC760040C080FF1F08ED00E07222074B1A70202205331A700622643B1A70472210331A70002251331A7070478465004010B501F099FB044612
:401680000A4A137843F0200313700532137843F010031370033A137843F01003137001F0C9F9204601F088FB10BD00BF9465004008B5054B1B7823B9FFF7CCFF0122024B57
:4016C0001A70FFF7D9FF08BD7481FF1F034B1B7813F0040FFAD1024B18707047666500404665004038B5074B1B782BB938BDFFF7EDFF0134A4B201E005460024285D002861
:40170000F5D138BD7481FF1F10B50222114B1A7081220E3B1A70082202331A70042211331A70002401331C704FF400420A4B1A6007210F2001F0F4FA08490F2001F0DCFA04
:401740001022074B1A70074B1C70074B1C70074B1C7010BDD649004080E100E0BD170000ED81FF1FFD81FF1FF081FF1FF181FF1F08B501F01DFB064A137843F004031370DB
:401780001032137843F00403137001F015FB08BDA543004008B5074B1B7823B9FFF7B4FF0122044B1A70FFF7E3FF4FF40042024B1A6008BD7681FF1F00E100E038B5A54BF2
:4017C0001C78A54B1B7813F0400F00F03A81E4B214F0010F00F01D819F4B1B78453B052B00F21481DFE813F006008200120112010600DF0004F0DF0504F00A04082C42D16B
:40180000954B1B78DBB2452B35D1944B1B7813F0FF0F10D0924B1B681B78DBB2914A137004228C4B1A7001228F4B1A7046228A4B1A702C46EDE08D4B1B7813F0020F0DD081
:401840008B4A137843F00A0313706022824B1A704FF40042874B1A602C46DAE0864A137843F0100313701022844B1A700422023B1A702C46CDE00022764B1A704A22764B1A
:401880001A702C46C5E00A2C2BD1794A137843F0A0031370754B1B7813F0020F14D06E4B1B7813F0080F01D0092300E00A23704A11780B4313706022674B1A704FF400429C
:4018C0006C4B1A602C46A4E06B4A137843F0100313701022694B1A700422023B1A702C4697E0002001F0E6F92C4692E014F0020F36D15D4B1A78D2B2584B1B78DBB29A4225
:4019000010D2594A1378DBB255490968CB5CDBB254490B7004214F4B197013780133DBB2137076E0514B1B7813F0020F0CD0504A137843F00A0313706022474B1A704FF4DA
:4019400000424C4B1A6064E04B4A137843F0100313701022494B1A700422023B1A7058E0424B1B7813F0020F0CD0414A137843F09A0313706022384B1A704FF400423D4B5D
:401980001A6046E03C4A137843F01003137010223A4B1A700422023B1A70354A137843F09003137035E0364A1378DBB2354908682C490978C9B2C15413780133DBB213703C
:4019C0001278D2B2304B1B78DBB29A4203D21022204B1A701DE0254B1B7813F0020F0CD0234A137843F00903137060221A4B1A704FF400421F4B1A600BE01F4A137843F0D0
:401A0000100313700022134B1A7002E0002001F051F914F0200F1CD00F4B1B7813F0080F01D0012300E00223114A11780B431370114A137803F0EF0313701022064B1A7099
:401A400038BD054B1B7813F0100F02D11022024B1A7038BDD7490040ED81FF1FF281FF1FF481FF1FD8490040F181FF1FFC81FF1FFD81FF1F80E100E0D6490040D949004061
:401A8000F081FF1FF881FF1FFE81FF1F1A4B1B78DBB2102B29D1194B1B7813F0080F26D14FF40042164B1A604000C0B229B140F001004922104B1A7002E045220E4B1A7008
:401AC000104B1870012201331A700F4B1B7813F0010FFAD00C4B1B7803F00A030A2B08D11022054B1A700320704702207047012070470020704700BFED81FF1FD949004045
:401B000080E100E0D8490040D7490040164B1B7813F0040F23D04000C0B229B140F001004922124B1A7002E04522104B1A70104B1870122201331A700422023B1A700D4B4F
:401B40001B7813F0010FFAD00A4B1B7803F00A030A2B06D11022054B1A7003207047022070470020704700BFD9490040ED81FF1FD8490040D74900400A4B1B7813F0040FFF
:401B80000ED01023074A13700421023A1170064A1370064B1B7813F0210FFAD00020704702207047D9490040ED81FF1FD7490040114B1B7813F0040F1BD0104B18700422B3
:401BC000013B1A7046220E4B1A700E4B1B7813F0010FFAD00B4B1B7813F0020F04D16022074B1A70002070476022054B1A70032070470220704700BFD9490040D849004073
:401C0000ED81FF1FD7490040114B1B7813F0040F1BD0104B1B78DBB2492B05D100220E4B1A704A220B4B1A700B4B1B7813F0010FFAD00A4B1B78DBB218B11021064A1170AC
:401C400004E06021034A117000E0002318467047D9490040ED81FF1FD7490040D84900400422014B1A60704700E100E00222014B1A60704700E100E008B501F099F80C4A0F
:401C8000137843F020031370023A137843F0100313700132137843F01003137001F08CF800F0D6FEFFF7DCFFFFF7E0FF08BD00BF976400400422014B1A60704780E100E027
:401CC0000222014B1A60704780E100E010B5FFF7F1FF064B1C78064A137803F009031C4300231370FFF7BCFF204610BD656400400C82FF1F10B5FFF7E3FF064B1B78064A29
:401D0000147804F040041C4300231370FFF7AEFF204610BD666400401D82FF1F10B504462B4B1A7802F0FF0312B1013BDBB200E00723284A1278D2B29342F1D0FFF7BAFFD7
:401D4000254B1978254A137803F009030B4313701F4B1A78D2B21F4B1B78DBB29A4207D11E4B1B7813F0040F02D01D4B1C702CE0184A13780133DBB213701378DBB2072B7B
:401D800002D90022134B1A70124B1A78D2B2104B1B78DBB29A420ED10D4A13780133DBB213701378DBB2072B02D90022084B1A7001220C4B1A70074B1B78DBB20A4AD45459
:401DC0000A4A137843F004031370FFF749FF10BD1982FF1F1B82FF1F656400400C82FF1F456400401882FF1F0482FF1F8564004010B5FFF765FF134B1A78D2B2124B1B7822
:401E0000DBB29A4214D0114B1B7813F0FF0F0CD10C4A13780133DBB213701378DBB2072B06D90022074B1A7002E00022074B1A70044B1B78DBB2064AD45CE4B2FFF716FFBC
:401E4000204610BD1C82FF1F1A82FF1F0082FF1F1082FF1F08B501E0094B1B78094B1B7813F0200FF8D1FFF72BFF0023064A1370064A1370064A1370FFF7F8FE08BD00BFD6
:401E800055640040666400400082FF1F1C82FF1F1A82FF1F08B500F08BFF0E4B1A7842F001021A701A7802F0FE021A7000F084FFFFF700FF0023084A1370084A1370084A93
:401EC0001370084A137803F0FB031370FFF7C8FE08BD00BF956400401882FF1F1982FF1F1B82FF1F8564004070B506460C46002506E0705DFFF712FF0135EDB2013CE4B2F6
:401F0000002CF6D170BD00BF08B501E00A4B1B780A4B1B7813F0200FF8D100F049FF084B1A7842F001021A701A7802F0FE021A7000F042FF08BD00BF5564004066640040B7
:401F40009564004010B50F22174B1A70174C042323600721022000F0E3FE1549022000F0CBFE022323600721012000F0D9FE1149012000F0C1FEFFF7C7FF00240E4B1C703E
:401F80000E4B1C700E4B1C700E4B1C700E4B1C700E4B1C70FFF79AFEFFF7ACFE0C4B1C70202201331A7010BD8764004080E100E0F11F0000912000000082FF1F1C82FF1F41
:401FC0001A82FF1F1882FF1F1982FF1F1B82FF1F8564004008B5054B1B7823B9FFF7B2FF0122024B1A70FFF747FE08BD7781FF1F28E01F4B19781F4A137803F009030B435B
:402000001370137813F0040F24D01B4B1B7813F0FF0F0CD1194A13780133DBB213701378DBB2072B06D90022144B1A7002E00022114B1A70114B1B78DBB2114AD35CDBB2BE
:40204000104A13700D4B1A78D2B20F4B1B78DBB29A42CED1094B1A78D2B20B4B1B78DBB29A4204D1094A137803F0FB0313707047656400400C82FF1F1882FF1F1982FF1F60
:402080000482FF1F456400401B82FF1F85640040204B1A7820490B7803F0400313430B7032E01E4B1A78D2B21D490B780133DBB20B700B78DBB2072B02D90021184B1970DF
:4020C000174B1978C9B2174B1B78DBB299420ED114490B780133DBB20B700B78DBB2072B02D900210F4B197001210F4B19700C4B1B78DBB20D49CA54064B1A7806490B7854
:4021000003F0400313430B70034B1B7813F0200FC7D17047666400401D82FF1F556400401A82FF1F1C82FF1F0082FF1F1082FF1F044A137803F0EF03000100F01000184396
:402140001070704720510040024A137843F080031370704778640040024A137803F07F031370704778640040014B1870704700BF09640040014B1870704700BF49640040C4
:40218000014B1870704700BF29640040014B1870704700BF88640040014B1878704700BF68640040014B1878704700BF5964004008B501E0FFF7F6FFFFF7EEFF10F0100F5A
:4021C000F8D108BD08B5124A137803F0C00343F00B0313702132137843F001031370FF20FFF7C2FFFF20FFF7C5FF0020FFF7C8FF0020FFF7CBFF00F0DBFD064A137843F059
:402200001003137000F0D8FDFFF7D2FF08BD00BF786400409864004008B5054B1B7823B9FFF7D0FF0122024B1A70FFF78DFF08BD7881FF1F024A137843F080031370704740
:4022400078650040024A137803F07F031370704778650040014B1870704700BF08640040014B1870704700BF48640040014B1870704700BF28640040014B1870704700BF12
:4022800038640040014B1870704700BF88650040014B1878704700BF68650040014B1878704700BF5864004008B501E0FFF7F6FFFFF7EEFF10F0100FF8D108BD08B5134AEB
:4022C000137803F0C00343F01B031370E03A137843F001031370FF20FFF7BCFFFF20FFF7BFFF0020FFF7C2FF0020FFF7C5FF0020FFF7C8FF00F05CFD054A137843F01003D0
:40230000137000F059FDFFF7CFFF08BD786500409865004008B5054B1B7823B9FFF7CEFF0122024B1A70FFF785FF08BD7981FF1F10B59DF80840012C51D1013809282ED800
:40234000DFE800F0052D2D052D2D0F192D230F2B03D92548007840B222E02448007840B21EE00F2B03D92248007840B218E02148007840B214E00F2B03D91F48007840B21D
:402380000EE01E48007840B20AE00F2B03D91C48007840B204E01B48007840B200E0002001EB401101FB02F1C90B8AB20D2B0BD8C3F10E0289B211418AB2611E124800EB38
:4023C000810101338B7005E0631E0F4901EB83030F219970013C0C4B23F8242010BD002000F068FC10BD00BF180100491C010049190100491D0100491A0100491E010049A5
:402400001B0100491F0100497C81FF1FF8B5074600F0CEFC06460D4D2B7843F003032B700B4C237843F0030323700A4B1F70032000F058FC2B7803F0FC032B70237803F01B
:40244000FC032370304600F0B7FCF8BDF8460040F9460040925800400022324B1A7101285FD170B53822304B1A70042202331A70062201331A70002401331C7001331C705F
:402480003F2201331A7002331C7001331C7001331C7001250A331D70502203F527631A700A2201331A702C2201331A7001331C70442203331A70482201331A7001331D7089
:4024C00002331D70112201331A70192201331A70972201331A705220FFF798FF5822134B1A7001331C70052605331E70022201331A7001331C7001331C70204600F0C6FA2F
:4025000043F233320A4B1A602946304600F0E2FA2946252000F062FB06491D2000F0ECFB70BD70477C81FF1F004E0040945800402082FF1F05280000F0B583B0284D012702
:402540002F70284E00247471102000F0B1FA102000F032FB07211D2000F0E2FB0422224B1A7001331C7007331C70204A137843F0180313701E4B1C7003F2F5231C700133C8
:402580001C700A22A3F209331A7001331C7002331C705B2205331A705E2201331A7004331C701422A3F68C231A70009710234FF4004248F6F0510220FFF7BAFE2B78013BC2
:4025C00006EB83039A780B4B1A702B78013B36F82320094B1A802878FFF73EFF03B0F0BDD880FF1F7C81FF1F96580040075B0040935800400E4E00400C4E004070B500F02A
:40260000D7FB06462A4B1B782A4B1A7842F001021A701A7842F010021A7010331A7842F001021A701A7842F010021A70224D2B7843F002032B70214C237843F002032370A2
:402640001F4A137843F003031370032000F04AFB2B7803F0FD032B70237803F0FD032370184A137843F0060313707A22164B1A70164A137843F0010313701032137843F028
:40268000010313700F3A137843F0010313701032137843F0010313704FF000530C4A1360A2F5C0721360304600F086FB70BD00BFD880FF1FAA430040F8460040F946004074
:4026C000915800407758004082580040A143004080E200E008B5084B9B794BB9064BDB7913F0FF0F01D1FFF727FF0122024B9A71FFF784FF08BD00BF7C81FF1F024A1378EC
:4027000043F0010313707047004E0040024A137803F0FE0313707047004E0040094B1B7913F0FF0F03D0074B5B79DBB203E0064B1B7803F00103012B01D00028EED0184689
:40274000704700BF7C81FF1F014E0040154B1B7803F00303012B07D8134B1888023B1B889BB243EA004013E0022B0AD10E4B1888023B1B7843EA00430C4A107843EA00204B
:4027800006E00B4B188883B2074A108843EA0040084B1B7913F0FF0F02D00022054B5A71704700BF144E0040124E0040114E0040104E00407C81FF1F064B9B68C01A4FF42A
:4027C0007A7303FB00F0044B1B6890FBF3F000B2704700BF7C81FF1F2082FF1F10B5084A137843F004031370FFF788FF0020FFF795FFFFF7ABFF0446FFF788FF204610BD9B
:40280000014E0040704700BF024A137843F080031370704777650040024A137803F07F031370704777650040014B1870704700BF87650040014B1878704700BF676500403A
:40284000014B1870704700BF27650040014B1878704700BF47650040014B1870704700BF07650040024B1B78024B1878704700BF076500404765004008B501E0FFF7E6FFCA
:40288000FFF7D8FF10F0080FF8D108BD08B51320FFF7D6FF1320FFF7DFFF00F089FA064A137843F01003137000F086FAFFF7E4FF0020FFF7B9FF08BD9765004008B5054BA8
:4028C0001B7823B9FFF7E2FF0122024B1A70FFF79BFF08BD8881FF1F024B1878C0F38000704700BF21510040024A137843F080031370704779640040024A137803F07F03B4
:402900001370704779640040014B1870704700BF09650040014B1870704700BF49650040014B1870704700BF29650040014B1870704700BF89640040014B1878704700BF2F
:4029400069640040014B1878704700BF5965004008B501E0FFF7F6FFFFF7EEFF10F0100FF8D108BD08B5124A137803F0C00343F00903137002F59072137843F00103137087
:40298000FF20FFF7C1FFFF20FFF7C4FF0020FFF7C7FF0020FFF7CAFF00F00AFA054A137843F01003137000F007FAFFF7D1FF08BD796400409964004008B5054B1B7823B9C6
:4029C000FFF7D0FF0122024B1A70FFF78DFF08BD8981FF1F014B1B681864704708ED00E04001C0B2014B1870704700BF00E400E00122014B1A60704700E100E00122014B41
:402A00001A60704780E100E010B50446FFF7F6FF2046FFF7DFFF0720FFF7E2FFFFF7E8FF10BD00BF024B1878C0F38000704700BF31510040054A137843F004031370103268
:402A4000137843F004031370704700BFA2430040054A137843F0020313701032137843F002031370704700BFA243004010B5002404E02046FEF7C8FC0134E4B2012CF8D906
:402A8000FF22014B1A7010BDD980FF1F10B50446FFF7ECFF2046FEF7A9FC014B1C7010BDD980FF1F014B188880B2704780400040034B1A7800F0F80010431870704700BFE1
:402AC00082400040024B187800F00700704700BF8240004070B505460E46FFF7F3FF0446FFF7E0FFA84256D02B4B1B7803F0010294B900B185B938B9284B1D80284A137874
:402B000003F0BF03137070BD254A137843F040031370224B1D8070BD22B3002321490B7001240F310C7004310B700C390B7803F07F030B701A4B1B7813F0080F00D08DB9B8
:402B4000194B18800721013B1970164B1B7813F0010FFAD110490B7803F0FE030B700021104B19700C4B1B7813F0010F0DD00E4B1D800EB1032200E001220A4B1A70094B60
:402B80001B7813F0010FFAD170BD044B1D8002490B7813430B7070BDA243004080400040824000400140004002400040014B188880B2704700410040034B1A7800F0F80077
:402BC00010431870704700BF02410040024B187800F00700704700BF0241004070B505460E46FFF7F3FF0446FFF7E0FFA84256D02B4B1B7803F0010294B900B185B938B92D
:402C0000284B1D80284A137803F0BF03137070BD254A137843F040031370224B1D8070BD22B3002321490B70012413310C7004390B7008390B7803F07F030B701A4B1B78D2
:402C400013F0080F00D08DB9194B18800721013B1970164B1B7813F0010FFAD110490B7803F0FE030B700021104B19700C4B1B7813F0010F0DD00E4B1D800EB1032200E085
:402C800001220A4B1A70094B1B7813F0010FFAD170BD044B1D8002490B7813430B7070BDA14300400041004002410040014000400240004001BE704710B5044605E0084B80
:402CC000186800F06DF8A4F50044B4F5004FF6D8034B586800FB04F000F062F810BD00BFDC80FF1F08B5034B1B7A00FB03F000F057F808BDDC80FF1F70B504460E46074BEE
:402D00001D681F2802D90020FFF7D4FF04F01F04103455F8240045F8246070BD08ED00E038B504460D46072902D90020FFF7C2FF1F2C02D90020FFF7BDFF04F01F0000F10C
:402D4000604000F564406D01EDB2057038BD00BF014B1B68D864704708ED00E04001C0B2014B1870704700BF03E400E00822014B1A60704700E100E00822014B1A6070477A
:402D800080E100E010B50446FFF7F6FF2046FFF7DFFF0720FFF7E2FFFFF7E8FF10BD00BF0230800803D000BF01380046FCD17047EFF3108072B6704780F31088704700BF16
:402DC000014B1868704700BF4C81FF1F0E4B70B51E460E4C0025E41AA410A54204D056F8253098470135F8E701F0BAF8084B094C1E46E41AA4100025A54204D056F825305D
:402E000098470135F8E770BD6C3F00006C3F00006C3F0000743F000010B5431E0A44914204D011F8014B03F8014FF8E710BD03460244934202D003F8011BFAE77047000071
:402E40000EB400B54FF402719CB0ADF814106FF00041049107914FF6FF711DAB02900690084853F8042BADF81610006802A9019300F064F8029B00221A701CB05DF804EBBD
:402E800003B070474C81FF1F2DE9F0478E6882469E420C46914698463ED88A8912F4906F3AD02568096902236F1A656905EB450595FBF3F57B1C43449D4238BF1D465305B7
:402EC0000FD5294600F040FB064698B13A462169FFF7A2FFA38923F4906343F08003A38113E02A4600F08EFB064670B92169504600F0DEFA0C23CAF80030A3894FF0FF301A
:402F000043F04003A381BDE8F08726613E44266046466561ED1BA560464528BF464649463246206800F0A8FAA36800209B1BA36023681E442660BDE8F08700002DE9F04F06
:402F40009DB003938B8980461C060D4616460DD50B695BB9402100F0F7FA2860286118B90C23C8F80030CDE040236B610023099320238DF82930DFF89CB130238DF82A3004
:402F800037463C4614F8013B1BB9B7EB060910D003E0252BF9D02746F3E74B46324629464046FFF771FF013000F0A780099B4B4409933B78002B00F0A08000234FF0FF3226
:402FC00004930793059206938DF853301A930126052221784E4800F041FA671C049B38B14B4A3C46801A06FA00F018430490EFE7D90644BF20228DF853201A0744BF2B2215
:403000008DF8532022782A2A03D0079A00210A200BE0039A111D12680391002A10DA524243F00200079204900BE027463B780134303B092B03D800FB02320121F5E701B184
:4030400007923B782E2B1ED17B782A2B0AD1039B02371A1D1B680392002BB8BF4FF0FF33059310E0002319460593781C0A2407463A780130303A092A03D804FB012101230F
:40308000F5E703B1059103223978224800F0E6F940B14023CBEB000003FA00F0049B013718430490397806221B487E1C8DF8281000F0D4F988B1194B33B9039B073323F05A
:4030C00007030833039314E003AB00932A46144B04A94046AFF3008007E003AB00932A460F4B04A9404600F093F8B0F1FF3F824603D0099B5344099342E7AB895B0601D418
:40310000099801E04FF0FF301DB0BDE8F08F00BF2A3F0000303F0000343F000000000000892E00002DE9F04791461F460A698B6806469342B8BF1346C9F8003091F8432030
:403140000C46DDF8208012B10133C9F800302368990642BFD9F800300233C9F80030256815F0060510D104F1190A07E00123524639463046C04701301AD00135E368D9F8AC
:4031800000209B1A9D42F1DB94F843302268003318BF012392060FD5E118302081F843005A1C94F845102244023382F8431003E04FF0FF30BDE8F08704F1430239463046FC
:4031C000C0470130F4D02268D9F80050E36802F00602042A08BF5D1B2269A3680CBF25EAE57500259342C4BF9B1AED184FF000091A344D4509D00123224639463046C047EC
:403200000130D5D009F10109F3E70020BDE8F0872DE9F04317460A7E85B06E2A984606460C460C9B01F1430E00F0AE8011D8632A22D009D8002A00F0BB80582A40F0CA8085
:4032400081F84520834955E0642A1ED0692A1CD0C0E0732A00F0B08009D86F2A2ED0702A40F0B8800A6842F020020A603EE0752A24D0782A3AD0ADE01A6801F14205111D9A
:403280001960136884F84230A8E021681A6811F0800F02D0111D196008E011F0400F02F10401196002D0B2F9003000E01368002B3CDA2D225B4284F8432037E021681A68B1
:4032C00011F0800F02D0111D196007E011F0400F02F10401196001D0138800E01368227E5C496F2A14BF0A2208221BE078225A4984F845202268186812F0800F00F10405A1
:403300001D6003D1550601D5038800E00368D00744BF42F0200222601BB9226822F0200222601022002084F8430001E049490A226568002DA56008DB206820F004002060C3
:403340002BB9002D7DD175460CE0002B79D07546B3FBF2F002FB1033CB5C05F8013D03460028F5D1082A0BD12368DA0708D5236962689A42DEBF302305F8013C05F1FF35D2
:40338000C5EB0E0323612EE008681A6810F0800F496903D0101D1860136808E010F0400F02F104001860136801D0198000E0196000232361754616E01A68111D19601568B2
:4033C00000216268284600F049F808B1401B6060636804E004F1420584F8422001232361002384F84330CDF800803B4603AA21463046FFF797FE013002D14FF0FF3026E099
:4034000023692A4639463046C0470130F5D023689B0710D5002504F1190907E001234A4639463046C0470130E7D00135E368039A9B1A9D42F2DBE068039B9842B8BF1846BD
:4034400005E00B7804F1420584F842308AE705B0BDE8F0833B3F00004C3F000010B5C9B202449042034605D01C7801308C42F8D1184610BD002010BD884210B501EB02030D
:4034800001D8421E0BE09842FBD28118D21AD34204D013F8014D01F8014DF8E710BD994204D011F8014B02F8014FF8E710BD000038B50546002944D051F8043C0C1F002B39
:4034C000B8BFE41800F0D4F81E4A1368114613B96360146030E0A3420DD92268A018834201BF18685B681218226063600C6023E0A24203D813465A68002AF9D1186819181E
:40350000A1420BD12168014458188242196013D110685268014419605A600DE002D90C232B6009E021686018824201BF106852680918216062605C602846BDE8384000F006
:4035400098B838BD9081FF1F70B5CD1C25F0030508350C2D38BF0C25002D064601DBA94202D90C23336046E000F082F8234B1C681A462146A1B10B685B1B0ED40B2B03D9B9
:403580000B60CC18CD501EE08C420BBF63684B681360636018BF0C4615E00C464968E9E7174C23681BB9304600F052F820602946304600F04DF8431C18D0C41C24F0030416
:4035C000A0420DD12560304600F053F804F10B00231D20F00700C31A0ED05A42E25070BD211A304600F034F80130EBD10C233360304600F03EF8002070BD00BF9081FF1F75
:403600008C81FF1FF8B5074615460E4621B91146BDE8F840FFF798BF1AB9FFF749FF2846F8BD00F027F885420ED929463846FFF78BFF044650B131462A46FFF7EDFB314676
:403640003846FFF735FF01E03046F8BD2046F8BD38B5064C0023054608462360FDF788FF431C02D1236803B12B6038BD2482FF1F7047704751F8040C0028BEBF091851F8F7
:40368000043CC0180438704700000000434F4E54524F4C20524547495354455220313A203078253032580D0A000000004572726F72206F6363757272656420647572696E4D
:4036C000672049324320636F6D6D20746F207265616420636F6E74726F6C20726567697374657220310D0A00434F4E54524F4C2052454749535445522031207375636365C2
:40370000737366756C6C79207772697474656E2061733A203078253032580D0A000000004572726F72206F6363757272656420647572696E672049324320636F6D6D2074F6
:403740006F2073657420636F6E74726F6C20726567697374657220310D0A0000434F4E54524F4C20524547495354455220333A203078253032580D0A000000004572726FD7
:4037800072206F6363757272656420647572696E672049324320636F6D6D20746F207265616420636F6E74726F6C20726567697374657220330D0A00434F4E54524F4C20BD
:4037C00052454749535445522033207375636365737366756C6C79207772697474656E2061733A203078253032580D0A000000004572726F72206F636375727265642064AE
:403800007572696E672049324320636F6D6D20746F2073657420636F6E74726F6C20726567697374657220330D0A0000434F4E54524F4C20524547495354455220353A20E5
:403840003078253032580D0A000000004572726F72206F6363757272656420647572696E672049324320636F6D6D20746F207265616420636F6E74726F6C207265676973BC
:4038800074657220350D0A00434F4E54524F4C2052454749535445522035207375636365737366756C6C79207772697474656E2061733A203078253032580D0A00000000F8
:4038C0004572726F72206F6363757272656420647572696E672049324320636F6D6D20746F2073657420636F6E74726F6C20726567697374657220350D0A0000434F4E543F
:40390000524F4C20524547495354455220363A203078253032580D0A000000004572726F72206F6363757272656420647572696E672049324320636F6D6D20746F207265F9
:40394000616420636F6E74726F6C20726567697374657220360D0A00434F4E54524F4C2052454749535445522036207375636365737366756C6C79207772697474656E20E1
:4039800061733A203078253032580D0A000000004572726F72206F6363757272656420647572696E672049324320636F6D6D20746F2073657420636F6E74726F6C207265E0
:4039C00067697374657220360D0A00004649464F20434F4E54524F4C2052454749535445523A203078253032580D0A004572726F72206F6363757272656420647572696E27
:403A0000672049324320636F6D6D20746F2072656164204649464F20636F6E74726F6C207265676973746572200D0A004649464F20434F4E54524F4C2052454749535445FD
:403A400052207375636365737366756C6C79207772697474656E2061733A203078253032580D0A004572726F72206F6363757272656420647572696E672049324320636F9C
:403A80006D6D20746F20736574204649464F20636F6E74726F6C207265676973746572200D0A0000494E543220434F4E46494755524154494F4E2052454749535445523AC8
:403AC000203078253032580D0A0000004572726F72206F6363757272656420647572696E672049324320636F6D6D20746F207265616420494E543220434F4E4649475552BB
:403B00004154494F4E205245474953544552200D0A000000494E543220434F4E46494755524154494F4E205245474953544552207375636365737366756C6C7920777269FD
:403B40007474656E2061733A203078253032580D0A0000004572726F72206F6363757272656420647572696E672049324320636F6D6D20746F2073657420494E54322043BB
:403B80004F4E46494755524154494F4E205245474953544552200D0A00000000494E5432205448524553484F4C442052454749535445523A203078253032580D0A0000004D
:403BC0004572726F72206F6363757272656420647572696E672049324320636F6D6D20746F207265616420494E5432205448524553484F4C44205245474953544552200D76
:403C00000A000000494E5432205448524553484F4C44205245474953544552207375636365737366756C6C79207772697474656E2061733A203078253032580D0A000000AD
:403C40004572726F72206F6363757272656420647572696E672049324320636F6D6D20746F2073657420494E5432205448524553484F4C44205245474953544552200D0A3B
:403C800000000000494E5432204455524154494F4E2052454749535445523A203078253032580D0A000000004572726F72206F6363757272656420647572696E672049321F
:403CC0004320636F6D6D20746F207265616420494E5432204455524154494F4E205245474953544552200D0A00000000494E5432204455524154494F4E20524547495354E6
:403D00004552207375636365737366756C6C79207772697474656E2061733A203078253032580D0A000000004572726F72206F6363757272656420647572696E67204932C9
:403D40004320636F6D6D20746F2073657420494E5432204455524154494F4E205245474953544552200D0A00494E543220535243205245473A203078253032580D0A00002B
:403D80004F766572207468726573686F6C6420646174613A202564202564202564202564202564202564200D0A0A0000416363656C65726174696F6E20646174613A20254C
:403DC00064202564202564200D0A20506172616D65746572733A203078253032582028307825303258290D0A0A00000020454550524F4D205265616420506172616D65743A
:403E0000657273203D203078253032582028307825303258290D0A002A2A415454454E54494F4E3A20506F736974696F6E206F6620706F74656E74696F6D65746572206345
:403E400068616E67656420647572696E6720726561642D6F6E6C79206D6F64616C6974792A2A0D0A0A0000002A2A2A2A5741524E494E473A20636F6E6669677572617469DC
:403E80006F6E206D656E7520697320696E20726561642D6F6E6C79206D6F64616C6974792A2A2A2A0D0A000020454550524F4D205265616420506172616D65746572732098
:403EC0003D203078253032580D0A0A00035B00402443004040000000C84900401900004F00400C00405100403000F0510040100000000140800400050140000B0014014036
:403F0000000800400140000A004C0140000200500140200060520040AC080048060080040140B408004880004300232D302B2000686C4C0065666745464700303132333445
:403F40003536373839414243444546003031323334353637383961626364656600000000F8B500BFF8BC08BC9E4670474D000000ED150000F8B500BFF8BC08BC9E467047EA
:403F800029000000983F0000C880FF1F88000000D8000000000000000000000001000000120000002882FF1F01FF00000000E02EC05D00001800000000366E010000000078
:403FC00000000000000000000000000000000000000000000000000000000000283F000000000000000000000000000000000000000000000000000000000000000000005A
:4040000000000000000000000000000000000000000000000000000000000000EC80FF1F0000000000000000000000000000000000000000000000000000000000000000F6
:404040000000000000000000000000000000000000000000000000000000000000000000000000000000000000000000000000000000000000000000000000000000000040
:404080000000000000000000000000000000000000000000000000000000000000000000000000000000000000000000000000000000000000000000000000000000000000
:4040C00000000000000000000000000000000000000000000000000000000000000000000000000000000000000000000000000000000000000000000000000000000000C0
:40410000000000000000000000000000000000000000000000000000000000000000000000000000000000000000000000000000000000000000000000000000000000007F
:020000040003F7
:0200000480007A
:40000000024F004006520040036400400565004001010140020301400B040140330501404E060140440701405C08014039090140030B0140010D0140010F01405414014013
:40004000571501405B16014048170140621801404F190140161B014005400140094101400C42014006430140064401400645014006460140034701400C480140164901401D
:400080000E4C01400E4D0140065001400251014001300A1B002001401002110218601920870F880D890D8472860F870D880F89388C109420EA010C041406160118011A0268
:4000C000200430073A0258045C015F0103020440074809140C400D080E400F0A10801580160217151B031C201D201E402409251C27042C042E022F0237593C413DA84440D5
:4001000045284C854D045402562057045D855F10650167028001810185219420C0D1C2F6C4F8CAB0CCF0CEF0D0E0D230D6F0D890E6010172030804200512076408140A0979
:400140000D100F60114D12101380140715021618170D182019CD1C201DCD21CD2407250126082732298D2A0B2B402C062E092F803020321E330F3580360137703A083B886A
:400180003E413F1054405604580459045B045C125D105F018533874C89028B0D8E0192029555960297AA99E09A01AD49AF96B001B30FB402B5F0B808B920BB08BE14D60279
:4001C000D728D804D904DB04DC14DD10DF010180040806040B680C040EA00F0A15201601170418201A881E201F4120102210256026042B012C832D14310832103604375181
:40020000381839043D883F0A41C045204608601064016501662869106B597080718088408A048D0190089420958097029A209F59A002A10CA301A540A801AC10AD80B0845A
:40024000B310B640C061C2FEC4E0CAF8CCF6CED6D8F2E640EE44060C080109011A08230324072C073001310132023408350236043E104030410245D046254714483F49FF3C
:400280004AFF4BFF4DA04F04501852805405580459045A045B045C455D555F01604062C06440654066C068C06AC06CC06EC080018202860189018F0497049903A503AA049C
:4002C000AF08B001B101B302B402B504B604B708BF10C010C103C5D0C610C702C81BC9FFCAFFCBFFCDA0CF04D018D280D405D804D904DA04DB04DC56DD45DF01E040E2C0B3
:40030000E440E540E6C0E8C0EAC0ECC0EEC000010320041806100D2010041504160118011A801B201C101E881F802040214023182510274029042A402C80302033083980DD
:400340003B103D20414043084520461049064D055020530854405524560159015A045B405C405D025F087240764096809804C06CC240C4A2CA8ACC06CE2CD06AD6DBEE041E
:4003800082409804B004EA01E4400213040F05180610080C09080A130C1F0D101013120C13041401153C17021B231C021D271F1820082404251C2721280C29042B402C03B5
:4003C0002D3F300F3140331F341C37383A223B0856025712580459045B045C225D205F01840285208703890C8B13930C94039511970E99119A019B06A403AB08B30FB603D9
:40040000B730B880B980BB08BE40C001C704C9FFCA07CBFFCC40CD20CEF0CF05D008D804D904DA04DC20DD02DF01E040E1A8E240E320002401800380072008880A800C10AC
:400440000D100E200F081080114012101310170418041A801B101D802020210C2201230126482721280829802B102F08310832513610370538A83A103D203F08459046047B
:4004800047204F0857085A08680269106A046B1870D4731082108389860488089140922895389680988099809B049C189E049F11A210A402A648A718A804A901B108B2015F
:4004C000B304B4C0C02FC26DC42FCA2ECCEFCE6ED010D602E007E210E401E610EA01EC800160038B07180B010DA01148138615E61711180119801B65280229802B023002CE
:4005000033F8340135073B203E114023410645EE460B47C0482749FF4AFF4BFF4EF04F44500C5401580459045A045B045C205D225F0166C06A406B02811B85088713890416
:400540008D039104970399049D1BA102A508A713A901B103B308B504B710B980BA80BF04C056C5ECC620C80BC9FFCAFFCBFFCF01D018D280D401D804D904DA04DB04DC2260
:40058000DD77DF01E040E240E440E540E680E880EA80EC80EE800A400B800F081720180219801A021C401E0821012294230424082504272428882B102F08308231083240D8
:4005C000331036183701380239583D0A3E203F804414462049054B604C044F09531056015742584059055E485F1173408280871289018B048C808D40938095209768984462
:400600009E059F04A210A640B180B410B640C240C440CA27CCEFCEFFD060D22CD6FBE202E406E610EE48030804110507068A08220A890C080D070E701101160417041A04F5
:40064000283B2C3B30383104320333013404350836C037023E504034410642054401450C46E0480949FF4AFF4BFF4C624DA04EF04F41500C52805407580459045A045B0426
:400680005C525D525F016640670269106A306B106D106E106F128B018E028F02920196029902A301A502B001B402B501B702BE10BF10C040C106C5D0C621C80EC9FFCAFF89
:4006C000CBFFCDA0CF04D018D418D804D904DA04DB04DC54DD24DF01E040E2C0E440E540E6C0E8C0EAC0ECC0EEC00302045005080A400B200E100F08140117101A041B02B1
:400700001C501DA0224023042488272629042A023020370639803A103C823D08430245804680470849014B204D204E024F08508052805310561058025D015E885F20624010
:40074000630474018202880289208AC08C50918192409408960499049D01A060A104A244A480A702AF80B302C0E1C26CC4C0CA03CCC4CEDCD0D1D234D6F1D80CE020E2D2CF
:40078000E402E610E810EE8082128310840189088C408E409080928096109C019D089F10A602B120B280B708E290E401E610E860EA01ECE03002324035803704CCF05F0101
:4007C000638096809D80A402AB04D680D840EA803E10800282408301968097019D80A402A740CE20E2A0E68061018D8096109D80B740D84013017D088D04C408DE01E40276
:40080000002001085C80AB01C00AD604464099089C80B010D001EE019C809E40A9082708840885018E0293089610AF04B501C820E240E440EE10122015025B025F016708D9
:4008400070087E0282208F0393089502A008A202AA10B308C430D6C0D880DC80DE20E480EA801210132016807B107F08861087088E809E40B480C40EDE03E608E80810402C
:400880007C40831088409040A710AB20B240B440C408DE04E201E802EC0100760A160C7010B41A841C3400FF03C000008280000043000000840000400001007880330404BE
:4008C00004180000011800020A02101860180002561A0900041A80000700380084020000841C00637F00080F8013006002000008000014003406200005CEF0DB3BFFFFFF5D
:400900002200F008040000000900040004040404111100010000C00040011011C0010011400140010000000000000000000000000000000000606000600000009300508060
:400940008300830000000000000B0B0000000000140001161200020000000000E00004E0E000E0000800000025001801000000000000000000000000000000000000000052
:400980000000000000000000000000000000000000000000000000000000000000000000000000000000000000000000000000000000000000000000000000000000000037
:4009C00000000000000000000000000000000000000000000000000000000000000000000000000000000000000000000000000000000000000000000000000000000000F7
:400A000000000000000000000000000000000000000000000000000000000000000000000000000000000000000000000000000000000000000000000000000000000000B6
:400A40000000000000000000000000000000000000000000000000000000000000000000000000000000000000000000000000000000000000000000000000000000000076
:0200000490006A
:0400000000004005B7
:0200000490105A
:04000000BC90ACAF55
:0200000490303A
:02000000525A52
:0200000490402A
:4000000000000000000000000000000000000000000000000000000000000000000000000000000000000000000000000000000000000000000000000000000000000000C0
:400040000000000000000000000000000000000000000000000000000000000000000000000000000000000000000000000000000000000000000000000000000000000080
:400080000000000000000000000000000000000000000000000000000000000000000000000000000000000000000000000000000000000000000000000000000000000040
:4000C0000000000000000000000000000000000000000000000000000000000000000000000000000000000000000000000000000000000000000000000000000000000000
:0200000490501A
:0C00000000012E16106900012E3062C3B2
:00000001FF