:400000000080002011000000751500007515000008B5044B1A6803F53F5302331A6001F0C9FA00BFFA46004010B5054C237833B9044B13B10448AFF300800123237010BD9F
:400040005081FF1F0000000050370000084B10B51BB108490848AFF300800848036803B910BD074B002BFBD0BDE81040184700BF000000005481FF1F50370000C880FF1FE4
:40008000000000002DE9F04FE9B062B600F050FC01F01CFB00F038FD02F09AFCA74802F0BFFCA74802F0D0FE02F014FC02F0A4FE01F09EFF02F01AFB0023A24A1360A24A65
:4000C0001360A24A1380052002F002FE0DF207122021182000F032FC48B99DF807219C495BA802F011FF5BA801F00AFB02E0994801F006FB9DF807314F2B14D04F228DF8D1
:4001000007212021182000F069FC48B99DF8072191495BA802F0F8FE5BA801F0F1FA02E08E4801F0EDFA0DF583722221182000F005FC48B99DF8062189495BA802F0E4FE0E
:400140005BA801F0DDFA02E0864801F0D9FA9DF80631022B14D002228DF806212221182000F03CFC48B99DF806217F495BA802F0CBFE5BA801F0C4FA02E07C4801F0C0FAAA
:400180000DF205122421182000F0D8FB48B99DF8052177495BA802F0B7FE5BA801F0B0FA02E0744801F0ACFA9DF80531422B14D042228DF805212421182000F00FFC48B94C
:4001C0009DF805216C495BA802F09EFE5BA801F097FA02E0694801F093FA41AA2521182000F0ACFB48B99DF8042165495BA802F08BFE5BA801F084FA02E0624801F080FA18
:400200009DF80431202B14D020228DF804212521182000F0E3FB48B99DF804215A495BA802F072FE5BA801F06BFA02E0574801F067FA0DF203122E21182000F07FFB48B998
:400240009DF8032152495BA802F05EFE5BA801F057FA02E04F4801F053FA9DF80331402B14D040228DF803212E21182000F0B6FB48B99DF8032148495BA802F045FE5BA80C
:4002800001F03EFA02E0454801F03AFA0DF581723421182000F052FB48B99DF8022140495BA802F031FE5BA801F02AFA02E03D4801F026FA9DF802312A2B14D02A228DF8FA
:4002C00002213421182000F089FB48B99DF8022135495BA802F018FE5BA801F011FA02E0324801F00DFA0DF201123721182000F025FB48B99DF801212D495BA802F004FE6E
:400300005BA801F0FDF902E02A4801F0F9F99DF80131032B55D003228DF801213721182000F05CFB002849D19DF8012122495BA802F0EAFD5BA801F0E3F942E00D0A000096
:400340002D0A00009C81FF1FA481FF1F9881FF1F5437000074370000B0370000E8370000243800004438000080380000B8380000F438000014390000503900008839000012
:40038000C4390000E4390000203A0000583A0000943A0000B43A0000F43A00002C3B00006C3B0000943B0000DC3B00001C3C0000643C0000883C0000CC3C0000C14801F09B
:4003C0009FF900200C900D900E9000F035FEC0F30710BD4B1870A0B91022BC4B1A704FF4FA62BB4B1A801E22BA4B1A7080222321182000F0F3FA5E223621182000F0EEFAE5
:4004000043E0012814D12022B04B1A704FF47A62AF4B1A801E22AF4B1A7090222321182000F0DCFA2F223621182000F0D7FA2CE0022814D14022A54B1A704FF4FA52A44B43
:400440001A802822A34B1A70A0222321182000F0C5FA18223621104600F0C0FA15E0032813D1C022994B1A704FF47A52984B1A803222984B1A70B0222321182000F0AEFA1B
:4004800008223621182000F0A9FA8F4A13781B0143F0010313704FF001090023059306939B4698468C4B1B68012B02D100F0CAFA8146B9F1010F00F08881B9F1020F00F028
:4004C000AE81B9F1000FEDD17F4B197801F0F00141EA0901C9B21970002000F0C3FD00F01DFE002000F0A8FD049002F011FAFF2002F022FA02F06CFA0DF13F022F21182073
:4005000000F01CFA0028CDD19DF83F3013F0040F40F04081C6E704EB440310AA02EB430306222821182000F027FA002840F02F8110AB6200111903EB410713F811107D78B4
:4005400041EA052141F30721DFF880E19EF8005005FB01F52DB285EAE570A0EBE570B978FE7841EA062141F307219EF8006006FB01F636B286EAE671A1EBE6713F79224444
:4005800003EB42035B7947EA032343F307239EF8007007FB03F73FB287EAE772A2EBE77212B209B200B200F0BBFA0DF13E023521182000F0C3F9814630B99DF83E3013F0D6
:4005C000420F01D04FF0010BBBF1000F36D009AB23F8185008F101085FFA88F8B8F1040F36D93E4B1B88ADF82E300C2209A9022000F066FD00F092FD0C220CA9022000F0F8
:400600004DFDBDF93020BDF93230BDF93410BDF93600BDF938E0BDF93AC0CDF80CC0CDF808E0019000912E495BA802F06DFC5BA801F066F84FF0000BD84609E0B9F1000F5D
:4006400006D19DF83E3013F0480F01D04FF0010ABAF1000F46D009AB23F8186008F101085FFA88F8B8F1040F46D91C4B1B88ADF82E300C2209A9022000F022FD00F04EFD05
:400680000C220CA9022000F009FDBDF93020BDF93230BDF93410BDF93600BDF938E0BDF93AC0CDF80CC0CDF808E0019000910C495BA802F029FC5BA801F022F84FF0000A97
:4006C000D04619E0083D0000A081FF1FA881FF1F9681FF1F9481FF1F9C81FF1F9881FF1F483D0000B9F1000F06D19DF83E3013F0600F01D001230593059B002B35D009ABAB
:4007000023F8187008F101085FFA88F8B8F1040F2BD97F4B1B88ADF82E300C2209A9022000F0CEFC00F0FAFC0C220CA9022000F0B5FCBDF93020BDF93230BDF93410BDF9F5
:400740003600BDF938E0BDF93AC0CDF80CC0CDF808E0019000916F495BA802F0D5FB5BA800F0CEFF0023059398466B4B1B780293049B0193009733462A4668495BA802F058
:40078000C3FB5BA800F0BCFF052002F0A1FA0134E4B204E00024DDF818A0CDF81C901F2C7FF6B9AECDF818A0DDF81C9000228DF803212E21182000F011F940228DF80321CE
:4007C0002E21182000F00AF96CE6534C217801F0F00141EA0901C9B22170002000F042FC00F09CFC002000F027FC237802464C4942A802F089FB42A800F082FF02F088F824
:40080000002002F099F802F0E3F8FF2001F03AFD002001F03DFDFF2001F0C0FC42E602F077F87F2002F088F802F0D2F8FF2001F029FD002001F02CFDFF2001F0AFFC012048
:4008400000F0FAFB074602F0F9F804460146012000F008FC00F062FC012C35D1002000F0EBFB00F47F604FFA89F545EA0006F6B200F016FBDFF8A0A09AF8001045EA0111D4
:40088000C9B28AF80010002000F0ECFB00F046FC9AF800309E4209D0A74207D04E22214942A802F01DFB42A800F02AFF002000F0C3FB194B1B780246194942A802F024FB8C
:4008C00042A800F01DFFEDE5002000F0B5FB00F47F6040EA0906F6B25BAC134D0FCD0FC40FCD0FC40FCD0FC495E80F0007C424F8023B1B0C23705BA800F002FF32460B491E
:4009000042A802F001FB42A800F0FAFECAE500BF9881FF1F483D0000A081FF1F843D0000C43D0000F03D0000403E0000803E000008B500F03DFF002008BD00BFF8B50646F3
:400940000D461746002101F0AFF8044668B9284601F03CF9044640B90121304601F0E4F8044610B901F05EF9387001F013F9201C18BF0120F8BD00BF2DE9F04180460C4660
:4009800016461F46002101F08FF80546F0B944F0800001F01BF90546C0B90121404601F0C3F8054650B111E0C4EB0608012001F039F907F80800013CE4B200E03446012C79
:4009C000F2D8013E002001F02DF9B85501F0E2F8281C18BF0120BDE8F08100BF70B50D461646002101F060F8044640B9284601F0EDF8044618B9304601F0E8F8044601F06C
:400A0000C9F8201C18BF012070BD00BF08B501F01DFF0122034B1A60034A13680133136008BD00BF9C81FF1FA481FF1F08B502F0A9F9034A13889BB202339BB2138008BD4F
:400A40009881FF1F08B501F0F3FE142001F010FF01F040FF0022284B1A6003E001F00EFF264B186001F044FF0028F7D0234B1B68112B0ADC224A1268012A06D80022214BB0
:400A80001A6002221E4B1A6032E0112B09DC1C4B1B68022B05D100231A4A1360184A136026E0184B1B68022B0FD101F0E7FE144B5B68984209DD124B1B68012B05D1002310
:400AC000104A13600E4A136012E00E4B1B68022B0ED101F0D3FE0A4B5B68984208DD084B1B682BB90022074B1A600122044B1A60034B186808BD00BF9C81FF1F6C81FF1FBF
:400B0000CC80FF1FA481FF1F08B501F00FFC01F08FFB08BD08B501F0A1FB01F02BFB08BD70B504460D461646BB4B1B881BB2BB4A127802F57A729B1A00D503339B10B84A76
:400B40001380B64B1B78C3F57A739C4209DBB34B1B7803F57A739C4203DC0022B14B1A701EE0AE4B1B78C3F57A739D4209DBAB4B1B7803F57A739D4203DC0122A94B1A704D
:400B80000EE0A64B1B78C3F57A739E4208DBA34B1B7803F57A739E4202DC0222A14B1A70A04B1B78012B7ED01BB1022B00F0F58070BDFFF7AFFFFF2001F05EFB002001F0FC
:400BC00067FBFF2001F0E4FA002001F0E7FAFFF79BFF924B1B78C3F57A739C4210DB8F4B1B7803F57A739C420ADCFFF793FFFF2001F042FBFF2001F045FBFFF785FF70BD63
:400C0000864B1B7803F57A739C4213DD834B1B7803F57A73824A128813449C420ADCFFF779FF412001F028FB202001F02BFBFFF76BFF70BD794B1B7803F57A73784A128877
:400C400013449C4212DD754B1B7803F57A7303EB42039C420ADCFFF75DFF202001F00CFB102001F00FFBFFF74FFF70BD6B4B1B7803F57A7303EB42039C4240F30B81674B4B
:400C80001B7803F57A7303EB8202944200F30281FFF740FF102001F0EFFA082001F0F2FAFFF732FF70BDFFF735FFFF2001F0E4FA002001F0E7FAFF2001F06AFA002001F0D7
:400CC0006DFAFFF721FF554B1B78C3F57A739D4210DB524B1B7803F57A739D420ADCFFF719FFFF2001F0C8FAFF2001F0D1FAFFF70BFF70BD494B1B7803F57A739D4213DD38
:400D0000464B1B7803F57A73454A128813449D420ADCFFF7FFFE412001F0AEFA202001F0B7FAFFF7F1FE70BD3C4B1B7803F57A733B4A128813449D4212DD384B1B7803F533
:400D40007A7303EB42039D420ADCFFF7E3FE202001F092FA102001F09BFAFFF7D5FE70BD2E4B1B7803F57A7303EB42039D4240F391802A4B1B7803F57A7303EB82029542D1
:400D800000F38880FFF7C6FE102001F075FA082001F07EFAFFF7B8FE70BDFFF7BBFEFF2001F06AFA002001F06DFA002001F070FAFFF7AAFE194B1B78C3F57A739E4210DB69
:400DC000164B1B7803F57A739E420ADCFFF7A2FEFF2001F0DDF9FF2001F0E0F9FFF794FE70BD0E4B1B7803F57A739E421CDD0B4B1B7803F57A730A4A128813449E4213DCAE
:400E0000FFF788FE412001F0C3F9202001F0C6F9FFF77AFE70BD00BF9681FF1F9481FF1FAC81FF1FAA81FF1F1B4B1B7803F57A731A4A128813449E4212DD174B1B7803F5F3
:400E40007A7303EB42039E420ADCFFF763FE202001F09EF9102001F0A1F9FFF755FE70BD0D4B1B7803F57A7303EB42039E4211DD094B1B7803F57A7303EB8202964209DC70
:400E8000FFF748FE102001F083F9082001F086F9FFF73AFE70BD00BF9481FF1FAC81FF1F10B501F0A7FC554B1860002801DA00221A60524B1B68B3F5803F03DB4FF6FF72FE
:400EC0004E4B1A604D4B186801F082FC4C4B188080B240F2E14398421ED80022494B1A704FF4FA62484B1A801022484B1A701E22474B1A708022474B1A7023211820FFF7EA
:400F00006DFD454C20705E22444B1A7036211820FFF764FD207010BDA0F2E2439BB240F2E14293421ED80122364B1A704FF47A62354B1A802022354B1A701E22344B1A702A
:400F40009022344B1A7023211820FFF747FD324C20702F22314B1A7036211820FFF73EFD207010BDA0F6C4139BB240F2E14293421ED80222234B1A704FF4FA52224B1A80F2
:400F80004022224B1A702822214B1A70A022214B1A7023211820FFF721FD1F4C207018201E4B187002463621FFF718FD207010BDA0F6A66080B240F2E24398421DD803220C
:400FC000104B1A704FF47A520F4B1A80C0220F4B1A7032220E4B1A70B0220E4B1A7023211820FFF7FBFC0C4C207008220B4B1A7036211820FFF7F2FC207010BDB481FF1FD9
:40100000B281FF1FA081FF1F9681FF1FA881FF1F9481FF1FB081FF1FB881FF1FB181FF1F08B5052000F098F808BD00BF08B5062000F07CF808BD00BF00B583B003218DF839
:401040000410030A8DF805308DF8060001230DEB010201A800F09AF89DF8030003B05DF804FB00BF30B583B004460D46FFF7DEFF02238DF80430230A8DF805308DF806404A
:401080008DF80750002302AA02F8053D04210DEB010000F07BF803B030BD00BF10B582B003248DF80440030A8DF805308DF8060013460A46214601A800F068F802B010BDA8
:4010C0002DE9F04182B000AF054688461446FFF7ADFF012001F012FEE61C04F10A0323F00703ADEB030D02238DF800302B0A8DF801308DF80250224641460DF1030001F04B
:40110000EFFE002307F1080202F8013DF1B2684600F03CF80837BD46BDE8F08108B5FFF77FFF10F0010FFAD108BD00BF10B50446002001F00BF8204600F0FEFD00F0D4FDD3
:4011400010F0080FFAD000F061FE0446012000F0FDFF204610BD00BF10B50446002000F0F5FF204600F0E8FD002000F0E5FD00F0BBFD10F0010FFAD000F048FE00F046FECA
:401180000446012000F0E2FF204610BD2DE9F04383B006460C4617469846002000F0D6FF64B2002511E02146082CA8BF0821C9B206EBC50000F0A6FE00F096FD10F0010FD7
:4011C000FAD0083C64B201356DB2002CEBDC00F0A9FE00F04DFE0026009601964FFA88F820E0C146B8F1080FA8BF4FF008095FFA89F1684600F086FE00F076FD10F0010FAF
:40120000FAD0002406E004EBC60500F0FFFD78550134E4B24C45F6DBA8F108084FFA88F8013676B2B8F1000FDBDC012000F08EFF00F078FE00F01CFE00F03AFE03B0BDE86C
:40124000F08300BFFEE700BFF0B40022174611E050F82760F3B226F0FF0608E001EB420511F812406D78A5550132013BDBB2002BF4D10137232FEBD9F0BC70470A4B1B781B
:40128000DBB203F00701094A11701B09013213700822074B1A708023064A1370583213704422054B1A707047CF0100496E5800403D510040005B00407658004008B50A46D5
:4012C000002101F018FE08BD08B501F009FE08BD38B500243D4B1C80502202331A700B2202331A8018233A4A13703321023211800232137045F6E833023213801925023284
:40130000157002321380334B1D7047F22F5202331A8002331D7040F2E73202331A801B2202331A7004222C492C48FFF7CDFF02222B4B1A7008224FF040231A70032103F58E
:4013400000731970274B1B78DBB227490B70274B1A8041F25122023B1A800CE0244B1B7803F0010343EA440404F003044FF4F07001F07AFD013D0DB1032CEFD115B903202F
:40138000FFF760FF1B4B4FF480721A8007221A70002219490A704820023108701A700222033B1A7004220A331A70144A137843F07F031370013A137843F001031370013AA0
:4013C000137843F08003137038BD00BF80400040864000409240004084090048004100400043004008010049A146004022420040254200400440004006400040A243004091
:40140000012807D8044B53F820201844017A13780B431370704700BFA43E0000012808D8044B53F820201844017A137823EA010313707047A43E000038B572B6394A1378AA
:4014400043F00403137000240BE0374863001A19510001440A46098AD068FFF72FFF0134E4B2082CF1D900240CE02F48A20011194B000344B3F84C20996C586CFFF724FF0F
:401480000134E4B2012CF0D928494FF09040FFF7DBFE0A24264B1C70264A137843F0020313701032137843F002031370224D2B7843F040032B70A2F58632513A137843F0F8
:4014C0001003137008221D491D48FFF7FDFE22461C491D48FFF7F8FE08221C491C48FFF7F3FE22461B491C48FFF7EEFE22461B491B48FFF7E9FE1B4A137843F008031370A9
:40150000194C61232370FFF7E3FE812323700122164B1A70FFF7B2FE0E2229461448FFF7D3FE38BDE8460040A43E0000900000488358004003500140A0430040500900481B
:401540000251004058090048C051004064090048125100406C090048205100407809004830510040224300400048004004000840B043004008B501F087FC03680C2B00D13E
:40158000FEE7FEE708B5094B1A681044084BC31A802B02DC054B186005E001F075FC0C2303604FF0FF32104608BD00BFD480FF1FF881FF1F08B5104E104D16E029686B68FB
:4015C000AC68002204E051F8040B43F8040B0432A242F8D1E868002203E0002143F8041B04328242F9D11035013E002EE6D101F051FCFEF747FDFEE701000000583F00005B
:4016000008B5104A104B1A60104A136843F40073136000230AE0032B03D80D4A52F8231000E00C490C4A42F8231001332F2BF2D90A4B1A780A4B1A70074A0A4B1A60FFF7B5
:40164000FBFE08BD0004FA050CED00E014ED00E000000000751500000080FF1FBC760040C080FF1F08ED00E07222094B1A70202203F580731A700622A3F265131A704722D1
:4016800010331A70002203F5AA731A70704700BF8964004010B501F0EFFB04460A4A137843F02003137002F58072137843F010031370013A137843F01003137001F0C6F9DB
:4016C000204601F0DDFB10BD9964004008B5054B1B7823B9FFF7C8FF0122024B1A70FFF7D9FF08BD7481FF1F034B1B7813F0040FFAD1024B18707047686500404764004092
:4017000038B5074B1B782BB938BDFFF7EDFF0134A4B201E005460024285D0028F5D138BD7481FF1F10B50222114B1A7081220E3B1A70082202331A70042211331A70002480
:4017400001331C704FF400420A4B1A6007210F2001F0F2FA08490F2001F0DAFA1022074B1A70074B1C70074B1C70074B1C7010BDD649004080E100E0D9170000B981FF1F7F
:40178000C981FF1FBC81FF1FBD81FF1F08B501F073FB064A137843F0040313701032137843F00403137001F06BFB08BDA543004008B5074B1B7823B9FFF7B4FF0122044BEF
:4017C0001A70FFF7E3FF4FF40042024B1A6008BD7681FF1F00E100E038B5A54B1C78A54B1B7813F0400F00F03A81E4B214F0010F00F01D819F4B1B78453B052B00F21481C3
:40180000DFE813F006008200120112010600DF0004F0DF0504F00A04082C42D1954B1B78DBB2452B35D1944B1B7813F0FF0F10D0924B1B681B78DBB2914A137004228C4B76
:401840001A7001228F4B1A7046228A4B1A702C46EDE08D4B1B7813F0020F0DD08B4A137843F00A0313706022824B1A704FF40042874B1A602C46DAE0864A137843F010035B
:4018800013701022844B1A700422023B1A702C46CDE00022764B1A704A22764B1A702C46C5E00A2C2BD1794A137843F0A0031370754B1B7813F0020F14D06E4B1B7813F060
:4018C000080F01D0092300E00A23704A11780B4313706022674B1A704FF400426C4B1A602C46A4E06B4A137843F0100313701022694B1A700422023B1A702C4697E00020DA
:4019000001F0E4F92C4692E014F0020F36D15D4B1A78D2B2584B1B78DBB29A4210D2594A1378DBB255490968CB5CDBB254490B7004214F4B197013780133DBB2137076E097
:40194000514B1B7813F0020F0CD0504A137843F00A0313706022474B1A704FF400424C4B1A6064E04B4A137843F0100313701022494B1A700422023B1A7058E0424B1B786A
:4019800013F0020F0CD0414A137843F09A0313706022384B1A704FF400423D4B1A6046E03C4A137843F01003137010223A4B1A700422023B1A70354A137843F09003137037
:4019C00035E0364A1378DBB2354908682C490978C9B2C15413780133DBB213701278D2B2304B1B78DBB29A4203D21022204B1A701DE0254B1B7813F0020F0CD0234A13788E
:401A000043F00903137060221A4B1A704FF400421F4B1A600BE01F4A137843F0100313700022134B1A7002E0002001F04FF914F0200F1CD00F4B1B7813F0080F01D0012302
:401A400000E00223114A11780B431370114A137803F0EF0313701022064B1A7038BD054B1B7813F0100F02D11022024B1A7038BDD7490040B981FF1FBE81FF1FC081FF1F12
:401A8000D8490040BD81FF1FC881FF1FC981FF1F80E100E0D6490040D9490040BC81FF1FC481FF1FCA81FF1F1A4B1B78DBB2102B29D1194B1B7813F0080F26D14FF400422A
:401AC000164B1A604000C0B229B140F001004922104B1A7002E045220E4B1A70104B1870012201331A700F4B1B7813F0010FFAD00C4B1B7803F00A030A2B08D11022054BCA
:401B00001A700320704702207047012070470020704700BFB981FF1FD949004080E100E0D8490040D7490040164B1B7813F0040F23D04000C0B229B140F001004922124BBC
:401B40001A7002E04522104B1A70104B1870122201331A700422023B1A700D4B1B7813F0010FFAD00A4B1B7803F00A030A2B06D11022054B1A700320704702207047002050
:401B8000704700BFD9490040B981FF1FD8490040D74900400A4B1B7813F0040F0ED01023074A13700421023A1170064A1370064B1B7813F0210FFAD000207047022070470B
:401BC000D9490040B981FF1FD7490040114B1B7813F0040F1BD0104B18700422013B1A7046220E4B1A700E4B1B7813F0010FFAD00B4B1B7813F0020F04D16022074B1A70C8
:401C0000002070476022054B1A70032070470220704700BFD9490040D8490040B981FF1FD7490040114B1B7813F0040F1BD0104B1B78DBB2492B05D100220E4B1A704A225E
:401C40000B4B1A700B4B1B7813F0010FFAD00A4B1B78DBB218B11021064A117004E06021034A117000E0002318467047D9490040B981FF1FD7490040D84900400422014B46
:401C80001A60704700E100E00222014B1A60704700E100E008B501F0EFF80C4A137843F0200313700232137843F010031370033A137843F01003137001F0E2F800F0D4FEDB
:401CC000FFF7DCFFFFF7E0FF08BD00BF936400400422014B1A60704780E100E00222014B1A60704780E100E010B5FFF7F1FF064B1C78064A137803F009031C43002313704E
:401D0000FFF7BCFF204610BD65640040D881FF1F10B5FFF7E3FF064B1B78064A147804F040041C4300231370FFF7AEFF204610BD62640040E981FF1F10B504462B4B1A782A
:401D400002F0FF0312B1013BDBB200E00723284A1278D2B29342F1D0FFF7BAFF254B1978254A137803F009030B4313701F4B1A78D2B21F4B1B78DBB29A4207D11E4B1B788F
:401D800013F0040F02D01D4B1C702CE0184A13780133DBB213701378DBB2072B02D90022134B1A70124B1A78D2B2104B1B78DBB29A420ED10D4A13780133DBB21370137881
:401DC000DBB2072B02D90022084B1A7001220C4B1A70074B1B78DBB20A4AD4540A4A137843F004031370FFF749FF10BDE581FF1FE781FF1F65640040D881FF1F4264004041
:401E0000E481FF1FD081FF1F8564004010B5FFF765FF134B1A78D2B2124B1B78DBB29A4214D0114B1B7813F0FF0F0CD10C4A13780133DBB213701378DBB2072B06D900226A
:401E4000074B1A7002E00022074B1A70044B1B78DBB2064AD45CE4B2FFF716FF204610BDE881FF1FE681FF1FCC81FF1FDC81FF1F08B501E0094B1B78094B1B7813F0200F53
:401E8000F8D1FFF72BFF0023064A1370064A1370064A1370FFF7F8FE08BD00BF5264004062640040CC81FF1FE881FF1FE681FF1F08B500F0E1FF0E4B1A7842F001021A7083
:401EC0001A7802F0FE021A7000F0DAFFFFF700FF0023084A1370084A1370084A1370084A137803F0FB031370FFF7C8FE08BD00BF92640040E481FF1FE581FF1FE781FF1F20
:401F00008564004070B506460C46002506E0705DFFF712FF0135EDB2013CE4B2002CF6D170BD00BF08B501E00A4B1B780A4B1B7813F0200FF8D100F09FFF084B1A7842F041
:401F400001021A701A7802F0FE021A7000F098FF08BD00BF52640040626400409264004010B50F22174B1A70174C042323600721022000F0E1FE1549022000F0C9FE022325
:401F800023600721012000F0D7FE1149012000F0BFFEFFF7C7FF00240E4B1C700E4B1C700E4B1C700E4B1C700E4B1C700E4B1C70FFF79AFEFFF7ACFE0C4B1C702022033B99
:401FC0001A7010BD8364004080E100E00D200000AD200000CC81FF1FE881FF1FE681FF1FE481FF1FE581FF1FE781FF1F8564004008B5054B1B7823B9FFF7B2FF0122024B68
:402000001A70FFF747FE08BD7781FF1F28E01F4B19781F4A137803F009030B431370137813F0040F24D01B4B1B7813F0FF0F0CD1194A13780133DBB213701378DBB2072B41
:4020400006D90022144B1A7002E00022114B1A70114B1B78DBB2114AD35CDBB2104A13700D4B1A78D2B20F4B1B78DBB29A42CED1094B1A78D2B20B4B1B78DBB29A4204D128
:40208000094A137803F0FB031370704765640040D881FF1FE481FF1FE581FF1FD081FF1F42640040E781FF1F85640040204B1A7820490B7803F0400313430B7032E01E4B21
:4020C0001A78D2B21D490B780133DBB20B700B78DBB2072B02D90021184B1970174B1978C9B2174B1B78DBB299420ED114490B780133DBB20B700B78DBB2072B02D9002177
:402100000F4B197001210F4B19700C4B1B78DBB20D49CA54064B1A7806490B7803F0400313430B70034B1B7813F0200FC7D1704762640040E981FF1F52640040E681FF1FA5
:40214000E881FF1FCC81FF1FDC81FF1F044A137803F0EF03000100F0100018431070704720510040024A137843F080031370704776640040024A137803F07F031370704789
:4021800076640040014B1870704700BF06640040014B1870704700BF46640040014B1870704700BF26640040014B1870704700BF86640040014B1878704700BF66640040F9
:4021C000014B1878704700BF5664004008B501E0FFF7F6FFFFF7EEFF10F0100FF8D108BD10B5114A137803F0C00343F00B0313700E4C237843F001032370FF20FFF7C2FFC0
:40220000FF20FFF7C5FF0020FFF7C8FF0020FFF7CBFF00F031FE237843F01003237000F02FFEFFF7D3FF10BD766400409664004008B5054B1B7823B9FFF7D2FF0122024BBC
:402240001A70FFF78FFF08BD7881FF1F024A137843F08003137070477B650040024A137803F07F03137070477B650040014B1870704700BF08650040014B1870704700BFA6
:4022800048650040014B1870704700BF28650040014B1870704700BF38650040014B1870704700BF8B650040014B1878704700BF6B650040014B1878704700BF58650040C8
:4022C00008B501E0FFF7F6FFFFF7EEFF10F0100FF8D108BD08B5134A137803F0C00343F01B0313701D32137843F001031370FF20FFF7BCFFFF20FFF7BFFF0020FFF7C2FF88
:402300000020FFF7C5FF0020FFF7C8FF00F0B4FD054A137843F01003137000F0B1FDFFF7CFFF08BD7B6500409B65004008B5054B1B7823B9FFF7CEFF0122024B1A70FFF7EC
:4023400085FF08BD7981FF1F10B59DF80840012C51D1013809282ED8DFE800F0052D2D052D2D0F192D230F2B03D92548007840B222E02448007840B21EE00F2B03D922486B
:40238000007840B218E02148007840B214E00F2B03D91F48007840B20EE01E48007840B20AE00F2B03D91C48007840B204E01B48007840B200E0002001EB401101FB02F1A4
:4023C000C90B8AB20D2B0BD8C3F10E0289B211418AB2611E124800EB810101338B7005E0631E0F4901EB83030F219970013C0C4B23F8242010BD002000F068FC10BD00BF87
:40240000180100491C010049190100491D0100491A0100491E0100491B0100491F0100497C81FF1FF8B5074600F026FD06460D4D2B7843F003032B700B4C237843F0030300
:4024400023700A4B1F70032000F058FC2B7803F0FC032B70237803F0FC032370304600F00FFDF8BDF8460040F9460040925800400022324B1A7101285FD170B53822304B63
:402480001A70042202331A70062201331A70002401331C7001331C703F2201331A7002331C7001331C7001331C7001250A331D70502203F527631A700A2201331A702C221D
:4024C00001331A7001331C70442203331A70482201331A7001331D7002331D70112201331A70192201331A70972201331A705220FFF798FF5822134B1A7001331C700526E0
:4025000005331E70022201331A7001331C7001331C70204600F0C6FA43F233320A4B1A602946304600F0E2FA2946252000F062FB06491D2000F0ECFB70BD70477C81FF1FE0
:40254000004E004094580040EC81FF1F1D280000F0B583B0284D01272F70284E00247471102000F0B1FA102000F032FB07211D2000F0E2FB0422224B1A7001331C700733DD
:402580001C70204A137843F0180313701E4B1C7003F2F5231C7001331C700A22A3F209331A7001331C7002331C705B2205331A705E2201331A7004331C701422A3F68C23B5
:4025C0001A70009710234FF4004248F6F0510220FFF7BAFE2B78013B06EB83039A780B4B1A702B78013B36F82320094B1A802878FFF73EFF03B0F0BDD880FF1F7C81FF1F69
:4026000096580040075B0040935800400E4E00400C4E004070B500F02FFC06462A4B1B782A4B1A7842F001021A701A7842F010021A7010331A7842F001021A701A7842F057
:4026400010021A70224D2B7843F002032B70214C237843F0020323701F4A137843F003031370032000F04AFB2B7803F0FD032B70237803F0FD032370184A137843F0060383
:4026800013707A22164B1A70164A137843F0010313701032137843F0010313700F3A137843F0010313701032137843F0010313704FF000530C4A1360A2F5C07213603046C2
:4026C00000F0DEFB70BD00BFD880FF1FAA430040F8460040F9460040915800407758004082580040A143004080E200E008B5084B9B794BB9064BDB7913F0FF0F01D1FFF727
:4027000027FF0122024B9A71FFF784FF08BD00BF7C81FF1F024A137843F0010313707047004E0040024A137803F0FE0313707047004E0040094B1B7913F0FF0F03D0074B59
:402740005B79DBB203E0064B1B7803F00103012B01D00028EED01846704700BF7C81FF1F014E0040154B1B7803F00303012B07D8134B1888023B1B889BB243EA004013E057
:40278000022B0AD10E4B1888023B1B7843EA00430C4A107843EA002006E00B4B188883B2074A108843EA0040084B1B7913F0FF0F02D00022054B5A71704700BF144E004027
:4027C000124E0040114E0040104E00407C81FF1F064B9B68C01A4FF47A7303FB00F0044B1B6890FBF3F000B2704700BF7C81FF1FEC81FF1F10B5084A137843F00403137028
:40280000FFF788FF0020FFF795FFFFF7ABFF0446FFF788FF204610BD014E0040704700BF024A137843F08003137070477A650040024A137803F07F03137070477A65004047
:40284000014B1870704700BF8A650040014B1878704700BF6A650040014B1870704700BF2B650040014B1878704700BF4B650040014B1870704700BF0B650040024B1B7848
:40288000024B1878704700BF0B6500404B65004008B501E0FFF7E6FFFFF7D8FF10F0080FF8D108BD08B51320FFF7D6FF1320FFF7DFFF00F0E1FA064A137843F01003137009
:4028C00000F0DEFAFFF7E4FF0020FFF7B9FF08BD9A65004008B5054B1B7823B9FFF7E2FF0122024B1A70FFF79BFF08BD8881FF1F024B1878C0F38000704700BF2151004064
:40290000024A137843F080031370704777640040024A137803F07F031370704777640040014B1870704700BF09640040014B1870704700BF49640040014B1870704700BF9C
:4029400029640040014B1870704700BF87640040014B1878704700BF67640040014B1878704700BF5964004008B501E0FFF7F6FFFFF7EEFF10F0100FF8D108BD08B5124A37
:40298000137803F0C00343F0090313702232137843F001031370FF20FFF7C2FFFF20FFF7C5FF0020FFF7C8FF0020FFF7CBFF00F063FA064A137843F01003137000F060FAD4
:4029C000FFF7D2FF08BD00BF776400409764004008B5054B1B7823B9FFF7D0FF0122024B1A70FFF78DFF08BD8981FF1F014B1B681864704708ED00E04001C0B2014B18702E
:402A0000704700BF00E400E00122014B1A60704700E100E00122014B1A60704780E100E010B50446FFF7F6FF2046FFF7DFFF0720FFF7E2FFFFF7E8FF10BD00BF024B1878A2
:402A4000C0F38000704700BF31510040054A137843F0040313701032137843F004031370704700BFA2430040054A137843F0020313701032137843F002031370704700BF9C
:402A8000A243004010B5002404E02046FEF7C6FC0134E4B2012CF8D9FF22014B1A7010BDD980FF1F10B50446FFF7ECFF2046FEF7A7FC014B1C7010BDD980FF1F014B18880D
:402AC00080B2704780400040034B1A7800F0F80010431870704700BF82400040024B187800F00700704700BF8240004070B505460E46FFF7F3FF0446FFF7E0FFA84256D0AB
:402B00002B4B1B7803F0010294B900B185B938B9284B1D80284A137803F0BF03137070BD254A137843F040031370224B1D8070BD22B3002321490B7001240F310C700431DA
:402B40000B700C390B7803F07F030B701A4B1B7813F0080F00D08DB9194B18800721013B1970164B1B7813F0010FFAD110490B7803F0FE030B700021104B19700C4B1B7805
:402B800013F0010F0DD00E4B1D800EB1032200E001220A4B1A70094B1B7813F0010FFAD170BD044B1D8002490B7813430B7070BDA243004080400040824000400140004017
:402BC00002400040014B188880B2704700410040034B1A7800F0F80010431870704700BF02410040024B187800F00700704700BF0241004070B505460E46FFF7F3FF04469E
:402C0000FFF7E0FFA84256D02B4B1B7803F0010294B900B185B938B9284B1D80284A137803F0BF03137070BD254A137843F040031370224B1D8070BD22B3002321490B700A
:402C4000012413310C7004390B7008390B7803F07F030B701A4B1B7813F0080F00D08DB9194B18800721013B1970164B1B7813F0010FFAD110490B7803F0FE030B700021B4
:402C8000104B19700C4B1B7813F0010F0DD00E4B1D800EB1032200E001220A4B1A70094B1B7813F0010FFAD170BD044B1D8002490B7813430B7070BDA1430040004100404B
:402CC00002410040014000400240004001BE704710B5044605E0084B186800F0C5F8A4F50044B4F5004FF6D8034B586800FB04F000F0BAF810BD00BFDC80FF1F08B5034B11
:402D00001B7A00FB03F000F0AFF808BDDC80FF1F70B504460E46074B1D681F2802D90020FFF7D4FF04F01F04103455F8240045F8246070BD08ED00E038B504460D4607294C
:402D400002D90020FFF7C2FF1F2C02D90020FFF7BDFF04F01F0000F1604000F564406D01EDB2057038BD00BF024A137843F080031370704778640040014B1870704700BF09
:402D800088640040014B1878704700BF68640040014B1870704700BF28640040014B1878704700BF48640040014B1870704700BF0864004008B501E0FFF7F0FFFFF7E2FFE5
:402DC00010F0080FF8D108BD08B50120FFF7E0FF0120FFF7E9FF00F04FF8064A137843F01003137000F04CF8FFF7E4FF0120FFF7C3FF08BD9864004008B5054B1B7823B93E
:402E0000FFF7E2FF0122024B1A70FFF7ADFF08BD8A81FF1F014B1B681865704708ED00E04001C0B2014B1870704700BF04E400E01022014B1A60704700E100E01022014BA6
:402E40001A60704780E100E010B50446FFF7F6FF2046FFF7DFFF0720FFF7E2FFFFF7E8FF10BD00BF000000000230800803D000BF01380046FCD17047EFF3108072B67047A5
:402E800080F31088704700BF014B1868704700BF4C81FF1F0E4B70B51E460E4C0025E41AA410A54204D056F8253098470135F8E701F040F8084B094C1E46E41AA4100025F3
:402EC000A54204D056F8253098470135F8E770BD403F0000403F0000403F0000483F000010B5431E0A44914204D011F8014B03F8014FF8E710BD03460244934202D003F8B7
:402F0000011BFAE7704700000EB400B54FF402719CB0ADF814106FF00041049107914FF6FF711DAB02900690084853F8042BADF81610006802A9019300F064F8029B0022E2
:402F40001A701CB05DF804EB03B070474C81FF1F2DE9F0478E6882469E420C46914698463ED88A8912F4906F3AD02568096902236F1A656905EB450595FBF3F57B1C4344ED
:402F80009D4238BF1D4653050FD5294600F040FB064698B13A462169FFF7A2FFA38923F4906343F08003A38113E02A4600F08EFB064670B92169504600F0DEFA0C23CAF892
:402FC0000030A3894FF0FF3043F04003A381BDE8F08726613E44266046466561ED1BA560464528BF464649463246206800F0A8FAA36800209B1BA36023681E442660BDE848
:40300000F08700002DE9F04F9DB003938B8980461C060D4616460DD50B695BB9402100F0F7FA2860286118B90C23C8F80030CDE040236B610023099320238DF82930DFF8F6
:403040009CB130238DF82A3037463C4614F8013B1BB9B7EB060910D003E0252BF9D02746F3E74B46324629464046FFF771FF013000F0A780099B4B4409933B78002B00F099
:40308000A08000234FF0FF3204930793059206938DF853301A930126052221784E4800F041FA671C049B38B14B4A3C46801A06FA00F018430490EFE7D90644BF20228DF885
:4030C00053201A0744BF2B228DF8532022782A2A03D0079A00210A200BE0039A111D12680391002A10DA524243F00200079204900BE027463B780134303B092B03D800FBC4
:4031000002320121F5E701B107923B782E2B1ED17B782A2B0AD1039B02371A1D1B680392002BB8BF4FF0FF33059310E0002319460593781C0A2407463A780130303A092A8A
:4031400003D804FB01210123F5E703B1059103223978224800F0E6F940B14023CBEB000003FA00F0049B013718430490397806221B487E1C8DF8281000F0D4F988B1194B50
:4031800033B9039B073323F007030833039314E003AB00932A46144B04A94046AFF3008007E003AB00932A460F4B04A9404600F093F8B0F1FF3F824603D0099B5344099313
:4031C00042E7AB895B0601D4099801E04FF0FF301DB0BDE8F08F00BFFE3E0000043F0000083F000000000000512F00002DE9F04791461F460A698B6806469342B8BF134676
:40320000C9F8003091F843200C46DDF8208012B10133C9F800302368990642BFD9F800300233C9F80030256815F0060510D104F1190A07E00123524639463046C04701304A
:403240001AD00135E368D9F800209B1A9D42F1DB94F843302268003318BF012392060FD5E118302081F843005A1C94F845102244023382F8431003E04FF0FF30BDE8F0872E
:4032800004F1430239463046C0470130F4D02268D9F80050E36802F00602042A08BF5D1B2269A3680CBF25EAE57500259342C4BF9B1AED184FF000091A344D4509D0012360
:4032C000224639463046C0470130D5D009F10109F3E70020BDE8F0872DE9F04317460A7E85B06E2A984606460C460C9B01F1430E00F0AE8011D8632A22D009D8002A00F098
:40330000BB80582A40F0CA8081F84520834955E0642A1ED0692A1CD0C0E0732A00F0B08009D86F2A2ED0702A40F0B8800A6842F020020A603EE0752A24D0782A3AD0ADE08B
:403340001A6801F14205111D1960136884F84230A8E021681A6811F0800F02D0111D196008E011F0400F02F10401196002D0B2F9003000E01368002B3CDA2D225B4284F88C
:40338000432037E021681A6811F0800F02D0111D196007E011F0400F02F10401196001D0138800E01368227E5C496F2A14BF0A2208221BE078225A4984F8452022681868E6
:4033C00012F0800F00F104051D6003D1550601D5038800E00368D00744BF42F0200222601BB9226822F0200222601022002084F8430001E049490A226568002DA56008DB94
:40340000206820F0040020602BB9002D7DD175460CE0002B79D07546B3FBF2F002FB1033CB5C05F8013D03460028F5D1082A0BD12368DA0708D5236962689A42DEBF302359
:4034400005F8013C05F1FF35C5EB0E0323612EE008681A6810F0800F496903D0101D1860136808E010F0400F02F104001860136801D0198000E0196000232361754616E033
:403480001A68111D1960156800216268284600F049F808B1401B6060636804E004F1420584F8422001232361002384F84330CDF800803B4603AA21463046FFF797FE013079
:4034C00002D14FF0FF3026E023692A4639463046C0470130F5D023689B0710D5002504F1190907E001234A4639463046C0470130E7D00135E368039A9B1A9D42F2DBE06803
:40350000039B9842B8BF184605E00B7804F1420584F842308AE705B0BDE8F0830F3F0000203F000010B5C9B202449042034605D01C7801308C42F8D1184610BD002010BDD7
:40354000884210B501EB020301D8421E0BE09842FBD28118D21AD34204D013F8014D01F8014DF8E710BD994204D011F8014B02F8014FF8E710BD000038B50546002944D0D7
:4035800051F8043C0C1F002BB8BFE41800F0D4F81E4A1368114613B96360146030E0A3420DD92268A018834201BF18685B681218226063600C6023E0A24203D813465A6823
:4035C000002AF9D118681918A1420BD12168014458188242196013D110685268014419605A600DE002D90C232B6009E021686018824201BF106852680918216062605C601C
:403600002846BDE8384000F098B838BD9081FF1F70B5CD1C25F0030508350C2D38BF0C25002D064601DBA94202D90C23336046E000F082F8234B1C681A462146A1B10B68E7
:403640005B1B0ED40B2B03D90B60CC18CD501EE08C420BBF63684B681360636018BF0C4615E00C464968E9E7174C23681BB9304600F052F820602946304600F04DF8431CCE
:4036800018D0C41C24F00304A0420DD12560304600F053F804F10B00231D20F00700C31A0ED05A42E25070BD211A304600F034F80130EBD10C233360304600F03EF80020EC
:4036C00070BD00BF9081FF1F8C81FF1FF8B5074615460E4621B91146BDE8F840FFF798BF1AB9FFF749FF2846F8BD00F027F885420ED929463846FFF78BFF044650B1314660
:403700002A46FFF7EDFB31463846FFF735FF01E03046F8BD2046F8BD38B5064C0023054608462360FDF72EFF431C02D1236803B12B6038BDF081FF1F7047704751F8040C0F
:403740000028BEBF091851F8043CC0180438704700000000434F4E54524F4C20524547495354455220313A203078253032580D0A000000004572726F72206F636375727288
:40378000656420647572696E672049324320636F6D6D20746F207265616420636F6E74726F6C20726567697374657220310D0A00434F4E54524F4C2052454749535445527A
:4037C0002031207375636365737366756C6C79207772697474656E2061733A203078253032580D0A000000004572726F72206F6363757272656420647572696E6720493255
:403800004320636F6D6D20746F2073657420636F6E74726F6C20726567697374657220310D0A0000434F4E54524F4C20524547495354455220333A203078253032580D0A0B
:40384000000000004572726F72206F6363757272656420647572696E672049324320636F6D6D20746F207265616420636F6E74726F6C20726567697374657220330D0A00A5
:40388000434F4E54524F4C2052454749535445522033207375636365737366756C6C79207772697474656E2061733A203078253032580D0A000000004572726F72206F63B5
:4038C00063757272656420647572696E672049324320636F6D6D20746F2073657420636F6E74726F6C20726567697374657220330D0A0000434F4E54524F4C205245474909
:403900005354455220353A203078253032580D0A000000004572726F72206F6363757272656420647572696E672049324320636F6D6D20746F207265616420636F6E747223
:403940006F6C20726567697374657220350D0A00434F4E54524F4C2052454749535445522035207375636365737366756C6C79207772697474656E2061733A2030782530C3
:4039800032580D0A000000004572726F72206F6363757272656420647572696E672049324320636F6D6D20746F2073657420636F6E74726F6C207265676973746572203528
:4039C0000D0A0000434F4E54524F4C20524547495354455220363A203078253032580D0A000000004572726F72206F6363757272656420647572696E672049324320636FC2
:403A00006D6D20746F207265616420636F6E74726F6C20726567697374657220360D0A00434F4E54524F4C2052454749535445522036207375636365737366756C6C792079
:403A40007772697474656E2061733A203078253032580D0A000000004572726F72206F6363757272656420647572696E672049324320636F6D6D20746F2073657420636F18
:403A80006E74726F6C20726567697374657220360D0A00004649464F20434F4E54524F4C2052454749535445523A203078253032580D0A004572726F72206F63637572724B
:403AC000656420647572696E672049324320636F6D6D20746F2072656164204649464F20636F6E74726F6C207265676973746572200D0A004649464F20434F4E54524F4C65
:403B0000205245474953544552207375636365737366756C6C79207772697474656E2061733A203078253032580D0A004572726F72206F6363757272656420647572696EDF
:403B4000672049324320636F6D6D20746F20736574204649464F20636F6E74726F6C207265676973746572200D0A0000494E543220434F4E46494755524154494F4E20521D
:403B8000454749535445523A203078253032580D0A0000004572726F72206F6363757272656420647572696E672049324320636F6D6D20746F207265616420494E5432200A
:403BC000434F4E46494755524154494F4E205245474953544552200D0A000000494E543220434F4E46494755524154494F4E20524547495354455220737563636573736618
:403C0000756C6C79207772697474656E2061733A203078253032580D0A0000004572726F72206F6363757272656420647572696E672049324320636F6D6D20746F207365D6
:403C40007420494E543220434F4E46494755524154494F4E205245474953544552200D0A00000000494E5432204455524154494F4E2052454749535445523A203078253060
:403C800032580D0A000000004572726F72206F6363757272656420647572696E672049324320636F6D6D20746F207265616420494E5432204455524154494F4E205245470F
:403CC0004953544552200D0A00000000494E5432204455524154494F4E205245474953544552207375636365737366756C6C79207772697474656E2061733A203078253021
:403D000032580D0A000000004572726F72206F6363757272656420647572696E672049324320636F6D6D20746F2073657420494E5432204455524154494F4E205245474995
:403D400053544552200D0A004F766572207468726573686F6C6420646174613A2025642025642025642025642025642054696D657374616D703A202564207365636F6E64B1
:403D8000730D0A00416363656C65726174696F6E20646174613A202564202564202564200D0A20506172616D65746572733A203078253032582028307825303258290D0A65
:403DC0000A00000020454550524F4D205265616420506172616D6574657273203D203078253032582028307825303258290D0A002A2A415454454E54494F4E3A20506F7358
:403E00006974696F6E206F6620706F74656E74696F6D65746572206368616E67656420647572696E6720726561642D6F6E6C79206D6F64616C6974792A2A0D0A0A00000085
:403E40002A2A2A2A5741524E494E473A20636F6E66696775726174696F6E206D656E7520697320696E20726561642D6F6E6C79206D6F64616C6974792A2A2A2A0D0A0000FD
:403E800020454550524F4D205265616420506172616D6574657273203D203078253032580D0A0A00035B00402443004040000000C84900401900405100403000F0510040B4
:403EC000100000000140000280020140800D00140140000800400140000A004C01400002005001402000000060520040C8080048060000020140D008004880004300232D71
:403F0000302B2000686C4C006566674546470030313233343536373839414243444546003031323334353637383961626364656600000000F8B500BFF8BC08BC9E4670475F
:403F40004D00000001160000F8B500BFF8BC08BC9E46704729000000683F0000C880FF1F88000000A8000000000000000100000012000000F881FF1F01FF00000000E02E40
:403F8000C05D00001800000000366E010000000000000000000000000000000000000000000000000000000000000000FC3E000000000000000000000000000000000000ED
:403FC0000000000000000000000000000000000000000000000000000000000000000000000000000000000000000000EC80FF1F0000000000000000000000000000000037
:404000000000000000000000000000000000000000000000000000000000000000000000000000000000000000000000000000000000000000000000000000000000000080
:404040000000000000000000000000000000000000000000000000000000000000000000000000000000000000000000000000000000000000000000000000000000000040
:404080000000000000000000000000000000000000000000000000000000000000000000000000000000000000000000000000000000000000000000000000000000000000
:4040C00000000000000000000000000000000000000000000000000000000000000000000000000000000000000000000000000000000000000000000000000000000000C0
:020000040003F7
:0200000480007A
:4000000005520040056400400465004001010140130201403C0301405C040140430501405B060140460701405A0801403B090140060B0140020D0140020F01400B150140E7
:4000400004160140151701404F1801404D1901405C1A01404B1B0140074001400B4101400A4201400543014004440140064501400746014004470140074801401B4901407C
:40008000094C01400E4D0140065001400351014000400120110218C01980830F860D870D880D8972880F89388A0D8B0FE2808013822C8402860D94499606A440A865AA1A41
:4000C000B270B40FBA28D602D724D804DB04DC01DD10DF01000604200504060207400A200F18110813101540171918241A201C021D441E081F04252026802D0A2E20368009
:40010000370938203A203D013E043F50412042084480451046204A044B104DC24F5555045610570559C060046619670169016A446B59720281088203C0FCC264C4F6CAE015
:40014000CCD0CEF0D0E0D230D8F4EA01041C062207130C300E0C0F0810091210142C15311611170E196C1A031B031F4C2010241428402D312F4630603130334A341F350F0D
:40018000380239023B283F014004460449FF4A074BFF4C404D204EF04F055008580459045A045C225D025F01604061A862406320800E8160858488048A798C138D078E44A5
:4001C0008F3891019580962097049845990A9A3A9B109D84A184A556A709A904AD04AF80B17FB230B302B440B580B60FB880B902BE10BF14D409D604D804D904DB04DC113E
:40020000DD10DF010004018004610540060809080A880C100E2810A012081A881C091E2020042109221025102622272029802E4A2F043108325034103602374838883904A5
:400240003C403E043F0241014420450450C452085CA05E025F0465016680810182238A1090209244930C99409A029B48A104A204A301A510B080C0D5C26EC40ECAF8CCFEE2
:40028000CEDAD001D6F0D890E2800109050908031302180119021C032305270429022E0431023201330834023504360437013F104010410245D04712483349FF4AFF4BFFD2
:4002C0004DA04F04501852805405580459045A045B045C445D445F01604062C06440654066C068C06AC06CC06EC0840A86148C138E0C9208941395029604A615A803AA1440
:40030000AF01B301B410B502B60FBA80BE10BF10C046C103C5E0C6B0C70CC81AC9FFCAFFCBFFCEF0CF44D00CD280D405D804D904DA04DB04DC32DD32DF01E6C0EA40EB0245
:40034000000401800301052009080A800E0610081104178019901C101D801E041F80222023102460268027082A802E082F883204340135203D023F044108430145804608E2
:400380004A084B024F05502855015609588859025D405F097280778089028A208B048D108E018F089004910492889D80A108A208A420AA80AB20AC84C045C2CCC486CAE842
:4003C000CCA2CEC0D033D204D6DBE804060218041E01220226013002340436013E51404345EC4620480B49FF4AFF4BFF4F01501852805401560458045A045B045D665F0110
:400400006040624064406540668068806A806C806E8086048701881C8A618B018C048D02907F9467950296189A639C10A102A408A818A902AC3CAE42B01FB102B238B45851
:40044000B501BA22BF01C030C101C612C70DC81CC9FFCAFFCBFFCDA0CF04D018D602D713D804D904DA04DB04DC32DD23DF01E040E2C0E440E540E6C0E8C0EAC0ECC0EEC0E2
:40048000000801A00610082009080A010B800D400F08120113181508168019351E881F80221129212A013108384239093BA0414446904D024F045140531456105A025D0238
:4004C0005E805F04644069146B0270147203731876808B248D41962098049C40C027C2CFC437CA05CC02CE0ED0CAD6D1D880E060E290E420E804821098049C40B004E4043B
:40050000EA209C40EA018840E28080108C109030AD20B680E00CE280E401E610EA45EE0AB808BE04D804DF011908804084018C088D40907095409C019D28A008A280AB01CF
:40054000AC08AF10B080B108B601E202E808EC04EE080201040607040F041C041D01240627033102320434013504360237013F104020410445D546424701483F49FF4AFFB4
:400580004BFF4DA04F0450185401580459045A045B045C345D245F01604062C06440654066C068C06AC06CC06EC0800481088202850C89048DEF914295E3970C990F9A04D1
:4005C0009BE09D63A10CA3E3A763A921AA01AB10B004B160B30FB402B510B601B780B980BB08D418D804D904DB04DC25DD20DF010380050806800A080E01100416101A0832
:400600001B811D201E2520082148220925802748282029012A202F10311832403301374038683A023C803E0C452046404D084F0554405501565057085A025D415E18600434
:40064000628086048E108F209028915593209440980499159A029B329C209D80A204A404A589A801AB04AD04AF80B180B710C038C282C422CA47CC1FCE5FD0A0D6F1D80CFE
:40068000E240E410E880EA20EC4007020F0110081270170218221A8920042301243F283F2C112E8A303832043403350136C037023B023E403F504063410442024401460E8D
:4006C000470C481449FF4AFF4BFF4C624DA04EF04F41500C52805401580459045A045B045C225D625F016640670269106A306B106D106E106F12820484018A029204980291
:400700009C01A402A801B004B202B401BE01C014C5ECC720C823C9FFCAFFCBFFCF01D018D280D407D804DA04DB04DC04DD46DF01E040E240E440E540E680E880EA80EC80AF
:40074000EE800501060807500A840C800D020F041002111413021610172018011A941E401F24204422802B803104340835043808398040694210450247404A084D0A500439
:4007800053805502590A5A405C805E205F09710176808080880289808A248B058C80919493059444968099049A189B3A9C209D809EA09F01A218A680A720AF09C070C2DA5A
:4007C000C46FCA01CC02CE0AD09FD204D6FBE018E280E401E610EA0530023320371439108910CCF0CE105F01600883109F10A402A720AB04D680D840E220EA803E108002FF
:400800008301880897019C08A402A720CE20E2A094049610A720A804E82013017F04C408DE01002853019708AB01C00AD40147088301970AB014D001EA04EE018B409708DA
:40084000AB08E0042404810894049610A720C820E6201220164059086540660274087B028220864089408C0899089A02A302AA10AB02AF20B602C430D6C0D880DC80DE207D
:40088000E010E480EAA0EE10132817047B107F409340B304C40EDE03E801108073408310874088808F04934097809B04A710AB28C408DC01E609005E08020A1E0C4C107C3F
:4008C0001C7C00FF010303C002800000430000009A1D0000381DC000FC0203049A010002000D0010211DD800020000000002000D98000210021D98009802020813006400A7
:400900000000E0000F10130F00002880000000106305200004DEF0BC3BFFFFFF2200F008040000004000040004040404111100010000C00040011011C00100114001400185
:40094000000000000000000000000000000000000060600060000000930050808300830000000000000B0B0000000000140001161200020000000000E00004E0E000E00015
:4009800008000000250018010000000000000000000000000000000000000000000000000000000000000000000000000000000000000000000000000000000000000000F1
:4009C00000000000000000000000000000000000000000000000000000000000000000000000000000000000000000000000000000000000000000000000000000000000F7
:400A000000000000000000000000000000000000000000000000000000000000000000000000000000000000000000000000000000000000000000000000000000000000B6
:400A40000000000000000000000000000000000000000000000000000000000000000000000000000000000000000000000000000000000000000000000000000000000076
:400A80000000000000000000000000000000000000000000000000000000000000000000000000000000000000000000000000000000000000000000000000000000000036
:0200000490006A
:0400000000004005B7
:0200000490105A
:04000000BC90ACAF55
:0200000490303A
:02000000963434
:0200000490402A
:4000000000000000000000000000000000000000000000000000000000000000000000000000000000000000000000000000000000000000000000000000000000000000C0
:400040000000000000000000000000000000000000000000000000000000000000000000000000000000000000000000000000000000000000000000000000000000000080
:400080000000000000000000000000000000000000000000000000000000000000000000000000000000000000000000000000000000000000000000000000000000000040
:4000C0000000000000000000000000000000000000000000000000000000000000000000000000000000000000000000000000000000000000000000000000000000000000
:0200000490501A
:0C00000000012E16106900012E30A69D94
:00000001FF