:400000000080002011000000690A0000690A000008B5044B1A6803F53F5302331A6000F043FD00BFFA46004010B5054C237833B9044B13B10448AFF300800123237010BD51
:400040004881FF1F00000000D81C0000084B10B51BB108490848AFF300800848036803B910BD074B002BFBD0BDE81040184700BF000000004C81FF1FD81C0000C880FF1F1A
:4000800000000000F0B5C3B062B600F0BBF900F093FD00F025FA052001F068F90DF1D3022021182000F0B4F948B99DF8D320BC4935A801F0EDF935A800F098FD02E0B948F6
:4000C00000F094FD9DF8D330572B14D057228DF8D3202021182000F0EBF948B99DF8D320B14935A801F0D4F935A800F07FFD02E0AE4800F07BFD0DF1D2022221182000F05F
:4001000087F948B99DF8D220A94935A801F0C0F935A800F06BFD02E0A64800F067FD9DF8D230022B14D002228DF8D2202221182000F0BEF948B99DF8D2209F4935A801F042
:40014000A7F935A800F052FD02E09C4800F04EFD0DF1D1022321182000F05AF948B99DF8D120974935A801F093F935A800F03EFD02E0944800F03AFD9DF8D130982B14D047
:4001800098228DF8D1202321182000F091F948B99DF8D1208C4935A801F07AF935A800F025FD02E0894800F021FD34AA2421182000F02EF948B99DF8D020854935A801F038
:4001C00067F935A800F012FD02E0824800F00EFD9DF8D030402B14D040228DF8D0202421182000F065F948B99DF8D0207A4935A801F04EF935A800F0F9FC02E0774800F0E5
:40020000F5FC0DF1CF022E21182000F001F948B99DF8CF20724935A801F03AF935A800F0E5FC02E06F4800F0E1FC9DF8CF30402B14D040228DF8CF202E21182000F038F9D7
:4002400048B99DF8CF20684935A801F021F935A800F0CCFC02E0654800F0C8FC0DF1CE023421182000F0D4F848B99DF8CE20604935A801F00DF935A800F0B8FC02E05D4868
:4002800000F0B4FC9DF8CE302A2B14D02A228DF8CE203421182000F00BF948B99DF8CE20554935A801F0F4F835A800F09FFC02E0524800F09BFC0DF10B022F21182000F0C8
:4002C000A7F80028F7D19DF80B3013F0040F51D1F1E704EB4402530003AA134406222821182000F0B3F8002841D162001319590042AB194411F8FC3C11F8FB5C43EA05255C
:4003000045F30B156D00002DB8BF6D422DB211F8FA3C11F8F96C43EA062646F30B167600002EB8BF764236B211F8F83C2244510042AA114411F8F77C43EA072747F30B1743
:400340007F00002FB8BF7F423FB23A463146284600F0D2F8009733462A46294935A801F097F835A800F042FC052000F0FFFF0134E4B200E000241F2CABD900228DF8CF20E6
:400380002E21182000F094F80A2000F0EFFF40228DF8CF202E21182000F08AF88BE700BFDC1C0000FC1C0000381D0000701D0000AC1D0000CC1D0000081E0000401E00000A
:4003C0007C1E00009C1E0000D81E0000101F00004C1F00006C1F0000A81F0000E01F00001C2000003C2000007C200000B4200000F42000001C21000064210000A421000025
:40040000EC21000008B500F049FC002008BD00BFF8B506460D461746002100F0BBFD044668B9284600F048FE044640B90121304600F0F0FD044610B900F06AFE387000F0DD
:400440001FFE201C18BF0120F8BD00BF2DE9F04180460C4616461F46002100F09BFD0546F0B944F0800000F027FE0546C0B90121404600F0CFFD054650B111E0C4EB06080F
:40048000012000F045FE07F80800013CE4B200E03446012CF2D8013E002000F039FEB85500F0EEFD281C18BF0120BDE8F08100BF70B50D461646002100F06CFD044640B9AD
:4004C000284600F0F9FD044618B9304600F0F4FD044600F0D5FD201C18BF012070BD00BF08B500F025FF00F0A5FE08BD08B500F0B7FE00F041FE08BDF8B505460E461746E2
:4005000040F2E9229D4B1A80A0F57574A4B2282C03D800229A4B1A7010E0A1F575739BB2282B03D80122964B1A7007E0A7F575739BB2282B02D80222914B1A70904B1B7814
:40054000012B61D01BB1022B00F0BC80F8BDFFF7CDFFFF2000F092FE002000F09BFEFF2000F018FE002000F01BFEFFF7B9FF282C0AD8FFF7BBFFFF2000F080FEFF2000F0BC
:4005800083FEFFF7ADFFF8BDB5F57F7F10DD7B4B1B8803F57F739D420ADCFFF7A7FF412000F06CFE202000F06FFEFFF799FFF8BD724B1B8803F57F7295420FDD03F5FF720A
:4005C000B5EB420F0ADCFFF791FF202000F056FE102000F059FEFFF783FFF8BD03F5FF72B5EB420F40F3C880FF33B5EB830F00F3C380FFF77BFF102000F040FE082000F021
:4006000043FEFFF76DFFF8BDFFF770FFFF2000F035FE002000F038FEFF2000F0BBFD002000F0BEFDFFF75CFFA6F575739BB2282B0AD8FFF75BFFFF2000F020FEFF2000F001
:4006400029FEFFF74DFFF8BDB6F57F7F10DD4B4B1B8803F57F739E420ADCFFF747FF412000F00CFE202000F015FEFFF739FFF8BD424B1B8803F57F7296420FDD03F5FF72DA
:40068000B6EB420F0ADCFFF731FF202000F0F6FD102000F0FFFDFFF723FFF8BD03F5FF72B6EB420F68DDFF33B6EB830F64DCFFF71DFF102000F0E2FD082000F0EBFDFFF7E4
:4006C0000FFFF8BDFFF712FFFF2000F0D7FD002000F0DAFD002000F0DDFDFFF701FFA7F575739BB2282B0AD8FFF700FFFF2000F051FDFF2000F054FDFFF7F2FEF8BDB7F587
:400700007F7F10DD1D4B1B8803F57F739F420ADCFFF7ECFE412000F03DFD202000F040FDFFF7DEFEF8BD154B1B8803F57F7297420FDD03F5FF72B7EB420F0ADCFFF7D6FEF6
:40074000202000F027FD102000F02AFDFFF7C8FEF8BD03F5FF72B7EB420F0DDDFF33B7EB830F09DCFFF7C2FE102000F013FD082000F016FDFFF7B4FEF8BD00BF7681FF1F9A
:400780007481FF1FFEE700BFF0B40022174611E050F82760F3B226F0FF0608E001EB420511F812406D78A5550132013BDBB2002BF4D101371F2FEBD9F0BC70470A4B1B7809
:4007C000DBB203F00701094A11701B09013213700822074B1A708023064A1370583213704422054B1A707047CF0100496E5800403D510040005B00407658004008B50A46A0
:40080000002100F03CFE08BD08B500F02DFE08BD38B50024384B1C80502202331A700B2202331A801823354A13704FF49C71023211800232137045F6BF5102321180023261
:40084000137045F6E8322E4B1A80192502331D7004222C492C48FFF7D7FF02222B4B1A7008224FF040231A70032103F500731970274B1B78DBB227490B70274B1A8041F264
:400880005122023B1A800CE0244B1B7803F0010343EA440404F003044FF4F07000F0A8FD013D0DB1032CEFD115B90320FFF76AFF1B4B4FF480721A8007221A7000221949BA
:4008C0000A704820023108701A700222033B1A7004220A331A70144A137843F01F031370013A137843F001031370013A137843F08003137038BD00BF80400040864000400E
:4009000090400040A8070048004100400043004008010049A146004022420040254200400440004006400040A243004038B572B6394A137843F00403137000240BE037484B
:4009400063001A19510001440A46098AD068FFF755FF0134E4B2092CF1D900240CE02F48A20011194B000344B3F85020D96C986CFFF74AFF0134E4B2012CF0D928494FF023
:400980009040FFF701FF0A24264B1C70264A137843F0020313701032137843F002031370224D2B7843F040032B70A2F58632513A137843F01003137008221D491D48FFF7CC
:4009C00023FF22461C491D48FFF71EFF08221C491C48FFF719FF22461B491C48FFF714FF22461B491B48FFF70FFF1B4A137843F008031370194C61232370FFF709FF812354
:400A000023700122164B1A70FFF7D8FE0E2229461448FFF7F9FE38BDE84600400C220000800000488358004003500140A043004074070048025100407C070048C0510040C4
:400A4000880700481251004090070048205100409C07004830510040224300400048004004000840B043004008B500F0D1FC03680C2B00D1FEE7FEE708B5094B1A68104476
:400A8000084BC31A802B02DC054B186005E000F0BFFC0C2303604FF0FF32104608BD00BFCC80FF1F9081FF1F08B5104E104D16E029686B68AC68002204E051F8040B43F831
:400AC000040B0432A242F8D1E868002203E0002143F8041B04328242F9D11035013E002EE6D100F09BFCFFF7CDFAFEE701000000C422000008B5104A104B1A60104A136836
:400B000043F40073136000230AE0032B03D80D4A52F8231000E00C490C4A42F8231001332F2BF2D90A4B1A780A4B1A70074A0A4B1A60FFF7FBFE08BD0004FA050CED00E0E7
:400B400014ED00E000000000690A00000080FF1FBC760040C080FF1F08ED00E07222074B1A702022043B1A7006225B3B1A70472210331A70002251331A70704788650040D1
:400B800010B500F03DFC04460A4A137843F020031370043A137843F0100313700632137843F01003137000F0D1FB204600F02CFC10BD00BF9865004008B5054B1B7823B9A8
:400BC000FFF7CCFF0122024B1A70FFF7D9FF08BD6481FF1F034B1B7813F0040FFAD1024B187070476A6500404A65004038B5074B1B782BB938BDFFF7EDFF0134A4B201E05F
:400C000005460024285D0028F5D138BD6481FF1F10B50222114B1A7081220E3B1A70082202331A70042211331A70002401331C704FF400420A4B1A6007210F2000F0C0FB7E
:400C400008490F2000F0A8FB1022074B1A70074B1C70074B1C70074B1C7010BDD649004080E100E0C50C00007881FF1F8981FF1F7C81FF1F7D81FF1F08B500F0C1FB064A4C
:400C8000137843F0040313701032137843F00403137000F0B9FB08BDA543004008B5074B1B7823B9FFF7B4FF0122044B1A70FFF7E3FF4FF40042024B1A6008BD6681FF1FC0
:400CC00000E100E038B5A54B1C78A54B1B7813F0400F00F03A81E4B214F0010F00F01D819F4B1B78453B052B00F21481DFE813F006008200120112010600DF0004F0DF0521
:400D000004F00A04082C42D1954B1B78DBB2452B35D1944B1B7813F0FF0F10D0924B1B681B78DBB2914A137004228C4B1A7001228F4B1A7046228A4B1A702C46EDE08D4BC7
:400D40001B7813F0020F0DD08B4A137843F00A0313706022824B1A704FF40042874B1A602C46DAE0864A137843F0100313701022844B1A700422023B1A702C46CDE0002219
:400D8000764B1A704A22764B1A702C46C5E00A2C2BD1794A137843F0A0031370754B1B7813F0020F14D06E4B1B7813F0080F01D0092300E00A23704A11780B4313706022F0
:400DC000674B1A704FF400426C4B1A602C46A4E06B4A137843F0100313701022694B1A700422023B1A702C4697E0002000F0BCFA2C4692E014F0020F36D15D4B1A78D2B238
:400E0000584B1B78DBB29A4210D2594A1378DBB255490968CB5CDBB254490B7004214F4B197013780133DBB2137076E0514B1B7813F0020F0CD0504A137843F00A03137027
:400E40006022474B1A704FF400424C4B1A6064E04B4A137843F0100313701022494B1A700422023B1A7058E0424B1B7813F0020F0CD0414A137843F09A0313706022384B1E
:400E80001A704FF400423D4B1A6046E03C4A137843F01003137010223A4B1A700422023B1A70354A137843F09003137035E0364A1378DBB2354908682C490978C9B2C1547F
:400EC00013780133DBB213701278D2B2304B1B78DBB29A4203D21022204B1A701DE0254B1B7813F0020F0CD0234A137843F00903137060221A4B1A704FF400421F4B1A601E
:400F00000BE01F4A137843F0100313700022134B1A7002E0002000F027FA14F0200F1CD00F4B1B7813F0080F01D0012300E00223114A11780B431370114A137803F0EF034C
:400F400013701022064B1A7038BD054B1B7813F0100F02D11022024B1A7038BDD74900407881FF1F7E81FF1F8081FF1FD84900407D81FF1F8881FF1F8981FF1F80E100E056
:400F8000D6490040D94900407C81FF1F8481FF1F8A81FF1F1A4B1B78DBB2102B29D1194B1B7813F0080F26D14FF40042164B1A604000C0B229B140F001004922104B1A70DA
:400FC00002E045220E4B1A70104B1870012201331A700F4B1B7813F0010FFAD00C4B1B7803F00A030A2B08D11022054B1A700320704702207047012070470020704700BF12
:401000007881FF1FD949004080E100E0D8490040D7490040164B1B7813F0040F23D04000C0B229B140F001004922124B1A7002E04522104B1A70104B1870122201331A7026
:401040000422023B1A700D4B1B7813F0010FFAD00A4B1B7803F00A030A2B06D11022054B1A7003207047022070470020704700BFD94900407881FF1FD8490040D749004038
:401080000A4B1B7813F0040F0ED01023074A13700421023A1170064A1370064B1B7813F0210FFAD00020704702207047D94900407881FF1FD7490040114B1B7813F0040F29
:4010C0001BD0104B18700422013B1A7046220E4B1A700E4B1B7813F0010FFAD00B4B1B7813F0020F04D16022074B1A70002070476022054B1A70032070470220704700BF4D
:40110000D9490040D84900407881FF1FD7490040114B1B7813F0040F1BD0104B1B78DBB2492B05D100220E4B1A704A220B4B1A700B4B1B7813F0010FFAD00A4B1B78DBB234
:4011400018B11021064A117004E06021034A117000E0002318467047D94900407881FF1FD7490040D8490040024A137843F080031370704776650040024A137803F07F03F1
:401180001370704776650040014B1870704700BF05650040014B1870704700BF45650040014B1870704700BF25650040014B1870704700BF85650040014B1878704700BFD8
:4011C00065650040014B1878704700BF5565004008B501E0FFF7F6FFFFF7EEFF10F0100FF8D108BD10B5114A137803F0C00343F00B0313700E4C237843F001032370FF207D
:40120000FFF7C2FFFF20FFF7C5FF0020FFF7C8FF0020FFF7CBFF00F0F3F8237843F01003237000F0F1F8FFF7D3FF10BD766500409565004008B5054B1B7823B9FFF7D2FF0C
:401240000122024B1A70FFF78FFF08BD6781FF1F024A137843F080031370704779650040024A137803F07F031370704779650040014B1870704700BF06650040014B1870D3
:40128000704700BF46650040014B1870704700BF26650040014B1870704700BF36650040014B1870704700BF86650040014B1878704700BF66650040014B1878704700BF6F
:4012C0005665004008B501E0FFF7F6FFFFF7EEFF10F0100FF8D108BD10B5134A137803F0C00343F01B031370104C237843F001032370FF20FFF7BCFFFF20FFF7BFFF00201F
:40130000FFF7C2FF0020FFF7C5FF0020FFF7C8FF00F076F8237843F01003237000F074F8FFF7D0FF10BD00BF796500409665004008B5054B1B7823B9FFF7CEFF0122024BB8
:401340001A70FFF785FF08BD6881FF1F054A137843F0040313701032137843F004031370704700BFA243004001BE704710B5044605E0084B186800F03BF8A4F50044B4F5FB
:40138000004FF6D8034B586800FB04F000F030F810BD00BFD080FF1F70B504460E46074B1D681F2802D90020FFF7DEFF04F01F04103455F8240045F8246070BD08ED00E0C3
:4013C00038B504460D46072902D90020FFF7CCFF1F2C02D90020FFF7C7FF04F01F0000F1604000F564406D01EDB2057038BD00BF0230800803D000BF01380046FCD17047B3
:40140000EFF3108072B6704780F31088704700BF014B1868704700BF4081FF1F0E4B70B51E460E4C0025E41AA410A54204D056F8253098470135F8E700F032FF084B094C8B
:401440001E46E41AA4100025A54204D056F8253098470135F8E770BDAC220000AC220000AC220000B422000010B5431E0A44914204D011F8014B03F8014FF8E710BD0346C2
:401480000244934202D003F8011BFAE7704700000EB400B54FF402719CB0ADF814106FF00041049107914FF6FF711DAB02900690084853F8042BADF81610006802A90193A0
:4014C00000F064F8029B00221A701CB05DF804EB03B070474081FF1F2DE9F0478E6882469E420C46914698463ED88A8912F4906F3AD02568096902236F1A656905EB45051F
:4015000095FBF3F57B1C43449D4238BF1D4653050FD5294600F040FB064698B13A462169FFF7A2FFA38923F4906343F08003A38113E02A4600F08EFB064670B9216950464F
:4015400000F0DEFA0C23CAF80030A3894FF0FF3043F04003A381BDE8F08726613E44266046466561ED1BA560464528BF464649463246206800F0A8FAA36800209B1BA36041
:4015800023681E442660BDE8F08700002DE9F04F9DB003938B8980461C060D4616460DD50B695BB9402100F0F7FA2860286118B90C23C8F80030CDE040236B610023099371
:4015C00020238DF82930DFF89CB130238DF82A3037463C4614F8013B1BB9B7EB060910D003E0252BF9D02746F3E74B46324629464046FFF771FF013000F0A780099B4B44A6
:4016000009933B78002B00F0A08000234FF0FF3204930793059206938DF853301A930126052221784E4800F041FA671C049B38B14B4A3C46801A06FA00F018430490EFE75E
:40164000D90644BF20228DF853201A0744BF2B228DF8532022782A2A03D0079A00210A200BE0039A111D12680391002A10DA524243F00200079204900BE027463B7801342A
:40168000303B092B03D800FB02320121F5E701B107923B782E2B1ED17B782A2B0AD1039B02371A1D1B680392002BB8BF4FF0FF33059310E0002319460593781C0A24074630
:4016C0003A780130303A092A03D804FB01210123F5E703B1059103223978224800F0E6F940B14023CBEB000003FA00F0049B013718430490397806221B487E1C8DF82810C5
:4017000000F0D4F988B1194B33B9039B073323F007030833039314E003AB00932A46144B04A94046AFF3008007E003AB00932A460F4B04A9404600F093F8B0F1FF3F8246FD
:4017400003D0099B5344099342E7AB895B0601D4099801E04FF0FF301DB0BDE8F08F00BF6A220000702200007422000000000000D91400002DE9F04791461F460A698B68FC
:4017800006469342B8BF1346C9F8003091F843200C46DDF8208012B10133C9F800302368990642BFD9F800300233C9F80030256815F0060510D104F1190A07E00123524621
:4017C00039463046C04701301AD00135E368D9F800209B1A9D42F1DB94F843302268003318BF012392060FD5E118302081F843005A1C94F845102244023382F8431003E026
:401800004FF0FF30BDE8F08704F1430239463046C0470130F4D02268D9F80050E36802F00602042A08BF5D1B2269A3680CBF25EAE57500259342C4BF9B1AED184FF000094D
:401840001A344D4509D00123224639463046C0470130D5D009F10109F3E70020BDE8F0872DE9F04317460A7E85B06E2A984606460C460C9B01F1430E00F0AE8011D8632A42
:4018800022D009D8002A00F0BB80582A40F0CA8081F84520834955E0642A1ED0692A1CD0C0E0732A00F0B08009D86F2A2ED0702A40F0B8800A6842F020020A603EE0752A66
:4018C00024D0782A3AD0ADE01A6801F14205111D1960136884F84230A8E021681A6811F0800F02D0111D196008E011F0400F02F10401196002D0B2F9003000E01368002B78
:401900003CDA2D225B4284F8432037E021681A6811F0800F02D0111D196007E011F0400F02F10401196001D0138800E01368227E5C496F2A14BF0A2208221BE078225A49ED
:4019400084F845202268186812F0800F00F104051D6003D1550601D5038800E00368D00744BF42F0200222601BB9226822F0200222601022002084F8430001E049490A2225
:401980006568002DA56008DB206820F0040020602BB9002D7DD175460CE0002B79D07546B3FBF2F002FB1033CB5C05F8013D03460028F5D1082A0BD12368DA0708D52369A8
:4019C00062689A42DEBF302305F8013C05F1FF35C5EB0E0323612EE008681A6810F0800F496903D0101D1860136808E010F0400F02F104001860136801D0198000E0196090
:401A000000232361754616E01A68111D1960156800216268284600F049F808B1401B6060636804E004F1420584F8422001232361002384F84330CDF800803B4603AA2146ED
:401A40003046FFF797FE013002D14FF0FF3026E023692A4639463046C0470130F5D023689B0710D5002504F1190907E001234A4639463046C0470130E7D00135E368039A14
:401A80009B1A9D42F2DBE068039B9842B8BF184605E00B7804F1420584F842308AE705B0BDE8F0837B2200008C22000010B5C9B202449042034605D01C7801308C42F8D143
:401AC000184610BD002010BD884210B501EB020301D8421E0BE09842FBD28118D21AD34204D013F8014D01F8014DF8E710BD994204D011F8014B02F8014FF8E710BD0000CF
:401B000038B50546002944D051F8043C0C1F002BB8BFE41800F0D4F81E4A1368114613B96360146030E0A3420DD92268A018834201BF18685B681218226063600C6023E022
:401B4000A24203D813465A68002AF9D118681918A1420BD12168014458188242196013D110685268014419605A600DE002D90C232B6009E021686018824201BF10685268FC
:401B80000918216062605C602846BDE8384000F098B838BD7081FF1F70B5CD1C25F0030508350C2D38BF0C25002D064601DBA94202D90C23336046E000F082F8234B1C680E
:401BC0001A462146A1B10B685B1B0ED40B2B03D90B60CC18CD501EE08C420BBF63684B681360636018BF0C4615E00C464968E9E7174C23681BB9304600F052F820602946E7
:401C0000304600F04DF8431C18D0C41C24F00304A0420DD12560304600F053F804F10B00231D20F00700C31A0ED05A42E25070BD211A304600F034F80130EBD10C23336038
:401C4000304600F03EF8002070BD00BF7081FF1F6C81FF1FF8B5074615460E4621B91146BDE8F840FFF798BF1AB9FFF749FF2846F8BD00F027F885420ED929463846FFF7CA
:401C80008BFF044650B131462A46FFF7EDFB31463846FFF735FF01E03046F8BD2046F8BD38B5064C0023054608462360FEF7E4FE431C02D1236803B12B6038BD8C81FF1FD3
:401CC0007047704751F8040C0028BEBF091851F8043CC0180438704700000000434F4E54524F4C20524547495354455220313A203078253032580D0A000000004572726F7C
:401D000072206F6363757272656420647572696E672049324320636F6D6D20746F207265616420636F6E74726F6C20726567697374657220310D0A00434F4E54524F4C2059
:401D400052454749535445522031207375636365737366756C6C79207772697474656E2061733A203078253032580D0A000000004572726F72206F6363757272656420644A
:401D80007572696E672049324320636F6D6D20746F2073657420636F6E74726F6C20726567697374657220310D0A0000434F4E54524F4C20524547495354455220333A2084
:401DC0003078253032580D0A000000004572726F72206F6363757272656420647572696E672049324320636F6D6D20746F207265616420636F6E74726F6C20726567697357
:401E000074657220330D0A00434F4E54524F4C2052454749535445522033207375636365737366756C6C79207772697474656E2061733A203078253032580D0A0000000096
:401E40004572726F72206F6363757272656420647572696E672049324320636F6D6D20746F2073657420636F6E74726F6C20726567697374657220330D0A0000434F4E54DB
:401E8000524F4C20524547495354455220343A203078253032580D0A000000004572726F72206F6363757272656420647572696E672049324320636F6D6D20746F20726596
:401EC000616420636F6E74726F6C20726567697374657220340D0A00434F4E54524F4C2052454749535445522034207375636365737366756C6C79207772697474656E2080
:401F000061733A203078253032580D0A000000004572726F72206F6363757272656420647572696E672049324320636F6D6D20746F2073657420636F6E74726F6C2072657A
:401F400067697374657220340D0A0000434F4E54524F4C20524547495354455220353A203078253032580D0A000000004572726F72206F6363757272656420647572696EB2
:401F8000672049324320636F6D6D20746F207265616420636F6E74726F6C20726567697374657220350D0A00434F4E54524F4C205245474953544552203520737563636511
:401FC000737366756C6C79207772697474656E2061733A203078253032580D0A000000004572726F72206F6363757272656420647572696E672049324320636F6D6D20744E
:402000006F2073657420636F6E74726F6C20726567697374657220350D0A00004649464F20434F4E54524F4C2052454749535445523A203078253032580D0A004572726F39
:4020400072206F6363757272656420647572696E672049324320636F6D6D20746F2072656164204649464F20636F6E74726F6C207265676973746572200D0A004649464F20
:4020800020434F4E54524F4C205245474953544552207375636365737366756C6C79207772697474656E2061733A203078253032580D0A004572726F72206F636375727244
:4020C000656420647572696E672049324320636F6D6D20746F20736574204649464F20636F6E74726F6C207265676973746572200D0A0000494E543220434F4E46494755EC
:40210000524154494F4E2052454749535445523A203078253032580D0A0000004572726F72206F6363757272656420647572696E672049324320636F6D6D20746F20726587
:40214000616420494E543220434F4E46494755524154494F4E205245474953544552200D0A000000494E543220434F4E46494755524154494F4E20524547495354455220EF
:402180007375636365737366756C6C79207772697474656E2061733A203078253032580D0A0000004572726F72206F6363757272656420647572696E672049324320636FE7
:4021C0006D6D20746F2073657420494E543220434F4E46494755524154494F4E205245474953544552200D0A00000000416363656C65726174696F6E20646174613A2025A2
:40220000642025642025640D0A000000035B00402443004040000000C84900401900004F00400C00405100403000F051004010000000014080060007014000090014014048
:40224000000800400140000A004C0140000200500140200060520040EC060048060080060140F406004880004300232D302B2000686C4C00656667454647003031323334A4
:402280003536373839414243444546003031323334353637383961626364656600000000F8B500BFF8BC08BC9E4670474D000000F50A0000F8B500BFF8BC08BC9E467047CA
:4022C00029000000D8220000C880FF1F800000004800000000000000000000009081FF1F0000E02EC05D00001800000000366E010000000000000000000000000000000076
:402300000000000000000000000000000000000068220000000000000000000000000000000000000000000000000000000000000000000000000000000000000000000013
:4023400000000000000000000000000000000000E080FF1F0000000000000000000000000000000000000000000000000000000000000000000000000000000000000000DF
:40238000000000000000000000000000000000000000000000000000000000000000000000000000000000000000000000000000000000000000000000000000000000001D
:4023C00000000000000000000000000000000000000000000000000000000000000000000000000000000000000000000000000000000000000000000000000000000000DD
:40240000000000000000000000000000000000000000000000000000000000000000000000000000000000000000000000000000000000000000000000000000000000009C
:40244000000000000000000000000000000000000000000000000000000000000000000000000000000000000000000000000000000000000000000000000000000000005C
:020000040003F7
:0200000480007A
:40000000024F004003520040016400400565004003050140050601403507014001090140040A0140040B01405214014049150140551601404917014054180140361901407F
:40004000661A01404F1B014003400140054101400942014006430140024401400345014005460140034701400C4801401B4901400B4C01400F4D0140055001400251014033
:4000800001300A4B014018C01940870F8438850D860F88728A0FA001B001E201540956045B045D105F010098038008010A410B101028124218541950200821152216231070
:4000C00028012A202B802C082F043216334039143B0140044105480549084B01510852505C405D0A5F20618065406601687869146A406B40720182018621A001C00FC20DCB
:40010000C40FCA0DCC0FCE07D007D20CD6F0D898B440B90ABF05D904DF01248027208320EA800504073909130B040C011105133A140117201D0E1E012202234026012740BB
:400140002E023330340135403602370F382039803A023E403F105418580459045B045C125D205F01810A8401850488039301960497049C039D08A604A90AAD04B001B10832
:40018000B202B304B404B501B702BE10C030C106C5D0C620C710C83AC9FFCAFFCBFFCDA0CF04D018D405D804D904DA04DB04DC44DD44DF01E040E2C0E440E540E6C0E8C088
:4001C000EAC0ECC0EEC00302050406080A120F22104011081201170819401B221D041E4820042188268027A82BA02C022F083188320235013680370839283D023E0847081B
:400200004F215402560857115B025E485F016004614087A0884089088E109128920299019A019B029F80A105A202A308A702A904AF02B008B301B702C061C2A5C42DCA33D7
:40024000CCDBCEC6D040D220D6D1D80CE008E401E628EA06EC10EE0200070609080710041B01270128082C08300232043408350136013F104040410245D546244701483FA8
:4002800049FF4AFF4BFF4DA04F04501852805407580459045A045B045C045D445F01604062C06440654066C068C06AC06CC06EC080108268840885098613870688EC890320
:4002C0008B0C8CEC906C91059280930A968098E89A049CEC9D029F0DA001A206A817AA40AC11AE26B078B480B607B70FBA82BB80BE10D440D604D804D904DB04DC11DD10A0
:40030000DF0100A80102042006400720080809080A410B080E80104012021310160A19021B901C021EA01F102180240428402B802F20318032023720392845124C104F0151
:400340005511564A57285C045E205F816080621063227501860188018B108D028E018F209128924193189A109C80A054A108A202A580A780A810A912B480B721C07FC21F4C
:40038000C4CBCA40CC29CE06D0A0D6F0D80FE2A0E603EA1201100223040305C0083309180A0C0DFF103F113C13C214021508181F191C1A201BE11C081F04201C2144222364
:4003C000240425E72718280C29802C012E402FE33040320F3338342C35C03610371F3A283B803E4056025713580459045B045C225D205F01821C8C1C8E03930198019A0E77
:400400009C019E16A608AA03B00FB101B41ABA22C003C640C9FFCA07CBFFCC40CD20CEF0CF05D008D280D804D904DA04DB04DC42DD42DF01E040E1A8E240E3200040010270
:400440000414068C0A060C800D200E100F80100812101540172A18481A041C101D301E8122022504262827022ED82F80310135103640370A3C0C3E223F80410850085210E5
:400480005E016D106E086F01710174807622772887028E0AC079C2F3C4F6CAF0CCF1CEF0D002D680E651EA02002402400440057307040C700D2A0E090F441173130C148013
:4004C000175519031A0C1B441C411E30205023082431264428023003310F32803330347C3740380239083B023E043F4440464102450C46EB480D49FF4AFF4BFF4EF04F4448
:40050000500C5401580459045A045B045C225D225F0166C06A406B02850188018A0E9484965198E7A020A8E7AC42AE91B020B101B2C0B407B618BE40BF01C024C105C203AF
:40054000C401C6E0C7C0C828C9FFCAFFCBFFCC62CDA0CEF0CF41D00CD804D904DA04DC02DD02DF01E640E702E910EA30EB10ED10EE10EF1200400102021005100A060B2007
:400580000E181008110412401550170119061A041C081D921E50210922412501290230383201384839043A083E04410142084586460448284F8052405310560257205810D5
:4005C00059045A805B0287208A028B128D418E048F8090489110954096529A149B019D02A008A104A204A340A404A508A780A920AE20B740C04DC267C4DECA01CC07CE4A9B
:40060000D0F5D214D60FE008E280E401E610EA02EC5033403710CC305A0463209F50D640D8403C806301830196049F50A710CE20D640E280831096049F50A440A710E22026
:400640007C01DE0100029401C00845089401B001D001EA01A508B401EC0825108004880289029604AB10AC40B740C820E680EA40EE801220164058026401650270047E028C
:400680008220840186408A049008960498029902A202AE02B510C430D6C0D880DC80DE20E010E240E480EA401220138017017B107F4082209F80A508AF80C40EDE0312805A
:4006C0007504831087408D048E809780A710AF01B508C408DE04E008E202EC0800020A0210161A161C14000F03C0000082800000430000000482000007183802010200183A
:400700008400000004C18038569C090300330044841A00006018000084000000801A04000A181002080F7FE0801302000800000A000051004306200005CEFB0D1FFFFFFF09
:400740002200F008040000000000022004040404111100010000C00040011011C001001140014001000000000000000000000000000000000060600060000000830050801D
:400780008300830000000000000B0B0000000000100001101000000000000000E00000E0E000E0000800000025001801000000000000000000000000000000000000000026
:4007C00000000000000000000000000000000000000000000000000000000000000000000000000000000000000000000000000000000000000000000000000000000000F9
:4008000000000000000000000000000000000000000000000000000000000000000000000000000000000000000000000000000000000000000000000000000000000000B8
:400840000000000000000000000000000000000000000000000000000000000000000000000000000000000000000000000000000000000000000000000000000000000078
:400880000000000000000000000000000000000000000000000000000000000000000000000000000000000000000000000000000000000000000000000000000000000038
:0200000490006A
:0400000000004005B7
:0200000490105A
:04000000BC90ACAF55
:0200000490303A
:020000002ABD17
:0200000490402A
:4000000000000000000000000000000000000000000000000000000000000000000000000000000000000000000000000000000000000000000000000000000000000000C0
:400040000000000000000000000000000000000000000000000000000000000000000000000000000000000000000000000000000000000000000000000000000000000080
:400080000000000000000000000000000000000000000000000000000000000000000000000000000000000000000000000000000000000000000000000000000000000040
:4000C0000000000000000000000000000000000000000000000000000000000000000000000000000000000000000000000000000000000000000000000000000000000000
:0200000490501A
:0C00000000012E16106900012E253B2681
:00000001FF